{
  "_format": "hh-sol-artifact-1",
  "contractName": "FireMen",
  "sourceName": "contracts/MyNFT.sol",
  "abi": [
    {
      "inputs": [],
      "stateMutability": "nonpayable",
      "type": "constructor"
    },
    {
      "anonymous": false,
      "inputs": [
        {
          "indexed": true,
          "internalType": "address",
          "name": "owner",
          "type": "address"
        },
        {
          "indexed": true,
          "internalType": "address",
          "name": "approved",
          "type": "address"
        },
        {
          "indexed": true,
          "internalType": "uint256",
          "name": "tokenId",
          "type": "uint256"
        }
      ],
      "name": "Approval",
      "type": "event"
    },
    {
      "anonymous": false,
      "inputs": [
        {
          "indexed": true,
          "internalType": "address",
          "name": "owner",
          "type": "address"
        },
        {
          "indexed": true,
          "internalType": "address",
          "name": "operator",
          "type": "address"
        },
        {
          "indexed": false,
          "internalType": "bool",
          "name": "approved",
          "type": "bool"
        }
      ],
      "name": "ApprovalForAll",
      "type": "event"
    },
    {
      "anonymous": false,
      "inputs": [
        {
          "indexed": true,
          "internalType": "address",
          "name": "previousOwner",
          "type": "address"
        },
        {
          "indexed": true,
          "internalType": "address",
          "name": "newOwner",
          "type": "address"
        }
      ],
      "name": "OwnershipTransferred",
      "type": "event"
    },
    {
      "anonymous": false,
      "inputs": [
        {
          "indexed": true,
          "internalType": "address",
          "name": "from",
          "type": "address"
        },
        {
          "indexed": true,
          "internalType": "address",
          "name": "to",
          "type": "address"
        },
        {
          "indexed": true,
          "internalType": "uint256",
          "name": "tokenId",
          "type": "uint256"
        }
      ],
      "name": "Transfer",
      "type": "event"
    },
    {
      "inputs": [
        {
          "internalType": "address",
          "name": "to",
          "type": "address"
        },
        {
          "internalType": "uint256",
          "name": "tokenId",
          "type": "uint256"
        }
      ],
      "name": "approve",
      "outputs": [],
      "stateMutability": "nonpayable",
      "type": "function"
    },
    {
      "inputs": [
        {
          "internalType": "address",
          "name": "owner",
          "type": "address"
        }
      ],
      "name": "balanceOf",
      "outputs": [
        {
          "internalType": "uint256",
          "name": "",
          "type": "uint256"
        }
      ],
      "stateMutability": "view",
      "type": "function"
    },
    {
      "inputs": [],
      "name": "cashOut",
      "outputs": [],
      "stateMutability": "payable",
      "type": "function"
    },
    {
      "inputs": [
        {
          "internalType": "uint256",
          "name": "tokenId",
          "type": "uint256"
        }
      ],
      "name": "getApproved",
      "outputs": [
        {
          "internalType": "address",
          "name": "",
          "type": "address"
        }
      ],
      "stateMutability": "view",
      "type": "function"
    },
    {
      "inputs": [],
      "name": "getContractBalance",
      "outputs": [
        {
          "internalType": "uint256",
          "name": "",
          "type": "uint256"
        }
      ],
      "stateMutability": "view",
      "type": "function"
    },
    {
      "inputs": [],
      "name": "getMyTokens",
      "outputs": [
        {
          "internalType": "string[]",
          "name": "",
          "type": "string[]"
        }
      ],
      "stateMutability": "view",
      "type": "function"
    },
    {
      "inputs": [
        {
          "internalType": "string",
          "name": "name",
          "type": "string"
        }
      ],
      "name": "getOwnerByName",
      "outputs": [
        {
          "internalType": "address",
          "name": "",
          "type": "address"
        }
      ],
      "stateMutability": "view",
      "type": "function"
    },
    {
      "inputs": [
        {
          "internalType": "string",
          "name": "name",
          "type": "string"
        }
      ],
      "name": "getTokenIdByName",
      "outputs": [
        {
          "internalType": "uint256",
          "name": "",
          "type": "uint256"
        }
      ],
      "stateMutability": "view",
      "type": "function"
    },
    {
      "inputs": [
        {
          "internalType": "address",
          "name": "owner",
          "type": "address"
        },
        {
          "internalType": "address",
          "name": "operator",
          "type": "address"
        }
      ],
      "name": "isApprovedForAll",
      "outputs": [
        {
          "internalType": "bool",
          "name": "",
          "type": "bool"
        }
      ],
      "stateMutability": "view",
      "type": "function"
    },
    {
      "inputs": [
        {
          "internalType": "string",
          "name": "uri",
          "type": "string"
        }
      ],
      "name": "isContentOwned",
      "outputs": [
        {
          "internalType": "bool",
          "name": "",
          "type": "bool"
        }
      ],
      "stateMutability": "view",
      "type": "function"
    },
    {
      "inputs": [],
      "name": "name",
      "outputs": [
        {
          "internalType": "string",
          "name": "",
          "type": "string"
        }
      ],
      "stateMutability": "view",
      "type": "function"
    },
    {
      "inputs": [],
      "name": "owner",
      "outputs": [
        {
          "internalType": "address",
          "name": "",
          "type": "address"
        }
      ],
      "stateMutability": "view",
      "type": "function"
    },
    {
      "inputs": [
        {
          "internalType": "uint256",
          "name": "tokenId",
          "type": "uint256"
        }
      ],
      "name": "ownerOf",
      "outputs": [
        {
          "internalType": "address",
          "name": "",
          "type": "address"
        }
      ],
      "stateMutability": "view",
      "type": "function"
    },
    {
      "inputs": [
        {
          "internalType": "string",
          "name": "metadataURI",
          "type": "string"
        },
        {
          "internalType": "string",
          "name": "tokenName",
          "type": "string"
        }
      ],
      "name": "payToMint",
      "outputs": [
        {
          "internalType": "uint256",
          "name": "",
          "type": "uint256"
        }
      ],
      "stateMutability": "payable",
      "type": "function"
    },
    {
      "inputs": [],
      "name": "renounceOwnership",
      "outputs": [],
      "stateMutability": "nonpayable",
      "type": "function"
    },
    {
      "inputs": [
        {
          "internalType": "address",
          "name": "to",
          "type": "address"
        },
        {
          "internalType": "string",
          "name": "uri",
          "type": "string"
        }
      ],
      "name": "safeMint",
      "outputs": [],
      "stateMutability": "nonpayable",
      "type": "function"
    },
    {
      "inputs": [
        {
          "internalType": "address",
          "name": "from",
          "type": "address"
        },
        {
          "internalType": "address",
          "name": "to",
          "type": "address"
        },
        {
          "internalType": "uint256",
          "name": "tokenId",
          "type": "uint256"
        }
      ],
      "name": "safeTransferFrom",
      "outputs": [],
      "stateMutability": "nonpayable",
      "type": "function"
    },
    {
      "inputs": [
        {
          "internalType": "address",
          "name": "from",
          "type": "address"
        },
        {
          "internalType": "address",
          "name": "to",
          "type": "address"
        },
        {
          "internalType": "uint256",
          "name": "tokenId",
          "type": "uint256"
        },
        {
          "internalType": "bytes",
          "name": "_data",
          "type": "bytes"
        }
      ],
      "name": "safeTransferFrom",
      "outputs": [],
      "stateMutability": "nonpayable",
      "type": "function"
    },
    {
      "inputs": [
        {
          "internalType": "address",
          "name": "operator",
          "type": "address"
        },
        {
          "internalType": "bool",
          "name": "approved",
          "type": "bool"
        }
      ],
      "name": "setApprovalForAll",
      "outputs": [],
      "stateMutability": "nonpayable",
      "type": "function"
    },
    {
      "inputs": [
        {
          "internalType": "bytes4",
          "name": "interfaceId",
          "type": "bytes4"
        }
      ],
      "name": "supportsInterface",
      "outputs": [
        {
          "internalType": "bool",
          "name": "",
          "type": "bool"
        }
      ],
      "stateMutability": "view",
      "type": "function"
    },
    {
      "inputs": [],
      "name": "symbol",
      "outputs": [
        {
          "internalType": "string",
          "name": "",
          "type": "string"
        }
      ],
      "stateMutability": "view",
      "type": "function"
    },
    {
      "inputs": [],
      "name": "tokenCount",
      "outputs": [
        {
          "internalType": "uint256",
          "name": "",
          "type": "uint256"
        }
      ],
      "stateMutability": "view",
      "type": "function"
    },
    {
      "inputs": [
        {
          "internalType": "uint256",
          "name": "tokenId",
          "type": "uint256"
        }
      ],
      "name": "tokenURI",
      "outputs": [
        {
          "internalType": "string",
          "name": "",
          "type": "string"
        }
      ],
      "stateMutability": "view",
      "type": "function"
    },
    {
      "inputs": [
        {
          "internalType": "address",
          "name": "from",
          "type": "address"
        },
        {
          "internalType": "address",
          "name": "to",
          "type": "address"
        },
        {
          "internalType": "uint256",
          "name": "tokenId",
          "type": "uint256"
        }
      ],
      "name": "transferFrom",
      "outputs": [],
      "stateMutability": "nonpayable",
      "type": "function"
    },
    {
      "inputs": [
        {
          "internalType": "address",
          "name": "newOwner",
          "type": "address"
        }
      ],
      "name": "transferOwnership",
      "outputs": [],
      "stateMutability": "nonpayable",
      "type": "function"
    },
    {
      "inputs": [
        {
          "internalType": "address",
          "name": "to",
          "type": "address"
        },
        {
          "internalType": "uint256",
          "name": "tokenId",
          "type": "uint256"
        }
      ],
      "name": "transferToken",
      "outputs": [],
      "stateMutability": "nonpayable",
      "type": "function"
    }
  ],
  "bytecode": "0x60806040523480156200001157600080fd5b506040518060400160405280600781526020017f466972654d656e000000000000000000000000000000000000000000000000008152506040518060400160405280600481526020017f4649524500000000000000000000000000000000000000000000000000000000815250816000908051906020019062000096929190620001a6565b508060019080519060200190620000af929190620001a6565b505050620000d2620000c6620000d860201b60201c565b620000e060201b60201c565b620002bb565b600033905090565b6000600760009054906101000a900473ffffffffffffffffffffffffffffffffffffffff16905081600760006101000a81548173ffffffffffffffffffffffffffffffffffffffff021916908373ffffffffffffffffffffffffffffffffffffffff1602179055508173ffffffffffffffffffffffffffffffffffffffff168173ffffffffffffffffffffffffffffffffffffffff167f8be0079c531659141344cd1fd0a4f28419497f9722a3daafe3b4186f6b6457e060405160405180910390a35050565b828054620001b49062000256565b90600052602060002090601f016020900481019282620001d8576000855562000224565b82601f10620001f357805160ff191683800117855562000224565b8280016001018555821562000224579182015b828111156200022357825182559160200191906001019062000206565b5b50905062000233919062000237565b5090565b5b808211156200025257600081600090555060010162000238565b5090565b600060028204905060018216806200026f57607f821691505b602082108114156200028657620002856200028c565b5b50919050565b7f4e487b7100000000000000000000000000000000000000000000000000000000600052602260045260246000fd5b613c8b80620002cb6000396000f3fe6080604052600436106101815760003560e01c8063793cd71e116100d1578063a22cb4651161008a578063d204c45e11610064578063d204c45e1461057a578063db7a298e146105a3578063e985e9c5146105e0578063f2fde38b1461061d57610181565b8063a22cb465146104eb578063b88d4fde14610514578063c87b56dd1461053d57610181565b8063793cd71e146103f35780637d99c858146103fd5780638da5cb5b1461042d57806395d89b41146104585780639f181b5e146104835780639f1cabc6146104ae57610181565b806342842e0e1161013e5780636352211e116101185780636352211e146103375780636f9fb98a1461037457806370a082311461039f578063715018a6146103dc57610181565b806342842e0e146102a65780634695bfe6146102cf5780635b3b136a1461030c57610181565b806301ffc9a71461018657806306fdde03146101c3578063081812fc146101ee578063095ea7b31461022b5780631072cbea1461025457806323b872dd1461027d575b600080fd5b34801561019257600080fd5b506101ad60048036038101906101a89190612904565b610646565b6040516101ba9190612f61565b60405180910390f35b3480156101cf57600080fd5b506101d8610728565b6040516101e59190612f7c565b60405180910390f35b3480156101fa57600080fd5b5061021560048036038101906102109190612a03565b6107ba565b6040516102229190612ed8565b60405180910390f35b34801561023757600080fd5b50610252600480360381019061024d91906128c8565b61083f565b005b34801561026057600080fd5b5061027b600480360381019061027691906128c8565b610957565b005b34801561028957600080fd5b506102a4600480360381019061029f919061276e565b6109b8565b005b3480156102b257600080fd5b506102cd60048036038101906102c8919061276e565b610a18565b005b3480156102db57600080fd5b506102f660048036038101906102f19190612956565b610a38565b6040516103039190612ed8565b60405180910390f35b34801561031857600080fd5b50610321610a73565b60405161032e9190612f3f565b60405180910390f35b34801561034357600080fd5b5061035e60048036038101906103599190612a03565b610c81565b60405161036b9190612ed8565b60405180910390f35b34801561038057600080fd5b50610389610d33565b604051610396919061323e565b60405180910390f35b3480156103ab57600080fd5b506103c660048036038101906103c19190612709565b610d40565b6040516103d3919061323e565b60405180910390f35b3480156103e857600080fd5b506103f1610df8565b005b6103fb610e80565b005b61041760048036038101906104129190612997565b610f9c565b604051610424919061323e565b60405180910390f35b34801561043957600080fd5b5061044261113d565b60405161044f9190612ed8565b60405180910390f35b34801561046457600080fd5b5061046d611167565b60405161047a9190612f7c565b60405180910390f35b34801561048f57600080fd5b506104986111f9565b6040516104a5919061323e565b60405180910390f35b3480156104ba57600080fd5b506104d560048036038101906104d09190612956565b61120a565b6040516104e29190612f61565b60405180910390f35b3480156104f757600080fd5b50610512600480360381019061050d9190612838565b611245565b005b34801561052057600080fd5b5061053b600480360381019061053691906127bd565b61125b565b005b34801561054957600080fd5b50610564600480360381019061055f9190612a03565b6112bd565b6040516105719190612f7c565b60405180910390f35b34801561058657600080fd5b506105a1600480360381019061059c9190612874565b6112cf565b005b3480156105af57600080fd5b506105ca60048036038101906105c59190612956565b61137c565b6040516105d7919061323e565b60405180910390f35b3480156105ec57600080fd5b5061060760048036038101906106029190612732565b6113a4565b6040516106149190612f61565b60405180910390f35b34801561062957600080fd5b50610644600480360381019061063f9190612709565b611438565b005b60007f80ac58cd000000000000000000000000000000000000000000000000000000007bffffffffffffffffffffffffffffffffffffffffffffffffffffffff1916827bffffffffffffffffffffffffffffffffffffffffffffffffffffffff1916148061071157507f5b5e139f000000000000000000000000000000000000000000000000000000007bffffffffffffffffffffffffffffffffffffffffffffffffffffffff1916827bffffffffffffffffffffffffffffffffffffffffffffffffffffffff1916145b80610721575061072082611530565b5b9050919050565b606060008054610737906134de565b80601f0160208091040260200160405190810160405280929190818152602001828054610763906134de565b80156107b05780601f10610785576101008083540402835291602001916107b0565b820191906000526020600020905b81548152906001019060200180831161079357829003601f168201915b5050505050905090565b60006107c58261159a565b610804576040517f08c379a00000000000000000000000000000000000000000000000000000000081526004016107fb9061319e565b60405180910390fd5b6004600083815260200190815260200160002060009054906101000a900473ffffffffffffffffffffffffffffffffffffffff169050919050565b600061084a82610c81565b90508073ffffffffffffffffffffffffffffffffffffffff168373ffffffffffffffffffffffffffffffffffffffff1614156108bb576040517f08c379a00000000000000000000000000000000000000000000000000000000081526004016108b2906131fe565b60405180910390fd5b8073ffffffffffffffffffffffffffffffffffffffff166108da611606565b73ffffffffffffffffffffffffffffffffffffffff161480610909575061090881610903611606565b6113a4565b5b610948576040517f08c379a000000000000000000000000000000000000000000000000000000000815260040161093f906130de565b60405180910390fd5b610952838361160e565b505050565b610962338383610a18565b81600b600083815260200190815260200160002060006101000a81548173ffffffffffffffffffffffffffffffffffffffff021916908373ffffffffffffffffffffffffffffffffffffffff1602179055505050565b6109c96109c3611606565b826116c7565b610a08576040517f08c379a00000000000000000000000000000000000000000000000000000000081526004016109ff9061321e565b60405180910390fd5b610a138383836117a5565b505050565b610a338383836040518060200160405280600081525061125b565b505050565b600080600a83604051610a4b9190612e9d565b90815260200160405180910390205490506000610a6782610c81565b90508092505050919050565b60606000610a816008611a0c565b905060008060005b83811015610b1b573373ffffffffffffffffffffffffffffffffffffffff16600b600083815260200190815260200160002060009054906101000a900473ffffffffffffffffffffffffffffffffffffffff1673ffffffffffffffffffffffffffffffffffffffff161415610b0857600183610b05919061336d565b92505b8080610b1390613541565b915050610a89565b5060008267ffffffffffffffff811115610b5e577f4e487b7100000000000000000000000000000000000000000000000000000000600052604160045260246000fd5b604051908082528060200260200182016040528015610b9157816020015b6060815260200190600190039081610b7c5790505b50905060005b84811015610c76573373ffffffffffffffffffffffffffffffffffffffff16600b600083815260200190815260200160002060009054906101000a900473ffffffffffffffffffffffffffffffffffffffff1673ffffffffffffffffffffffffffffffffffffffff161415610c6357610c0f816112bd565b828481518110610c48577f4e487b7100000000000000000000000000000000000000000000000000000000600052603260045260246000fd5b6020026020010181905250600183610c60919061336d565b92505b8080610c6e90613541565b915050610b97565b508094505050505090565b6000806002600084815260200190815260200160002060009054906101000a900473ffffffffffffffffffffffffffffffffffffffff169050600073ffffffffffffffffffffffffffffffffffffffff168173ffffffffffffffffffffffffffffffffffffffff161415610d2a576040517f08c379a0000000000000000000000000000000000000000000000000000000008152600401610d219061311e565b60405180910390fd5b80915050919050565b6000804790508091505090565b60008073ffffffffffffffffffffffffffffffffffffffff168273ffffffffffffffffffffffffffffffffffffffff161415610db1576040517f08c379a0000000000000000000000000000000000000000000000000000000008152600401610da8906130fe565b60405180910390fd5b600360008373ffffffffffffffffffffffffffffffffffffffff1673ffffffffffffffffffffffffffffffffffffffff168152602001908152602001600020549050919050565b610e00611606565b73ffffffffffffffffffffffffffffffffffffffff16610e1e61113d565b73ffffffffffffffffffffffffffffffffffffffff1614610e74576040517f08c379a0000000000000000000000000000000000000000000000000000000008152600401610e6b906131be565b60405180910390fd5b610e7e6000611a1a565b565b610e88611606565b73ffffffffffffffffffffffffffffffffffffffff16610ea661113d565b73ffffffffffffffffffffffffffffffffffffffff1614610efc576040517f08c379a0000000000000000000000000000000000000000000000000000000008152600401610ef3906131be565b60405180910390fd5b6000610f06610d33565b905060008111610f4b576040517f08c379a0000000000000000000000000000000000000000000000000000000008152600401610f42906130be565b60405180910390fd5b610f5361113d565b73ffffffffffffffffffffffffffffffffffffffff166108fc829081150290604051600060405180830381858888f19350505050158015610f98573d6000803e3d6000fd5b5050565b60006001600984604051610fb09190612e9d565b908152602001604051809103902060009054906101000a900460ff1660ff161415611010576040517f08c379a00000000000000000000000000000000000000000000000000000000081526004016110079061307e565b60405180910390fd5b66b1a2bc2ec5000034101561105a576040517f08c379a00000000000000000000000000000000000000000000000000000000081526004016110519061301e565b60405180910390fd5b60006110666008611a0c565b90506110726008611ae0565b60016009856040516110849190612e9d565b908152602001604051809103902060006101000a81548160ff021916908360ff16021790555080600a846040516110bb9190612e9d565b9081526020016040518091039020819055506110d73382611af6565b6110e18185611cd0565b33600b600083815260200190815260200160002060006101000a81548173ffffffffffffffffffffffffffffffffffffffff021916908373ffffffffffffffffffffffffffffffffffffffff1602179055508091505092915050565b6000600760009054906101000a900473ffffffffffffffffffffffffffffffffffffffff16905090565b606060018054611176906134de565b80601f01602080910402602001604051908101604052809291908181526020018280546111a2906134de565b80156111ef5780601f106111c4576101008083540402835291602001916111ef565b820191906000526020600020905b8154815290600101906020018083116111d257829003601f168201915b5050505050905090565b60006112056008611a0c565b905090565b6000600160098360405161121e9190612e9d565b908152602001604051809103902060009054906101000a900460ff1660ff16149050919050565b611257611250611606565b8383611d44565b5050565b61126c611266611606565b836116c7565b6112ab576040517f08c379a00000000000000000000000000000000000000000000000000000000081526004016112a29061321e565b60405180910390fd5b6112b784848484611eb1565b50505050565b60606112c882611f0d565b9050919050565b6112d7611606565b73ffffffffffffffffffffffffffffffffffffffff166112f561113d565b73ffffffffffffffffffffffffffffffffffffffff161461134b576040517f08c379a0000000000000000000000000000000000000000000000000000000008152600401611342906131be565b60405180910390fd5b60006113576008611a0c565b90506113636008611ae0565b61136d838261205f565b6113778183611cd0565b505050565b6000600a8260405161138e9190612e9d565b9081526020016040518091039020549050919050565b6000600560008473ffffffffffffffffffffffffffffffffffffffff1673ffffffffffffffffffffffffffffffffffffffff16815260200190815260200160002060008373ffffffffffffffffffffffffffffffffffffffff1673ffffffffffffffffffffffffffffffffffffffff16815260200190815260200160002060009054906101000a900460ff16905092915050565b611440611606565b73ffffffffffffffffffffffffffffffffffffffff1661145e61113d565b73ffffffffffffffffffffffffffffffffffffffff16146114b4576040517f08c379a00000000000000000000000000000000000000000000000000000000081526004016114ab906131be565b60405180910390fd5b600073ffffffffffffffffffffffffffffffffffffffff168173ffffffffffffffffffffffffffffffffffffffff161415611524576040517f08c379a000000000000000000000000000000000000000000000000000000000815260040161151b90612fbe565b60405180910390fd5b61152d81611a1a565b50565b60007f01ffc9a7000000000000000000000000000000000000000000000000000000007bffffffffffffffffffffffffffffffffffffffffffffffffffffffff1916827bffffffffffffffffffffffffffffffffffffffffffffffffffffffff1916149050919050565b60008073ffffffffffffffffffffffffffffffffffffffff166002600084815260200190815260200160002060009054906101000a900473ffffffffffffffffffffffffffffffffffffffff1673ffffffffffffffffffffffffffffffffffffffff1614159050919050565b600033905090565b816004600083815260200190815260200160002060006101000a81548173ffffffffffffffffffffffffffffffffffffffff021916908373ffffffffffffffffffffffffffffffffffffffff160217905550808273ffffffffffffffffffffffffffffffffffffffff1661168183610c81565b73ffffffffffffffffffffffffffffffffffffffff167f8c5be1e5ebec7d5bd14f71427d1e84f3dd0314c0f7b2291e5b200ac8c7c3b92560405160405180910390a45050565b60006116d28261159a565b611711576040517f08c379a00000000000000000000000000000000000000000000000000000000081526004016117089061309e565b60405180910390fd5b600061171c83610c81565b90508073ffffffffffffffffffffffffffffffffffffffff168473ffffffffffffffffffffffffffffffffffffffff16148061178b57508373ffffffffffffffffffffffffffffffffffffffff16611773846107ba565b73ffffffffffffffffffffffffffffffffffffffff16145b8061179c575061179b81856113a4565b5b91505092915050565b8273ffffffffffffffffffffffffffffffffffffffff166117c582610c81565b73ffffffffffffffffffffffffffffffffffffffff161461181b576040517f08c379a000000000000000000000000000000000000000000000000000000000815260040161181290612fde565b60405180910390fd5b600073ffffffffffffffffffffffffffffffffffffffff168273ffffffffffffffffffffffffffffffffffffffff16141561188b576040517f08c379a00000000000000000000000000000000000000000000000000000000081526004016118829061303e565b60405180910390fd5b61189683838361207d565b6118a160008261160e565b6001600360008573ffffffffffffffffffffffffffffffffffffffff1673ffffffffffffffffffffffffffffffffffffffff16815260200190815260200160002060008282546118f191906133f4565b925050819055506001600360008473ffffffffffffffffffffffffffffffffffffffff1673ffffffffffffffffffffffffffffffffffffffff1681526020019081526020016000206000828254611948919061336d565b92505081905550816002600083815260200190815260200160002060006101000a81548173ffffffffffffffffffffffffffffffffffffffff021916908373ffffffffffffffffffffffffffffffffffffffff160217905550808273ffffffffffffffffffffffffffffffffffffffff168473ffffffffffffffffffffffffffffffffffffffff167fddf252ad1be2c89b69c2b068fc378daa952ba7f163c4a11628f55a4df523b3ef60405160405180910390a4611a07838383612082565b505050565b600081600001549050919050565b6000600760009054906101000a900473ffffffffffffffffffffffffffffffffffffffff16905081600760006101000a81548173ffffffffffffffffffffffffffffffffffffffff021916908373ffffffffffffffffffffffffffffffffffffffff1602179055508173ffffffffffffffffffffffffffffffffffffffff168173ffffffffffffffffffffffffffffffffffffffff167f8be0079c531659141344cd1fd0a4f28419497f9722a3daafe3b4186f6b6457e060405160405180910390a35050565b6001816000016000828254019250508190555050565b600073ffffffffffffffffffffffffffffffffffffffff168273ffffffffffffffffffffffffffffffffffffffff161415611b66576040517f08c379a0000000000000000000000000000000000000000000000000000000008152600401611b5d9061315e565b60405180910390fd5b611b6f8161159a565b15611baf576040517f08c379a0000000000000000000000000000000000000000000000000000000008152600401611ba690612ffe565b60405180910390fd5b611bbb6000838361207d565b6001600360008473ffffffffffffffffffffffffffffffffffffffff1673ffffffffffffffffffffffffffffffffffffffff1681526020019081526020016000206000828254611c0b919061336d565b92505081905550816002600083815260200190815260200160002060006101000a81548173ffffffffffffffffffffffffffffffffffffffff021916908373ffffffffffffffffffffffffffffffffffffffff160217905550808273ffffffffffffffffffffffffffffffffffffffff16600073ffffffffffffffffffffffffffffffffffffffff167fddf252ad1be2c89b69c2b068fc378daa952ba7f163c4a11628f55a4df523b3ef60405160405180910390a4611ccc60008383612082565b5050565b611cd98261159a565b611d18576040517f08c379a0000000000000000000000000000000000000000000000000000000008152600401611d0f9061313e565b60405180910390fd5b80600660008481526020019081526020016000209080519060200190611d3f92919061252d565b505050565b8173ffffffffffffffffffffffffffffffffffffffff168373ffffffffffffffffffffffffffffffffffffffff161415611db3576040517f08c379a0000000000000000000000000000000000000000000000000000000008152600401611daa9061305e565b60405180910390fd5b80600560008573ffffffffffffffffffffffffffffffffffffffff1673ffffffffffffffffffffffffffffffffffffffff16815260200190815260200160002060008473ffffffffffffffffffffffffffffffffffffffff1673ffffffffffffffffffffffffffffffffffffffff16815260200190815260200160002060006101000a81548160ff0219169083151502179055508173ffffffffffffffffffffffffffffffffffffffff168373ffffffffffffffffffffffffffffffffffffffff167f17307eab39ab6107e8899845ad3d59bd9653f200f220920489ca2b5937696c3183604051611ea49190612f61565b60405180910390a3505050565b611ebc8484846117a5565b611ec884848484612087565b611f07576040517f08c379a0000000000000000000000000000000000000000000000000000000008152600401611efe90612f9e565b60405180910390fd5b50505050565b6060611f188261159a565b611f57576040517f08c379a0000000000000000000000000000000000000000000000000000000008152600401611f4e9061317e565b60405180910390fd5b6000600660008481526020019081526020016000208054611f77906134de565b80601f0160208091040260200160405190810160405280929190818152602001828054611fa3906134de565b8015611ff05780601f10611fc557610100808354040283529160200191611ff0565b820191906000526020600020905b815481529060010190602001808311611fd357829003601f168201915b50505050509050600061200161221e565b905060008151141561201757819250505061205a565b60008251111561204c578082604051602001612034929190612eb4565b6040516020818303038152906040529250505061205a565b6120558461225b565b925050505b919050565b612079828260405180602001604052806000815250612302565b5050565b505050565b505050565b60006120a88473ffffffffffffffffffffffffffffffffffffffff1661235d565b15612211578373ffffffffffffffffffffffffffffffffffffffff1663150b7a026120d1611606565b8786866040518563ffffffff1660e01b81526004016120f39493929190612ef3565b602060405180830381600087803b15801561210d57600080fd5b505af192505050801561213e57506040513d601f19601f8201168201806040525081019061213b919061292d565b60015b6121c1573d806000811461216e576040519150601f19603f3d011682016040523d82523d6000602084013e612173565b606091505b506000815114156121b9576040517f08c379a00000000000000000000000000000000000000000000000000000000081526004016121b090612f9e565b60405180910390fd5b805181602001fd5b63150b7a0260e01b7bffffffffffffffffffffffffffffffffffffffffffffffffffffffff1916817bffffffffffffffffffffffffffffffffffffffffffffffffffffffff191614915050612216565b600190505b949350505050565b60606040518060400160405280600781526020017f697066733a2f2f00000000000000000000000000000000000000000000000000815250905090565b60606122668261159a565b6122a5576040517f08c379a000000000000000000000000000000000000000000000000000000000815260040161229c906131de565b60405180910390fd5b60006122af61221e565b905060008151116122cf57604051806020016040528060008152506122fa565b806122d984612380565b6040516020016122ea929190612eb4565b6040516020818303038152906040525b915050919050565b61230c8383611af6565b6123196000848484612087565b612358576040517f08c379a000000000000000000000000000000000000000000000000000000000815260040161234f90612f9e565b60405180910390fd5b505050565b6000808273ffffffffffffffffffffffffffffffffffffffff163b119050919050565b606060008214156123c8576040518060400160405280600181526020017f30000000000000000000000000000000000000000000000000000000000000008152509050612528565b600082905060005b600082146123fa5780806123e390613541565b915050600a826123f391906133c3565b91506123d0565b60008167ffffffffffffffff81111561243c577f4e487b7100000000000000000000000000000000000000000000000000000000600052604160045260246000fd5b6040519080825280601f01601f19166020018201604052801561246e5781602001600182028036833780820191505090505b5090505b600085146125215760018261248791906133f4565b9150600a85612496919061358a565b60306124a2919061336d565b60f81b8183815181106124de577f4e487b7100000000000000000000000000000000000000000000000000000000600052603260045260246000fd5b60200101907effffffffffffffffffffffffffffffffffffffffffffffffffffffffffffff1916908160001a905350600a8561251a91906133c3565b9450612472565b8093505050505b919050565b828054612539906134de565b90600052602060002090601f01602090048101928261255b57600085556125a2565b82601f1061257457805160ff19168380011785556125a2565b828001600101855582156125a2579182015b828111156125a1578251825591602001919060010190612586565b5b5090506125af91906125b3565b5090565b5b808211156125cc5760008160009055506001016125b4565b5090565b60006125e36125de8461327e565b613259565b9050828152602081018484840111156125fb57600080fd5b61260684828561349c565b509392505050565b600061262161261c846132af565b613259565b90508281526020810184848401111561263957600080fd5b61264484828561349c565b509392505050565b60008135905061265b81613bf9565b92915050565b60008135905061267081613c10565b92915050565b60008135905061268581613c27565b92915050565b60008151905061269a81613c27565b92915050565b600082601f8301126126b157600080fd5b81356126c18482602086016125d0565b91505092915050565b600082601f8301126126db57600080fd5b81356126eb84826020860161260e565b91505092915050565b60008135905061270381613c3e565b92915050565b60006020828403121561271b57600080fd5b60006127298482850161264c565b91505092915050565b6000806040838503121561274557600080fd5b60006127538582860161264c565b92505060206127648582860161264c565b9150509250929050565b60008060006060848603121561278357600080fd5b60006127918682870161264c565b93505060206127a28682870161264c565b92505060406127b3868287016126f4565b9150509250925092565b600080600080608085870312156127d357600080fd5b60006127e18782880161264c565b94505060206127f28782880161264c565b9350506040612803878288016126f4565b925050606085013567ffffffffffffffff81111561282057600080fd5b61282c878288016126a0565b91505092959194509250565b6000806040838503121561284b57600080fd5b60006128598582860161264c565b925050602061286a85828601612661565b9150509250929050565b6000806040838503121561288757600080fd5b60006128958582860161264c565b925050602083013567ffffffffffffffff8111156128b257600080fd5b6128be858286016126ca565b9150509250929050565b600080604083850312156128db57600080fd5b60006128e98582860161264c565b92505060206128fa858286016126f4565b9150509250929050565b60006020828403121561291657600080fd5b600061292484828501612676565b91505092915050565b60006020828403121561293f57600080fd5b600061294d8482850161268b565b91505092915050565b60006020828403121561296857600080fd5b600082013567ffffffffffffffff81111561298257600080fd5b61298e848285016126ca565b91505092915050565b600080604083850312156129aa57600080fd5b600083013567ffffffffffffffff8111156129c457600080fd5b6129d0858286016126ca565b925050602083013567ffffffffffffffff8111156129ed57600080fd5b6129f9858286016126ca565b9150509250929050565b600060208284031215612a1557600080fd5b6000612a23848285016126f4565b91505092915050565b6000612a388383612b0c565b905092915050565b612a4981613428565b82525050565b6000612a5a826132f0565b612a64818561331e565b935083602082028501612a76856132e0565b8060005b85811015612ab25784840389528151612a938582612a2c565b9450612a9e83613311565b925060208a01995050600181019050612a7a565b50829750879550505050505092915050565b612acd8161343a565b82525050565b6000612ade826132fb565b612ae8818561332f565b9350612af88185602086016134ab565b612b0181613677565b840191505092915050565b6000612b1782613306565b612b218185613340565b9350612b318185602086016134ab565b612b3a81613677565b840191505092915050565b6000612b5082613306565b612b5a8185613351565b9350612b6a8185602086016134ab565b612b7381613677565b840191505092915050565b6000612b8982613306565b612b938185613362565b9350612ba38185602086016134ab565b80840191505092915050565b6000612bbc603283613351565b9150612bc782613688565b604082019050919050565b6000612bdf602683613351565b9150612bea826136d7565b604082019050919050565b6000612c02602583613351565b9150612c0d82613726565b604082019050919050565b6000612c25601c83613351565b9150612c3082613775565b602082019050919050565b6000612c48601783613351565b9150612c538261379e565b602082019050919050565b6000612c6b602483613351565b9150612c76826137c7565b604082019050919050565b6000612c8e601983613351565b9150612c9982613816565b602082019050919050565b6000612cb1601583613351565b9150612cbc8261383f565b602082019050919050565b6000612cd4602c83613351565b9150612cdf82613868565b604082019050919050565b6000612cf7601783613351565b9150612d02826138b7565b602082019050919050565b6000612d1a603883613351565b9150612d25826138e0565b604082019050919050565b6000612d3d602a83613351565b9150612d488261392f565b604082019050919050565b6000612d60602983613351565b9150612d6b8261397e565b604082019050919050565b6000612d83602e83613351565b9150612d8e826139cd565b604082019050919050565b6000612da6602083613351565b9150612db182613a1c565b602082019050919050565b6000612dc9603183613351565b9150612dd482613a45565b604082019050919050565b6000612dec602c83613351565b9150612df782613a94565b604082019050919050565b6000612e0f602083613351565b9150612e1a82613ae3565b602082019050919050565b6000612e32602f83613351565b9150612e3d82613b0c565b604082019050919050565b6000612e55602183613351565b9150612e6082613b5b565b604082019050919050565b6000612e78603183613351565b9150612e8382613baa565b604082019050919050565b612e9781613492565b82525050565b6000612ea98284612b7e565b915081905092915050565b6000612ec08285612b7e565b9150612ecc8284612b7e565b91508190509392505050565b6000602082019050612eed6000830184612a40565b92915050565b6000608082019050612f086000830187612a40565b612f156020830186612a40565b612f226040830185612e8e565b8181036060830152612f348184612ad3565b905095945050505050565b60006020820190508181036000830152612f598184612a4f565b905092915050565b6000602082019050612f766000830184612ac4565b92915050565b60006020820190508181036000830152612f968184612b45565b905092915050565b60006020820190508181036000830152612fb781612baf565b9050919050565b60006020820190508181036000830152612fd781612bd2565b9050919050565b60006020820190508181036000830152612ff781612bf5565b9050919050565b6000602082019050818103600083015261301781612c18565b9050919050565b6000602082019050818103600083015261303781612c3b565b9050919050565b6000602082019050818103600083015261305781612c5e565b9050919050565b6000602082019050818103600083015261307781612c81565b9050919050565b6000602082019050818103600083015261309781612ca4565b9050919050565b600060208201905081810360008301526130b781612cc7565b9050919050565b600060208201905081810360008301526130d781612cea565b9050919050565b600060208201905081810360008301526130f781612d0d565b9050919050565b6000602082019050818103600083015261311781612d30565b9050919050565b6000602082019050818103600083015261313781612d53565b9050919050565b6000602082019050818103600083015261315781612d76565b9050919050565b6000602082019050818103600083015261317781612d99565b9050919050565b6000602082019050818103600083015261319781612dbc565b9050919050565b600060208201905081810360008301526131b781612ddf565b9050919050565b600060208201905081810360008301526131d781612e02565b9050919050565b600060208201905081810360008301526131f781612e25565b9050919050565b6000602082019050818103600083015261321781612e48565b9050919050565b6000602082019050818103600083015261323781612e6b565b9050919050565b60006020820190506132536000830184612e8e565b92915050565b6000613263613274565b905061326f8282613510565b919050565b6000604051905090565b600067ffffffffffffffff82111561329957613298613648565b5b6132a282613677565b9050602081019050919050565b600067ffffffffffffffff8211156132ca576132c9613648565b5b6132d382613677565b9050602081019050919050565b6000819050602082019050919050565b600081519050919050565b600081519050919050565b600081519050919050565b6000602082019050919050565b600082825260208201905092915050565b600082825260208201905092915050565b600082825260208201905092915050565b600082825260208201905092915050565b600081905092915050565b600061337882613492565b915061338383613492565b9250827fffffffffffffffffffffffffffffffffffffffffffffffffffffffffffffffff038211156133b8576133b76135bb565b5b828201905092915050565b60006133ce82613492565b91506133d983613492565b9250826133e9576133e86135ea565b5b828204905092915050565b60006133ff82613492565b915061340a83613492565b92508282101561341d5761341c6135bb565b5b828203905092915050565b600061343382613472565b9050919050565b60008115159050919050565b60007fffffffff0000000000000000000000000000000000000000000000000000000082169050919050565b600073ffffffffffffffffffffffffffffffffffffffff82169050919050565b6000819050919050565b82818337600083830152505050565b60005b838110156134c95780820151818401526020810190506134ae565b838111156134d8576000848401525b50505050565b600060028204905060018216806134f657607f821691505b6020821081141561350a57613509613619565b5b50919050565b61351982613677565b810181811067ffffffffffffffff8211171561353857613537613648565b5b80604052505050565b600061354c82613492565b91507fffffffffffffffffffffffffffffffffffffffffffffffffffffffffffffffff82141561357f5761357e6135bb565b5b600182019050919050565b600061359582613492565b91506135a083613492565b9250826135b0576135af6135ea565b5b828206905092915050565b7f4e487b7100000000000000000000000000000000000000000000000000000000600052601160045260246000fd5b7f4e487b7100000000000000000000000000000000000000000000000000000000600052601260045260246000fd5b7f4e487b7100000000000000000000000000000000000000000000000000000000600052602260045260246000fd5b7f4e487b7100000000000000000000000000000000000000000000000000000000600052604160045260246000fd5b6000601f19601f8301169050919050565b7f4552433732313a207472616e7366657220746f206e6f6e20455243373231526560008201527f63656976657220696d706c656d656e7465720000000000000000000000000000602082015250565b7f4f776e61626c653a206e6577206f776e657220697320746865207a65726f206160008201527f6464726573730000000000000000000000000000000000000000000000000000602082015250565b7f4552433732313a207472616e736665722066726f6d20696e636f72726563742060008201527f6f776e6572000000000000000000000000000000000000000000000000000000602082015250565b7f4552433732313a20746f6b656e20616c7265616479206d696e74656400000000600082015250565b7f5061792075702c2062697463682120302e303520455448000000000000000000600082015250565b7f4552433732313a207472616e7366657220746f20746865207a65726f2061646460008201527f7265737300000000000000000000000000000000000000000000000000000000602082015250565b7f4552433732313a20617070726f766520746f2063616c6c657200000000000000600082015250565b7f4e465420616c7265616479206d696e746564203b280000000000000000000000600082015250565b7f4552433732313a206f70657261746f7220717565727920666f72206e6f6e657860008201527f697374656e7420746f6b656e0000000000000000000000000000000000000000602082015250565b7f4e6f20657468657220746f2063617368206f7574203b28000000000000000000600082015250565b7f4552433732313a20617070726f76652063616c6c6572206973206e6f74206f7760008201527f6e6572206e6f7220617070726f76656420666f7220616c6c0000000000000000602082015250565b7f4552433732313a2062616c616e636520717565727920666f7220746865207a6560008201527f726f206164647265737300000000000000000000000000000000000000000000602082015250565b7f4552433732313a206f776e657220717565727920666f72206e6f6e657869737460008201527f656e7420746f6b656e0000000000000000000000000000000000000000000000602082015250565b7f45524337323155524953746f726167653a2055524920736574206f66206e6f6e60008201527f6578697374656e7420746f6b656e000000000000000000000000000000000000602082015250565b7f4552433732313a206d696e7420746f20746865207a65726f2061646472657373600082015250565b7f45524337323155524953746f726167653a2055524920717565727920666f722060008201527f6e6f6e6578697374656e7420746f6b656e000000000000000000000000000000602082015250565b7f4552433732313a20617070726f76656420717565727920666f72206e6f6e657860008201527f697374656e7420746f6b656e0000000000000000000000000000000000000000602082015250565b7f4f776e61626c653a2063616c6c6572206973206e6f7420746865206f776e6572600082015250565b7f4552433732314d657461646174613a2055524920717565727920666f72206e6f60008201527f6e6578697374656e7420746f6b656e0000000000000000000000000000000000602082015250565b7f4552433732313a20617070726f76616c20746f2063757272656e74206f776e6560008201527f7200000000000000000000000000000000000000000000000000000000000000602082015250565b7f4552433732313a207472616e736665722063616c6c6572206973206e6f74206f60008201527f776e6572206e6f7220617070726f766564000000000000000000000000000000602082015250565b613c0281613428565b8114613c0d57600080fd5b50565b613c198161343a565b8114613c2457600080fd5b50565b613c3081613446565b8114613c3b57600080fd5b50565b613c4781613492565b8114613c5257600080fd5b5056fea2646970667358221220785edac541636e172ac1247e7534d92608ad1e1e81df0ffa70fc8e52ac93a76e64736f6c63430008040033",
  "linkReferences": {},
  "deployedLinkReferences": {}
}