{
  "_format": "hh-sol-artifact-1",
  "contractName": "FireMen",
  "sourceName": "contracts/MyNFT.sol",
  "abi": [
    {
      "inputs": [
        {
          "internalType": "address",
          "name": "_marketAddress",
          "type": "address"
        }
      ],
      "stateMutability": "nonpayable",
      "type": "constructor"
    },
    {
      "anonymous": false,
      "inputs": [
        {
          "indexed": true,
          "internalType": "address",
          "name": "owner",
          "type": "address"
        },
        {
          "indexed": true,
          "internalType": "address",
          "name": "approved",
          "type": "address"
        },
        {
          "indexed": true,
          "internalType": "uint256",
          "name": "tokenId",
          "type": "uint256"
        }
      ],
      "name": "Approval",
      "type": "event"
    },
    {
      "anonymous": false,
      "inputs": [
        {
          "indexed": true,
          "internalType": "address",
          "name": "owner",
          "type": "address"
        },
        {
          "indexed": true,
          "internalType": "address",
          "name": "operator",
          "type": "address"
        },
        {
          "indexed": false,
          "internalType": "bool",
          "name": "approved",
          "type": "bool"
        }
      ],
      "name": "ApprovalForAll",
      "type": "event"
    },
    {
      "anonymous": false,
      "inputs": [
        {
          "indexed": true,
          "internalType": "address",
          "name": "previousOwner",
          "type": "address"
        },
        {
          "indexed": true,
          "internalType": "address",
          "name": "newOwner",
          "type": "address"
        }
      ],
      "name": "OwnershipTransferred",
      "type": "event"
    },
    {
      "anonymous": false,
      "inputs": [
        {
          "indexed": true,
          "internalType": "address",
          "name": "from",
          "type": "address"
        },
        {
          "indexed": true,
          "internalType": "address",
          "name": "to",
          "type": "address"
        },
        {
          "indexed": true,
          "internalType": "uint256",
          "name": "tokenId",
          "type": "uint256"
        }
      ],
      "name": "Transfer",
      "type": "event"
    },
    {
      "inputs": [
        {
          "internalType": "address",
          "name": "to",
          "type": "address"
        },
        {
          "internalType": "uint256",
          "name": "tokenId",
          "type": "uint256"
        }
      ],
      "name": "approve",
      "outputs": [],
      "stateMutability": "nonpayable",
      "type": "function"
    },
    {
      "inputs": [
        {
          "internalType": "uint256",
          "name": "tokenId",
          "type": "uint256"
        }
      ],
      "name": "approveMarket",
      "outputs": [],
      "stateMutability": "nonpayable",
      "type": "function"
    },
    {
      "inputs": [
        {
          "internalType": "address",
          "name": "owner",
          "type": "address"
        }
      ],
      "name": "balanceOf",
      "outputs": [
        {
          "internalType": "uint256",
          "name": "",
          "type": "uint256"
        }
      ],
      "stateMutability": "view",
      "type": "function"
    },
    {
      "inputs": [],
      "name": "cashOut",
      "outputs": [],
      "stateMutability": "payable",
      "type": "function"
    },
    {
      "inputs": [
        {
          "internalType": "uint256",
          "name": "tokenId",
          "type": "uint256"
        }
      ],
      "name": "checkApproval",
      "outputs": [
        {
          "internalType": "bool",
          "name": "",
          "type": "bool"
        }
      ],
      "stateMutability": "view",
      "type": "function"
    },
    {
      "inputs": [
        {
          "internalType": "uint256",
          "name": "tokenId",
          "type": "uint256"
        }
      ],
      "name": "getApproved",
      "outputs": [
        {
          "internalType": "address",
          "name": "",
          "type": "address"
        }
      ],
      "stateMutability": "view",
      "type": "function"
    },
    {
      "inputs": [],
      "name": "getContractBalance",
      "outputs": [
        {
          "internalType": "uint256",
          "name": "",
          "type": "uint256"
        }
      ],
      "stateMutability": "view",
      "type": "function"
    },
    {
      "inputs": [],
      "name": "getMyTokens",
      "outputs": [
        {
          "internalType": "string[]",
          "name": "",
          "type": "string[]"
        }
      ],
      "stateMutability": "view",
      "type": "function"
    },
    {
      "inputs": [
        {
          "internalType": "string",
          "name": "name",
          "type": "string"
        }
      ],
      "name": "getOwnerByName",
      "outputs": [
        {
          "internalType": "address",
          "name": "",
          "type": "address"
        }
      ],
      "stateMutability": "view",
      "type": "function"
    },
    {
      "inputs": [
        {
          "internalType": "string",
          "name": "name",
          "type": "string"
        }
      ],
      "name": "getTokenIdByName",
      "outputs": [
        {
          "internalType": "uint256",
          "name": "",
          "type": "uint256"
        }
      ],
      "stateMutability": "view",
      "type": "function"
    },
    {
      "inputs": [
        {
          "internalType": "address",
          "name": "owner",
          "type": "address"
        },
        {
          "internalType": "address",
          "name": "operator",
          "type": "address"
        }
      ],
      "name": "isApprovedForAll",
      "outputs": [
        {
          "internalType": "bool",
          "name": "",
          "type": "bool"
        }
      ],
      "stateMutability": "view",
      "type": "function"
    },
    {
      "inputs": [
        {
          "internalType": "string",
          "name": "uri",
          "type": "string"
        }
      ],
      "name": "isContentOwned",
      "outputs": [
        {
          "internalType": "bool",
          "name": "",
          "type": "bool"
        }
      ],
      "stateMutability": "view",
      "type": "function"
    },
    {
      "inputs": [],
      "name": "name",
      "outputs": [
        {
          "internalType": "string",
          "name": "",
          "type": "string"
        }
      ],
      "stateMutability": "view",
      "type": "function"
    },
    {
      "inputs": [],
      "name": "owner",
      "outputs": [
        {
          "internalType": "address",
          "name": "",
          "type": "address"
        }
      ],
      "stateMutability": "view",
      "type": "function"
    },
    {
      "inputs": [
        {
          "internalType": "uint256",
          "name": "tokenId",
          "type": "uint256"
        }
      ],
      "name": "ownerOf",
      "outputs": [
        {
          "internalType": "address",
          "name": "",
          "type": "address"
        }
      ],
      "stateMutability": "view",
      "type": "function"
    },
    {
      "inputs": [
        {
          "internalType": "string",
          "name": "metadataURI",
          "type": "string"
        },
        {
          "internalType": "string",
          "name": "tokenName",
          "type": "string"
        }
      ],
      "name": "payToMint",
      "outputs": [
        {
          "internalType": "uint256",
          "name": "",
          "type": "uint256"
        }
      ],
      "stateMutability": "payable",
      "type": "function"
    },
    {
      "inputs": [],
      "name": "renounceOwnership",
      "outputs": [],
      "stateMutability": "nonpayable",
      "type": "function"
    },
    {
      "inputs": [
        {
          "internalType": "uint256",
          "name": "tokenId",
          "type": "uint256"
        }
      ],
      "name": "revokeApproval",
      "outputs": [],
      "stateMutability": "nonpayable",
      "type": "function"
    },
    {
      "inputs": [
        {
          "internalType": "address",
          "name": "to",
          "type": "address"
        },
        {
          "internalType": "string",
          "name": "uri",
          "type": "string"
        }
      ],
      "name": "safeMint",
      "outputs": [],
      "stateMutability": "nonpayable",
      "type": "function"
    },
    {
      "inputs": [
        {
          "internalType": "address",
          "name": "from",
          "type": "address"
        },
        {
          "internalType": "address",
          "name": "to",
          "type": "address"
        },
        {
          "internalType": "uint256",
          "name": "tokenId",
          "type": "uint256"
        }
      ],
      "name": "safeTransferFrom",
      "outputs": [],
      "stateMutability": "nonpayable",
      "type": "function"
    },
    {
      "inputs": [
        {
          "internalType": "address",
          "name": "from",
          "type": "address"
        },
        {
          "internalType": "address",
          "name": "to",
          "type": "address"
        },
        {
          "internalType": "uint256",
          "name": "tokenId",
          "type": "uint256"
        },
        {
          "internalType": "bytes",
          "name": "_data",
          "type": "bytes"
        }
      ],
      "name": "safeTransferFrom",
      "outputs": [],
      "stateMutability": "nonpayable",
      "type": "function"
    },
    {
      "inputs": [
        {
          "internalType": "address",
          "name": "operator",
          "type": "address"
        },
        {
          "internalType": "bool",
          "name": "approved",
          "type": "bool"
        }
      ],
      "name": "setApprovalForAll",
      "outputs": [],
      "stateMutability": "nonpayable",
      "type": "function"
    },
    {
      "inputs": [
        {
          "internalType": "bytes4",
          "name": "interfaceId",
          "type": "bytes4"
        }
      ],
      "name": "supportsInterface",
      "outputs": [
        {
          "internalType": "bool",
          "name": "",
          "type": "bool"
        }
      ],
      "stateMutability": "view",
      "type": "function"
    },
    {
      "inputs": [],
      "name": "symbol",
      "outputs": [
        {
          "internalType": "string",
          "name": "",
          "type": "string"
        }
      ],
      "stateMutability": "view",
      "type": "function"
    },
    {
      "inputs": [],
      "name": "tokenCount",
      "outputs": [
        {
          "internalType": "uint256",
          "name": "",
          "type": "uint256"
        }
      ],
      "stateMutability": "view",
      "type": "function"
    },
    {
      "inputs": [
        {
          "internalType": "uint256",
          "name": "tokenId",
          "type": "uint256"
        }
      ],
      "name": "tokenURI",
      "outputs": [
        {
          "internalType": "string",
          "name": "",
          "type": "string"
        }
      ],
      "stateMutability": "view",
      "type": "function"
    },
    {
      "inputs": [
        {
          "internalType": "address",
          "name": "from",
          "type": "address"
        },
        {
          "internalType": "address",
          "name": "to",
          "type": "address"
        },
        {
          "internalType": "uint256",
          "name": "tokenId",
          "type": "uint256"
        }
      ],
      "name": "transferFrom",
      "outputs": [],
      "stateMutability": "nonpayable",
      "type": "function"
    },
    {
      "inputs": [
        {
          "internalType": "address",
          "name": "newOwner",
          "type": "address"
        }
      ],
      "name": "transferOwnership",
      "outputs": [],
      "stateMutability": "nonpayable",
      "type": "function"
    },
    {
      "inputs": [
        {
          "internalType": "address",
          "name": "to",
          "type": "address"
        },
        {
          "internalType": "uint256",
          "name": "tokenId",
          "type": "uint256"
        }
      ],
      "name": "transferToken",
      "outputs": [],
      "stateMutability": "nonpayable",
      "type": "function"
    }
  ],
  "bytecode": "0x60806040523480156200001157600080fd5b506040516200437a3803806200437a8339818101604052810190620000379190620002d4565b6040518060400160405280600781526020017f466972654d656e000000000000000000000000000000000000000000000000008152506040518060400160405280600481526020017f46495245000000000000000000000000000000000000000000000000000000008152508160009080519060200190620000bb9291906200020d565b508060019080519060200190620000d49291906200020d565b505050620000f7620000eb6200013f60201b60201c565b6200014760201b60201c565b80600b60006101000a81548173ffffffffffffffffffffffffffffffffffffffff021916908373ffffffffffffffffffffffffffffffffffffffff16021790555050620003b3565b600033905090565b6000600760009054906101000a900473ffffffffffffffffffffffffffffffffffffffff16905081600760006101000a81548173ffffffffffffffffffffffffffffffffffffffff021916908373ffffffffffffffffffffffffffffffffffffffff1602179055508173ffffffffffffffffffffffffffffffffffffffff168173ffffffffffffffffffffffffffffffffffffffff167f8be0079c531659141344cd1fd0a4f28419497f9722a3daafe3b4186f6b6457e060405160405180910390a35050565b8280546200021b9062000334565b90600052602060002090601f0160209004810192826200023f57600085556200028b565b82601f106200025a57805160ff19168380011785556200028b565b828001600101855582156200028b579182015b828111156200028a5782518255916020019190600101906200026d565b5b5090506200029a91906200029e565b5090565b5b80821115620002b95760008160009055506001016200029f565b5090565b600081519050620002ce8162000399565b92915050565b600060208284031215620002e757600080fd5b6000620002f784828501620002bd565b91505092915050565b60006200030d8262000314565b9050919050565b600073ffffffffffffffffffffffffffffffffffffffff82169050919050565b600060028204905060018216806200034d57607f821691505b602082108114156200036457620003636200036a565b5b50919050565b7f4e487b7100000000000000000000000000000000000000000000000000000000600052602260045260246000fd5b620003a48162000300565b8114620003b057600080fd5b50565b613fb780620003c36000396000f3fe6080604052600436106101c25760003560e01c80637d99c858116100f7578063b88d4fde11610095578063db7a298e11610064578063db7a298e14610636578063e985e9c514610673578063f2fde38b146106b0578063fea21ce5146106d9576101c2565b8063b88d4fde1461057e578063c87b56dd146105a7578063cabe2ae1146105e4578063d204c45e1461060d576101c2565b80639f181b5e116100d15780639f181b5e146104c45780639f1cabc6146104ef578063a22cb4651461052c578063b1e130fc14610555576101c2565b80637d99c8581461043e5780638da5cb5b1461046e57806395d89b4114610499576101c2565b80634695bfe6116101645780636f9fb98a1161013e5780636f9fb98a146103b557806370a08231146103e0578063715018a61461041d578063793cd71e14610434576101c2565b80634695bfe6146103105780635b3b136a1461034d5780636352211e14610378576101c2565b8063095ea7b3116101a0578063095ea7b31461026c5780631072cbea1461029557806323b872dd146102be57806342842e0e146102e7576101c2565b806301ffc9a7146101c757806306fdde0314610204578063081812fc1461022f575b600080fd5b3480156101d357600080fd5b506101ee60048036038101906101e99190612b6e565b610716565b6040516101fb91906131ee565b60405180910390f35b34801561021057600080fd5b506102196107f8565b6040516102269190613209565b60405180910390f35b34801561023b57600080fd5b5061025660048036038101906102519190612c6d565b61088a565b6040516102639190613165565b60405180910390f35b34801561027857600080fd5b50610293600480360381019061028e9190612b32565b61090f565b005b3480156102a157600080fd5b506102bc60048036038101906102b79190612b32565b610a27565b005b3480156102ca57600080fd5b506102e560048036038101906102e091906129d8565b610a36565b005b3480156102f357600080fd5b5061030e600480360381019061030991906129d8565b610a96565b005b34801561031c57600080fd5b5061033760048036038101906103329190612bc0565b610ab6565b6040516103449190613165565b60405180910390f35b34801561035957600080fd5b50610362610af1565b60405161036f91906131cc565b60405180910390f35b34801561038457600080fd5b5061039f600480360381019061039a9190612c6d565b610ca9565b6040516103ac9190613165565b60405180910390f35b3480156103c157600080fd5b506103ca610d5b565b6040516103d7919061351b565b60405180910390f35b3480156103ec57600080fd5b5061040760048036038101906104029190612973565b610d68565b604051610414919061351b565b60405180910390f35b34801561042957600080fd5b50610432610e20565b005b61043c610ea8565b005b61045860048036038101906104539190612c01565b610fc4565b604051610465919061351b565b60405180910390f35b34801561047a57600080fd5b50610483611113565b6040516104909190613165565b60405180910390f35b3480156104a557600080fd5b506104ae61113d565b6040516104bb9190613209565b60405180910390f35b3480156104d057600080fd5b506104d96111cf565b6040516104e6919061351b565b60405180910390f35b3480156104fb57600080fd5b5061051660048036038101906105119190612bc0565b6111e0565b60405161052391906131ee565b60405180910390f35b34801561053857600080fd5b50610553600480360381019061054e9190612aa2565b61121b565b005b34801561056157600080fd5b5061057c60048036038101906105779190612c6d565b611231565b005b34801561058a57600080fd5b506105a560048036038101906105a09190612a27565b6112b5565b005b3480156105b357600080fd5b506105ce60048036038101906105c99190612c6d565b611317565b6040516105db9190613209565b60405180910390f35b3480156105f057600080fd5b5061060b60048036038101906106069190612c6d565b611329565b005b34801561061957600080fd5b50610634600480360381019061062f9190612ade565b6113ce565b005b34801561064257600080fd5b5061065d60048036038101906106589190612bc0565b61147b565b60405161066a919061351b565b60405180910390f35b34801561067f57600080fd5b5061069a6004803603810190610695919061299c565b6114a3565b6040516106a791906131ee565b60405180910390f35b3480156106bc57600080fd5b506106d760048036038101906106d29190612973565b611537565b005b3480156106e557600080fd5b5061070060048036038101906106fb9190612c6d565b61162f565b60405161070d91906131ee565b60405180910390f35b60007f80ac58cd000000000000000000000000000000000000000000000000000000007bffffffffffffffffffffffffffffffffffffffffffffffffffffffff1916827bffffffffffffffffffffffffffffffffffffffffffffffffffffffff191614806107e157507f5b5e139f000000000000000000000000000000000000000000000000000000007bffffffffffffffffffffffffffffffffffffffffffffffffffffffff1916827bffffffffffffffffffffffffffffffffffffffffffffffffffffffff1916145b806107f157506107f0826116d5565b5b9050919050565b606060008054610807906137bb565b80601f0160208091040260200160405190810160405280929190818152602001828054610833906137bb565b80156108805780601f1061085557610100808354040283529160200191610880565b820191906000526020600020905b81548152906001019060200180831161086357829003601f168201915b5050505050905090565b60006108958261173f565b6108d4576040517f08c379a00000000000000000000000000000000000000000000000000000000081526004016108cb9061347b565b60405180910390fd5b6004600083815260200190815260200160002060009054906101000a900473ffffffffffffffffffffffffffffffffffffffff169050919050565b600061091a82610ca9565b90508073ffffffffffffffffffffffffffffffffffffffff168373ffffffffffffffffffffffffffffffffffffffff16141561098b576040517f08c379a0000000000000000000000000000000000000000000000000000000008152600401610982906134db565b60405180910390fd5b8073ffffffffffffffffffffffffffffffffffffffff166109aa6117ab565b73ffffffffffffffffffffffffffffffffffffffff1614806109d957506109d8816109d36117ab565b6114a3565b5b610a18576040517f08c379a0000000000000000000000000000000000000000000000000000000008152600401610a0f906133bb565b60405180910390fd5b610a2283836117b3565b505050565b610a32338383610a96565b5050565b610a47610a416117ab565b8261186c565b610a86576040517f08c379a0000000000000000000000000000000000000000000000000000000008152600401610a7d906134fb565b60405180910390fd5b610a9183838361194a565b505050565b610ab1838383604051806020016040528060008152506112b5565b505050565b600080600a83604051610ac9919061312a565b90815260200160405180910390205490506000610ae582610ca9565b90508092505050919050565b60606000610aff6008611bb1565b905060008060005b83811015610b6e573373ffffffffffffffffffffffffffffffffffffffff16610b2f82610ca9565b73ffffffffffffffffffffffffffffffffffffffff161415610b5b57600183610b58919061364a565b92505b8080610b669061381e565b915050610b07565b5060008267ffffffffffffffff811115610bb1577f4e487b7100000000000000000000000000000000000000000000000000000000600052604160045260246000fd5b604051908082528060200260200182016040528015610be457816020015b6060815260200190600190039081610bcf5790505b50905060005b84811015610c9e573373ffffffffffffffffffffffffffffffffffffffff16610c1282610ca9565b73ffffffffffffffffffffffffffffffffffffffff161415610c8b57610c3781611317565b828481518110610c70577f4e487b7100000000000000000000000000000000000000000000000000000000600052603260045260246000fd5b6020026020010181905250600183610c88919061364a565b92505b8080610c969061381e565b915050610bea565b508094505050505090565b6000806002600084815260200190815260200160002060009054906101000a900473ffffffffffffffffffffffffffffffffffffffff169050600073ffffffffffffffffffffffffffffffffffffffff168173ffffffffffffffffffffffffffffffffffffffff161415610d52576040517f08c379a0000000000000000000000000000000000000000000000000000000008152600401610d49906133fb565b60405180910390fd5b80915050919050565b6000804790508091505090565b60008073ffffffffffffffffffffffffffffffffffffffff168273ffffffffffffffffffffffffffffffffffffffff161415610dd9576040517f08c379a0000000000000000000000000000000000000000000000000000000008152600401610dd0906133db565b60405180910390fd5b600360008373ffffffffffffffffffffffffffffffffffffffff1673ffffffffffffffffffffffffffffffffffffffff168152602001908152602001600020549050919050565b610e286117ab565b73ffffffffffffffffffffffffffffffffffffffff16610e46611113565b73ffffffffffffffffffffffffffffffffffffffff1614610e9c576040517f08c379a0000000000000000000000000000000000000000000000000000000008152600401610e939061349b565b60405180910390fd5b610ea66000611bbf565b565b610eb06117ab565b73ffffffffffffffffffffffffffffffffffffffff16610ece611113565b73ffffffffffffffffffffffffffffffffffffffff1614610f24576040517f08c379a0000000000000000000000000000000000000000000000000000000008152600401610f1b9061349b565b60405180910390fd5b6000610f2e610d5b565b905060008111610f73576040517f08c379a0000000000000000000000000000000000000000000000000000000008152600401610f6a9061339b565b60405180910390fd5b610f7b611113565b73ffffffffffffffffffffffffffffffffffffffff166108fc829081150290604051600060405180830381858888f19350505050158015610fc0573d6000803e3d6000fd5b5050565b60006001600984604051610fd8919061312a565b908152602001604051809103902060009054906101000a900460ff1660ff161415611038576040517f08c379a000000000000000000000000000000000000000000000000000000000815260040161102f9061335b565b60405180910390fd5b66b1a2bc2ec50000341015611082576040517f08c379a0000000000000000000000000000000000000000000000000000000008152600401611079906132fb565b60405180910390fd5b600061108e6008611bb1565b905061109a6008611c85565b60016009856040516110ac919061312a565b908152602001604051809103902060006101000a81548160ff021916908360ff16021790555080600a846040516110e3919061312a565b9081526020016040518091039020819055506110ff3382611c9b565b6111098185611e75565b8091505092915050565b6000600760009054906101000a900473ffffffffffffffffffffffffffffffffffffffff16905090565b60606001805461114c906137bb565b80601f0160208091040260200160405190810160405280929190818152602001828054611178906137bb565b80156111c55780601f1061119a576101008083540402835291602001916111c5565b820191906000526020600020905b8154815290600101906020018083116111a857829003601f168201915b5050505050905090565b60006111db6008611bb1565b905090565b600060016009836040516111f4919061312a565b908152602001604051809103902060009054906101000a900460ff1660ff16149050919050565b61122d6112266117ab565b8383611ee9565b5050565b61123a81610ca9565b73ffffffffffffffffffffffffffffffffffffffff163373ffffffffffffffffffffffffffffffffffffffff16146112a7576040517f08c379a000000000000000000000000000000000000000000000000000000000815260040161129e906132db565b60405180910390fd5b6112b260008261090f565b50565b6112c66112c06117ab565b8361186c565b611305576040517f08c379a00000000000000000000000000000000000000000000000000000000081526004016112fc906134fb565b60405180910390fd5b61131184848484612056565b50505050565b6060611322826120b2565b9050919050565b61133281610ca9565b73ffffffffffffffffffffffffffffffffffffffff163373ffffffffffffffffffffffffffffffffffffffff161461139f576040517f08c379a0000000000000000000000000000000000000000000000000000000008152600401611396906132db565b60405180910390fd5b6113cb600b60009054906101000a900473ffffffffffffffffffffffffffffffffffffffff168261090f565b50565b6113d66117ab565b73ffffffffffffffffffffffffffffffffffffffff166113f4611113565b73ffffffffffffffffffffffffffffffffffffffff161461144a576040517f08c379a00000000000000000000000000000000000000000000000000000000081526004016114419061349b565b60405180910390fd5b60006114566008611bb1565b90506114626008611c85565b61146c8382612204565b6114768183611e75565b505050565b6000600a8260405161148d919061312a565b9081526020016040518091039020549050919050565b6000600560008473ffffffffffffffffffffffffffffffffffffffff1673ffffffffffffffffffffffffffffffffffffffff16815260200190815260200160002060008373ffffffffffffffffffffffffffffffffffffffff1673ffffffffffffffffffffffffffffffffffffffff16815260200190815260200160002060009054906101000a900460ff16905092915050565b61153f6117ab565b73ffffffffffffffffffffffffffffffffffffffff1661155d611113565b73ffffffffffffffffffffffffffffffffffffffff16146115b3576040517f08c379a00000000000000000000000000000000000000000000000000000000081526004016115aa9061349b565b60405180910390fd5b600073ffffffffffffffffffffffffffffffffffffffff168173ffffffffffffffffffffffffffffffffffffffff161415611623576040517f08c379a000000000000000000000000000000000000000000000000000000000815260040161161a9061327b565b60405180910390fd5b61162c81611bbf565b50565b60008061163b8361088a565b905061167c6040518060400160405280601281526020017f417070726f76656420616464726573733a20000000000000000000000000000081525082612222565b600b60009054906101000a900473ffffffffffffffffffffffffffffffffffffffff1673ffffffffffffffffffffffffffffffffffffffff168173ffffffffffffffffffffffffffffffffffffffff1614915050919050565b60007f01ffc9a7000000000000000000000000000000000000000000000000000000007bffffffffffffffffffffffffffffffffffffffffffffffffffffffff1916827bffffffffffffffffffffffffffffffffffffffffffffffffffffffff1916149050919050565b60008073ffffffffffffffffffffffffffffffffffffffff166002600084815260200190815260200160002060009054906101000a900473ffffffffffffffffffffffffffffffffffffffff1673ffffffffffffffffffffffffffffffffffffffff1614159050919050565b600033905090565b816004600083815260200190815260200160002060006101000a81548173ffffffffffffffffffffffffffffffffffffffff021916908373ffffffffffffffffffffffffffffffffffffffff160217905550808273ffffffffffffffffffffffffffffffffffffffff1661182683610ca9565b73ffffffffffffffffffffffffffffffffffffffff167f8c5be1e5ebec7d5bd14f71427d1e84f3dd0314c0f7b2291e5b200ac8c7c3b92560405160405180910390a45050565b60006118778261173f565b6118b6576040517f08c379a00000000000000000000000000000000000000000000000000000000081526004016118ad9061337b565b60405180910390fd5b60006118c183610ca9565b90508073ffffffffffffffffffffffffffffffffffffffff168473ffffffffffffffffffffffffffffffffffffffff16148061193057508373ffffffffffffffffffffffffffffffffffffffff166119188461088a565b73ffffffffffffffffffffffffffffffffffffffff16145b80611941575061194081856114a3565b5b91505092915050565b8273ffffffffffffffffffffffffffffffffffffffff1661196a82610ca9565b73ffffffffffffffffffffffffffffffffffffffff16146119c0576040517f08c379a00000000000000000000000000000000000000000000000000000000081526004016119b79061329b565b60405180910390fd5b600073ffffffffffffffffffffffffffffffffffffffff168273ffffffffffffffffffffffffffffffffffffffff161415611a30576040517f08c379a0000000000000000000000000000000000000000000000000000000008152600401611a279061331b565b60405180910390fd5b611a3b8383836122be565b611a466000826117b3565b6001600360008573ffffffffffffffffffffffffffffffffffffffff1673ffffffffffffffffffffffffffffffffffffffff1681526020019081526020016000206000828254611a9691906136d1565b925050819055506001600360008473ffffffffffffffffffffffffffffffffffffffff1673ffffffffffffffffffffffffffffffffffffffff1681526020019081526020016000206000828254611aed919061364a565b92505081905550816002600083815260200190815260200160002060006101000a81548173ffffffffffffffffffffffffffffffffffffffff021916908373ffffffffffffffffffffffffffffffffffffffff160217905550808273ffffffffffffffffffffffffffffffffffffffff168473ffffffffffffffffffffffffffffffffffffffff167fddf252ad1be2c89b69c2b068fc378daa952ba7f163c4a11628f55a4df523b3ef60405160405180910390a4611bac8383836122c3565b505050565b600081600001549050919050565b6000600760009054906101000a900473ffffffffffffffffffffffffffffffffffffffff16905081600760006101000a81548173ffffffffffffffffffffffffffffffffffffffff021916908373ffffffffffffffffffffffffffffffffffffffff1602179055508173ffffffffffffffffffffffffffffffffffffffff168173ffffffffffffffffffffffffffffffffffffffff167f8be0079c531659141344cd1fd0a4f28419497f9722a3daafe3b4186f6b6457e060405160405180910390a35050565b6001816000016000828254019250508190555050565b600073ffffffffffffffffffffffffffffffffffffffff168273ffffffffffffffffffffffffffffffffffffffff161415611d0b576040517f08c379a0000000000000000000000000000000000000000000000000000000008152600401611d029061343b565b60405180910390fd5b611d148161173f565b15611d54576040517f08c379a0000000000000000000000000000000000000000000000000000000008152600401611d4b906132bb565b60405180910390fd5b611d60600083836122be565b6001600360008473ffffffffffffffffffffffffffffffffffffffff1673ffffffffffffffffffffffffffffffffffffffff1681526020019081526020016000206000828254611db0919061364a565b92505081905550816002600083815260200190815260200160002060006101000a81548173ffffffffffffffffffffffffffffffffffffffff021916908373ffffffffffffffffffffffffffffffffffffffff160217905550808273ffffffffffffffffffffffffffffffffffffffff16600073ffffffffffffffffffffffffffffffffffffffff167fddf252ad1be2c89b69c2b068fc378daa952ba7f163c4a11628f55a4df523b3ef60405160405180910390a4611e71600083836122c3565b5050565b611e7e8261173f565b611ebd576040517f08c379a0000000000000000000000000000000000000000000000000000000008152600401611eb49061341b565b60405180910390fd5b80600660008481526020019081526020016000209080519060200190611ee4929190612797565b505050565b8173ffffffffffffffffffffffffffffffffffffffff168373ffffffffffffffffffffffffffffffffffffffff161415611f58576040517f08c379a0000000000000000000000000000000000000000000000000000000008152600401611f4f9061333b565b60405180910390fd5b80600560008573ffffffffffffffffffffffffffffffffffffffff1673ffffffffffffffffffffffffffffffffffffffff16815260200190815260200160002060008473ffffffffffffffffffffffffffffffffffffffff1673ffffffffffffffffffffffffffffffffffffffff16815260200190815260200160002060006101000a81548160ff0219169083151502179055508173ffffffffffffffffffffffffffffffffffffffff168373ffffffffffffffffffffffffffffffffffffffff167f17307eab39ab6107e8899845ad3d59bd9653f200f220920489ca2b5937696c318360405161204991906131ee565b60405180910390a3505050565b61206184848461194a565b61206d848484846122c8565b6120ac576040517f08c379a00000000000000000000000000000000000000000000000000000000081526004016120a39061325b565b60405180910390fd5b50505050565b60606120bd8261173f565b6120fc576040517f08c379a00000000000000000000000000000000000000000000000000000000081526004016120f39061345b565b60405180910390fd5b600060066000848152602001908152602001600020805461211c906137bb565b80601f0160208091040260200160405190810160405280929190818152602001828054612148906137bb565b80156121955780601f1061216a57610100808354040283529160200191612195565b820191906000526020600020905b81548152906001019060200180831161217857829003601f168201915b5050505050905060006121a661245f565b90506000815114156121bc5781925050506121ff565b6000825111156121f15780826040516020016121d9929190613141565b604051602081830303815290604052925050506121ff565b6121fa8461249c565b925050505b919050565b61221e828260405180602001604052806000815250612543565b5050565b6122ba828260405160240161223892919061322b565b6040516020818303038152906040527f319af333000000000000000000000000000000000000000000000000000000007bffffffffffffffffffffffffffffffffffffffffffffffffffffffff19166020820180517bffffffffffffffffffffffffffffffffffffffffffffffffffffffff838183161783525050505061259e565b5050565b505050565b505050565b60006122e98473ffffffffffffffffffffffffffffffffffffffff166125c7565b15612452578373ffffffffffffffffffffffffffffffffffffffff1663150b7a026123126117ab565b8786866040518563ffffffff1660e01b81526004016123349493929190613180565b602060405180830381600087803b15801561234e57600080fd5b505af192505050801561237f57506040513d601f19601f8201168201806040525081019061237c9190612b97565b60015b612402573d80600081146123af576040519150601f19603f3d011682016040523d82523d6000602084013e6123b4565b606091505b506000815114156123fa576040517f08c379a00000000000000000000000000000000000000000000000000000000081526004016123f19061325b565b60405180910390fd5b805181602001fd5b63150b7a0260e01b7bffffffffffffffffffffffffffffffffffffffffffffffffffffffff1916817bffffffffffffffffffffffffffffffffffffffffffffffffffffffff191614915050612457565b600190505b949350505050565b60606040518060400160405280600781526020017f697066733a2f2f00000000000000000000000000000000000000000000000000815250905090565b60606124a78261173f565b6124e6576040517f08c379a00000000000000000000000000000000000000000000000000000000081526004016124dd906134bb565b60405180910390fd5b60006124f061245f565b90506000815111612510576040518060200160405280600081525061253b565b8061251a846125ea565b60405160200161252b929190613141565b6040516020818303038152906040525b915050919050565b61254d8383611c9b565b61255a60008484846122c8565b612599576040517f08c379a00000000000000000000000000000000000000000000000000000000081526004016125909061325b565b60405180910390fd5b505050565b60008151905060006a636f6e736f6c652e6c6f679050602083016000808483855afa5050505050565b6000808273ffffffffffffffffffffffffffffffffffffffff163b119050919050565b60606000821415612632576040518060400160405280600181526020017f30000000000000000000000000000000000000000000000000000000000000008152509050612792565b600082905060005b6000821461266457808061264d9061381e565b915050600a8261265d91906136a0565b915061263a565b60008167ffffffffffffffff8111156126a6577f4e487b7100000000000000000000000000000000000000000000000000000000600052604160045260246000fd5b6040519080825280601f01601f1916602001820160405280156126d85781602001600182028036833780820191505090505b5090505b6000851461278b576001826126f191906136d1565b9150600a856127009190613867565b603061270c919061364a565b60f81b818381518110612748577f4e487b7100000000000000000000000000000000000000000000000000000000600052603260045260246000fd5b60200101907effffffffffffffffffffffffffffffffffffffffffffffffffffffffffffff1916908160001a905350600a8561278491906136a0565b94506126dc565b8093505050505b919050565b8280546127a3906137bb565b90600052602060002090601f0160209004810192826127c5576000855561280c565b82601f106127de57805160ff191683800117855561280c565b8280016001018555821561280c579182015b8281111561280b5782518255916020019190600101906127f0565b5b509050612819919061281d565b5090565b5b8082111561283657600081600090555060010161281e565b5090565b600061284d6128488461355b565b613536565b90508281526020810184848401111561286557600080fd5b612870848285613779565b509392505050565b600061288b6128868461358c565b613536565b9050828152602081018484840111156128a357600080fd5b6128ae848285613779565b509392505050565b6000813590506128c581613f25565b92915050565b6000813590506128da81613f3c565b92915050565b6000813590506128ef81613f53565b92915050565b60008151905061290481613f53565b92915050565b600082601f83011261291b57600080fd5b813561292b84826020860161283a565b91505092915050565b600082601f83011261294557600080fd5b8135612955848260208601612878565b91505092915050565b60008135905061296d81613f6a565b92915050565b60006020828403121561298557600080fd5b6000612993848285016128b6565b91505092915050565b600080604083850312156129af57600080fd5b60006129bd858286016128b6565b92505060206129ce858286016128b6565b9150509250929050565b6000806000606084860312156129ed57600080fd5b60006129fb868287016128b6565b9350506020612a0c868287016128b6565b9250506040612a1d8682870161295e565b9150509250925092565b60008060008060808587031215612a3d57600080fd5b6000612a4b878288016128b6565b9450506020612a5c878288016128b6565b9350506040612a6d8782880161295e565b925050606085013567ffffffffffffffff811115612a8a57600080fd5b612a968782880161290a565b91505092959194509250565b60008060408385031215612ab557600080fd5b6000612ac3858286016128b6565b9250506020612ad4858286016128cb565b9150509250929050565b60008060408385031215612af157600080fd5b6000612aff858286016128b6565b925050602083013567ffffffffffffffff811115612b1c57600080fd5b612b2885828601612934565b9150509250929050565b60008060408385031215612b4557600080fd5b6000612b53858286016128b6565b9250506020612b648582860161295e565b9150509250929050565b600060208284031215612b8057600080fd5b6000612b8e848285016128e0565b91505092915050565b600060208284031215612ba957600080fd5b6000612bb7848285016128f5565b91505092915050565b600060208284031215612bd257600080fd5b600082013567ffffffffffffffff811115612bec57600080fd5b612bf884828501612934565b91505092915050565b60008060408385031215612c1457600080fd5b600083013567ffffffffffffffff811115612c2e57600080fd5b612c3a85828601612934565b925050602083013567ffffffffffffffff811115612c5757600080fd5b612c6385828601612934565b9150509250929050565b600060208284031215612c7f57600080fd5b6000612c8d8482850161295e565b91505092915050565b6000612ca28383612d76565b905092915050565b612cb381613705565b82525050565b6000612cc4826135cd565b612cce81856135fb565b935083602082028501612ce0856135bd565b8060005b85811015612d1c5784840389528151612cfd8582612c96565b9450612d08836135ee565b925060208a01995050600181019050612ce4565b50829750879550505050505092915050565b612d3781613717565b82525050565b6000612d48826135d8565b612d52818561360c565b9350612d62818560208601613788565b612d6b81613954565b840191505092915050565b6000612d81826135e3565b612d8b818561361d565b9350612d9b818560208601613788565b612da481613954565b840191505092915050565b6000612dba826135e3565b612dc4818561362e565b9350612dd4818560208601613788565b612ddd81613954565b840191505092915050565b6000612df3826135e3565b612dfd818561363f565b9350612e0d818560208601613788565b80840191505092915050565b6000612e2660328361362e565b9150612e3182613965565b604082019050919050565b6000612e4960268361362e565b9150612e54826139b4565b604082019050919050565b6000612e6c60258361362e565b9150612e7782613a03565b604082019050919050565b6000612e8f601c8361362e565b9150612e9a82613a52565b602082019050919050565b6000612eb260268361362e565b9150612ebd82613a7b565b604082019050919050565b6000612ed560178361362e565b9150612ee082613aca565b602082019050919050565b6000612ef860248361362e565b9150612f0382613af3565b604082019050919050565b6000612f1b60198361362e565b9150612f2682613b42565b602082019050919050565b6000612f3e60158361362e565b9150612f4982613b6b565b602082019050919050565b6000612f61602c8361362e565b9150612f6c82613b94565b604082019050919050565b6000612f8460178361362e565b9150612f8f82613be3565b602082019050919050565b6000612fa760388361362e565b9150612fb282613c0c565b604082019050919050565b6000612fca602a8361362e565b9150612fd582613c5b565b604082019050919050565b6000612fed60298361362e565b9150612ff882613caa565b604082019050919050565b6000613010602e8361362e565b915061301b82613cf9565b604082019050919050565b600061303360208361362e565b915061303e82613d48565b602082019050919050565b600061305660318361362e565b915061306182613d71565b604082019050919050565b6000613079602c8361362e565b915061308482613dc0565b604082019050919050565b600061309c60208361362e565b91506130a782613e0f565b602082019050919050565b60006130bf602f8361362e565b91506130ca82613e38565b604082019050919050565b60006130e260218361362e565b91506130ed82613e87565b604082019050919050565b600061310560318361362e565b915061311082613ed6565b604082019050919050565b6131248161376f565b82525050565b60006131368284612de8565b915081905092915050565b600061314d8285612de8565b91506131598284612de8565b91508190509392505050565b600060208201905061317a6000830184612caa565b92915050565b60006080820190506131956000830187612caa565b6131a26020830186612caa565b6131af604083018561311b565b81810360608301526131c18184612d3d565b905095945050505050565b600060208201905081810360008301526131e68184612cb9565b905092915050565b60006020820190506132036000830184612d2e565b92915050565b600060208201905081810360008301526132238184612daf565b905092915050565b600060408201905081810360008301526132458185612daf565b90506132546020830184612caa565b9392505050565b6000602082019050818103600083015261327481612e19565b9050919050565b6000602082019050818103600083015261329481612e3c565b9050919050565b600060208201905081810360008301526132b481612e5f565b9050919050565b600060208201905081810360008301526132d481612e82565b9050919050565b600060208201905081810360008301526132f481612ea5565b9050919050565b6000602082019050818103600083015261331481612ec8565b9050919050565b6000602082019050818103600083015261333481612eeb565b9050919050565b6000602082019050818103600083015261335481612f0e565b9050919050565b6000602082019050818103600083015261337481612f31565b9050919050565b6000602082019050818103600083015261339481612f54565b9050919050565b600060208201905081810360008301526133b481612f77565b9050919050565b600060208201905081810360008301526133d481612f9a565b9050919050565b600060208201905081810360008301526133f481612fbd565b9050919050565b6000602082019050818103600083015261341481612fe0565b9050919050565b6000602082019050818103600083015261343481613003565b9050919050565b6000602082019050818103600083015261345481613026565b9050919050565b6000602082019050818103600083015261347481613049565b9050919050565b600060208201905081810360008301526134948161306c565b9050919050565b600060208201905081810360008301526134b48161308f565b9050919050565b600060208201905081810360008301526134d4816130b2565b9050919050565b600060208201905081810360008301526134f4816130d5565b9050919050565b60006020820190508181036000830152613514816130f8565b9050919050565b6000602082019050613530600083018461311b565b92915050565b6000613540613551565b905061354c82826137ed565b919050565b6000604051905090565b600067ffffffffffffffff82111561357657613575613925565b5b61357f82613954565b9050602081019050919050565b600067ffffffffffffffff8211156135a7576135a6613925565b5b6135b082613954565b9050602081019050919050565b6000819050602082019050919050565b600081519050919050565b600081519050919050565b600081519050919050565b6000602082019050919050565b600082825260208201905092915050565b600082825260208201905092915050565b600082825260208201905092915050565b600082825260208201905092915050565b600081905092915050565b60006136558261376f565b91506136608361376f565b9250827fffffffffffffffffffffffffffffffffffffffffffffffffffffffffffffffff0382111561369557613694613898565b5b828201905092915050565b60006136ab8261376f565b91506136b68361376f565b9250826136c6576136c56138c7565b5b828204905092915050565b60006136dc8261376f565b91506136e78361376f565b9250828210156136fa576136f9613898565b5b828203905092915050565b60006137108261374f565b9050919050565b60008115159050919050565b60007fffffffff0000000000000000000000000000000000000000000000000000000082169050919050565b600073ffffffffffffffffffffffffffffffffffffffff82169050919050565b6000819050919050565b82818337600083830152505050565b60005b838110156137a657808201518184015260208101905061378b565b838111156137b5576000848401525b50505050565b600060028204905060018216806137d357607f821691505b602082108114156137e7576137e66138f6565b5b50919050565b6137f682613954565b810181811067ffffffffffffffff8211171561381557613814613925565b5b80604052505050565b60006138298261376f565b91507fffffffffffffffffffffffffffffffffffffffffffffffffffffffffffffffff82141561385c5761385b613898565b5b600182019050919050565b60006138728261376f565b915061387d8361376f565b92508261388d5761388c6138c7565b5b828206905092915050565b7f4e487b7100000000000000000000000000000000000000000000000000000000600052601160045260246000fd5b7f4e487b7100000000000000000000000000000000000000000000000000000000600052601260045260246000fd5b7f4e487b7100000000000000000000000000000000000000000000000000000000600052602260045260246000fd5b7f4e487b7100000000000000000000000000000000000000000000000000000000600052604160045260246000fd5b6000601f19601f8301169050919050565b7f4552433732313a207472616e7366657220746f206e6f6e20455243373231526560008201527f63656976657220696d706c656d656e7465720000000000000000000000000000602082015250565b7f4f776e61626c653a206e6577206f776e657220697320746865207a65726f206160008201527f6464726573730000000000000000000000000000000000000000000000000000602082015250565b7f4552433732313a207472616e736665722066726f6d20696e636f72726563742060008201527f6f776e6572000000000000000000000000000000000000000000000000000000602082015250565b7f4552433732313a20746f6b656e20616c7265616479206d696e74656400000000600082015250565b7f4f6e6c7920746865204e46542773206f776e65722063616e20617070726f766560008201527f2074686973210000000000000000000000000000000000000000000000000000602082015250565b7f5061792075702c2062697463682120302e303520455448000000000000000000600082015250565b7f4552433732313a207472616e7366657220746f20746865207a65726f2061646460008201527f7265737300000000000000000000000000000000000000000000000000000000602082015250565b7f4552433732313a20617070726f766520746f2063616c6c657200000000000000600082015250565b7f4e465420616c7265616479206d696e746564203b280000000000000000000000600082015250565b7f4552433732313a206f70657261746f7220717565727920666f72206e6f6e657860008201527f697374656e7420746f6b656e0000000000000000000000000000000000000000602082015250565b7f4e6f20657468657220746f2063617368206f7574203b28000000000000000000600082015250565b7f4552433732313a20617070726f76652063616c6c6572206973206e6f74206f7760008201527f6e6572206e6f7220617070726f76656420666f7220616c6c0000000000000000602082015250565b7f4552433732313a2062616c616e636520717565727920666f7220746865207a6560008201527f726f206164647265737300000000000000000000000000000000000000000000602082015250565b7f4552433732313a206f776e657220717565727920666f72206e6f6e657869737460008201527f656e7420746f6b656e0000000000000000000000000000000000000000000000602082015250565b7f45524337323155524953746f726167653a2055524920736574206f66206e6f6e60008201527f6578697374656e7420746f6b656e000000000000000000000000000000000000602082015250565b7f4552433732313a206d696e7420746f20746865207a65726f2061646472657373600082015250565b7f45524337323155524953746f726167653a2055524920717565727920666f722060008201527f6e6f6e6578697374656e7420746f6b656e000000000000000000000000000000602082015250565b7f4552433732313a20617070726f76656420717565727920666f72206e6f6e657860008201527f697374656e7420746f6b656e0000000000000000000000000000000000000000602082015250565b7f4f776e61626c653a2063616c6c6572206973206e6f7420746865206f776e6572600082015250565b7f4552433732314d657461646174613a2055524920717565727920666f72206e6f60008201527f6e6578697374656e7420746f6b656e0000000000000000000000000000000000602082015250565b7f4552433732313a20617070726f76616c20746f2063757272656e74206f776e6560008201527f7200000000000000000000000000000000000000000000000000000000000000602082015250565b7f4552433732313a207472616e736665722063616c6c6572206973206e6f74206f60008201527f776e6572206e6f7220617070726f766564000000000000000000000000000000602082015250565b613f2e81613705565b8114613f3957600080fd5b50565b613f4581613717565b8114613f5057600080fd5b50565b613f5c81613723565b8114613f6757600080fd5b50565b613f738161376f565b8114613f7e57600080fd5b5056fea26469706673582212203db9570c652f4914465aac0224cd65fd591d57b03b358821a5b36bb57511a09a64736f6c63430008040033",
  "linkReferences": {},
  "deployedLinkReferences": {}
}