{
  "_format": "hh-sol-artifact-1",
  "contractName": "FireMen",
  "sourceName": "contracts/MyNFT.sol",
  "abi": [
    {
      "inputs": [],
      "stateMutability": "nonpayable",
      "type": "constructor"
    },
    {
      "anonymous": false,
      "inputs": [
        {
          "indexed": true,
          "internalType": "address",
          "name": "owner",
          "type": "address"
        },
        {
          "indexed": true,
          "internalType": "address",
          "name": "approved",
          "type": "address"
        },
        {
          "indexed": true,
          "internalType": "uint256",
          "name": "tokenId",
          "type": "uint256"
        }
      ],
      "name": "Approval",
      "type": "event"
    },
    {
      "anonymous": false,
      "inputs": [
        {
          "indexed": true,
          "internalType": "address",
          "name": "owner",
          "type": "address"
        },
        {
          "indexed": true,
          "internalType": "address",
          "name": "operator",
          "type": "address"
        },
        {
          "indexed": false,
          "internalType": "bool",
          "name": "approved",
          "type": "bool"
        }
      ],
      "name": "ApprovalForAll",
      "type": "event"
    },
    {
      "anonymous": false,
      "inputs": [
        {
          "indexed": true,
          "internalType": "address",
          "name": "previousOwner",
          "type": "address"
        },
        {
          "indexed": true,
          "internalType": "address",
          "name": "newOwner",
          "type": "address"
        }
      ],
      "name": "OwnershipTransferred",
      "type": "event"
    },
    {
      "anonymous": false,
      "inputs": [
        {
          "indexed": true,
          "internalType": "address",
          "name": "from",
          "type": "address"
        },
        {
          "indexed": true,
          "internalType": "address",
          "name": "to",
          "type": "address"
        },
        {
          "indexed": true,
          "internalType": "uint256",
          "name": "tokenId",
          "type": "uint256"
        }
      ],
      "name": "Transfer",
      "type": "event"
    },
    {
      "inputs": [
        {
          "internalType": "address",
          "name": "to",
          "type": "address"
        },
        {
          "internalType": "uint256",
          "name": "tokenId",
          "type": "uint256"
        }
      ],
      "name": "approve",
      "outputs": [],
      "stateMutability": "nonpayable",
      "type": "function"
    },
    {
      "inputs": [
        {
          "internalType": "address",
          "name": "owner",
          "type": "address"
        }
      ],
      "name": "balanceOf",
      "outputs": [
        {
          "internalType": "uint256",
          "name": "",
          "type": "uint256"
        }
      ],
      "stateMutability": "view",
      "type": "function"
    },
    {
      "inputs": [],
      "name": "cashOut",
      "outputs": [],
      "stateMutability": "payable",
      "type": "function"
    },
    {
      "inputs": [
        {
          "internalType": "uint256",
          "name": "tokenId",
          "type": "uint256"
        }
      ],
      "name": "getApproved",
      "outputs": [
        {
          "internalType": "address",
          "name": "",
          "type": "address"
        }
      ],
      "stateMutability": "view",
      "type": "function"
    },
    {
      "inputs": [],
      "name": "getContractBalance",
      "outputs": [
        {
          "internalType": "uint256",
          "name": "",
          "type": "uint256"
        }
      ],
      "stateMutability": "view",
      "type": "function"
    },
    {
      "inputs": [
        {
          "internalType": "string",
          "name": "name",
          "type": "string"
        }
      ],
      "name": "getOwnerByName",
      "outputs": [
        {
          "internalType": "address",
          "name": "",
          "type": "address"
        }
      ],
      "stateMutability": "view",
      "type": "function"
    },
    {
      "inputs": [
        {
          "internalType": "string",
          "name": "name",
          "type": "string"
        }
      ],
      "name": "getTokenIdByName",
      "outputs": [
        {
          "internalType": "uint256",
          "name": "",
          "type": "uint256"
        }
      ],
      "stateMutability": "view",
      "type": "function"
    },
    {
      "inputs": [
        {
          "internalType": "address",
          "name": "owner",
          "type": "address"
        },
        {
          "internalType": "address",
          "name": "operator",
          "type": "address"
        }
      ],
      "name": "isApprovedForAll",
      "outputs": [
        {
          "internalType": "bool",
          "name": "",
          "type": "bool"
        }
      ],
      "stateMutability": "view",
      "type": "function"
    },
    {
      "inputs": [
        {
          "internalType": "string",
          "name": "uri",
          "type": "string"
        }
      ],
      "name": "isContentOwned",
      "outputs": [
        {
          "internalType": "bool",
          "name": "",
          "type": "bool"
        }
      ],
      "stateMutability": "view",
      "type": "function"
    },
    {
      "inputs": [],
      "name": "name",
      "outputs": [
        {
          "internalType": "string",
          "name": "",
          "type": "string"
        }
      ],
      "stateMutability": "view",
      "type": "function"
    },
    {
      "inputs": [],
      "name": "owner",
      "outputs": [
        {
          "internalType": "address",
          "name": "",
          "type": "address"
        }
      ],
      "stateMutability": "view",
      "type": "function"
    },
    {
      "inputs": [
        {
          "internalType": "uint256",
          "name": "tokenId",
          "type": "uint256"
        }
      ],
      "name": "ownerOf",
      "outputs": [
        {
          "internalType": "address",
          "name": "",
          "type": "address"
        }
      ],
      "stateMutability": "view",
      "type": "function"
    },
    {
      "inputs": [
        {
          "internalType": "address",
          "name": "recipient",
          "type": "address"
        },
        {
          "internalType": "string",
          "name": "metadataURI",
          "type": "string"
        },
        {
          "internalType": "string",
          "name": "tokenName",
          "type": "string"
        }
      ],
      "name": "payToMint",
      "outputs": [
        {
          "internalType": "uint256",
          "name": "",
          "type": "uint256"
        }
      ],
      "stateMutability": "payable",
      "type": "function"
    },
    {
      "inputs": [],
      "name": "renounceOwnership",
      "outputs": [],
      "stateMutability": "nonpayable",
      "type": "function"
    },
    {
      "inputs": [
        {
          "internalType": "address",
          "name": "to",
          "type": "address"
        },
        {
          "internalType": "string",
          "name": "uri",
          "type": "string"
        }
      ],
      "name": "safeMint",
      "outputs": [],
      "stateMutability": "nonpayable",
      "type": "function"
    },
    {
      "inputs": [
        {
          "internalType": "address",
          "name": "from",
          "type": "address"
        },
        {
          "internalType": "address",
          "name": "to",
          "type": "address"
        },
        {
          "internalType": "uint256",
          "name": "tokenId",
          "type": "uint256"
        }
      ],
      "name": "safeTransferFrom",
      "outputs": [],
      "stateMutability": "nonpayable",
      "type": "function"
    },
    {
      "inputs": [
        {
          "internalType": "address",
          "name": "from",
          "type": "address"
        },
        {
          "internalType": "address",
          "name": "to",
          "type": "address"
        },
        {
          "internalType": "uint256",
          "name": "tokenId",
          "type": "uint256"
        },
        {
          "internalType": "bytes",
          "name": "_data",
          "type": "bytes"
        }
      ],
      "name": "safeTransferFrom",
      "outputs": [],
      "stateMutability": "nonpayable",
      "type": "function"
    },
    {
      "inputs": [
        {
          "internalType": "address",
          "name": "operator",
          "type": "address"
        },
        {
          "internalType": "bool",
          "name": "approved",
          "type": "bool"
        }
      ],
      "name": "setApprovalForAll",
      "outputs": [],
      "stateMutability": "nonpayable",
      "type": "function"
    },
    {
      "inputs": [
        {
          "internalType": "bytes4",
          "name": "interfaceId",
          "type": "bytes4"
        }
      ],
      "name": "supportsInterface",
      "outputs": [
        {
          "internalType": "bool",
          "name": "",
          "type": "bool"
        }
      ],
      "stateMutability": "view",
      "type": "function"
    },
    {
      "inputs": [],
      "name": "symbol",
      "outputs": [
        {
          "internalType": "string",
          "name": "",
          "type": "string"
        }
      ],
      "stateMutability": "view",
      "type": "function"
    },
    {
      "inputs": [],
      "name": "tokenCount",
      "outputs": [
        {
          "internalType": "uint256",
          "name": "",
          "type": "uint256"
        }
      ],
      "stateMutability": "view",
      "type": "function"
    },
    {
      "inputs": [
        {
          "internalType": "uint256",
          "name": "tokenId",
          "type": "uint256"
        }
      ],
      "name": "tokenURI",
      "outputs": [
        {
          "internalType": "string",
          "name": "",
          "type": "string"
        }
      ],
      "stateMutability": "view",
      "type": "function"
    },
    {
      "inputs": [
        {
          "internalType": "address",
          "name": "from",
          "type": "address"
        },
        {
          "internalType": "address",
          "name": "to",
          "type": "address"
        },
        {
          "internalType": "uint256",
          "name": "tokenId",
          "type": "uint256"
        }
      ],
      "name": "transferFrom",
      "outputs": [],
      "stateMutability": "nonpayable",
      "type": "function"
    },
    {
      "inputs": [
        {
          "internalType": "address",
          "name": "newOwner",
          "type": "address"
        }
      ],
      "name": "transferOwnership",
      "outputs": [],
      "stateMutability": "nonpayable",
      "type": "function"
    }
  ],
  "bytecode": "0x6080604052735527724ba84dab25559084903cdd03237a5fe143600b60006101000a81548173ffffffffffffffffffffffffffffffffffffffff021916908373ffffffffffffffffffffffffffffffffffffffff1602179055503480156200006657600080fd5b506040518060400160405280600781526020017f466972654d656e000000000000000000000000000000000000000000000000008152506040518060400160405280600481526020017f46495245000000000000000000000000000000000000000000000000000000008152508160009080519060200190620000eb929190620001fb565b50806001908051906020019062000104929190620001fb565b505050620001276200011b6200012d60201b60201c565b6200013560201b60201c565b62000310565b600033905090565b6000600760009054906101000a900473ffffffffffffffffffffffffffffffffffffffff16905081600760006101000a81548173ffffffffffffffffffffffffffffffffffffffff021916908373ffffffffffffffffffffffffffffffffffffffff1602179055508173ffffffffffffffffffffffffffffffffffffffff168173ffffffffffffffffffffffffffffffffffffffff167f8be0079c531659141344cd1fd0a4f28419497f9722a3daafe3b4186f6b6457e060405160405180910390a35050565b8280546200020990620002ab565b90600052602060002090601f0160209004810192826200022d576000855562000279565b82601f106200024857805160ff191683800117855562000279565b8280016001018555821562000279579182015b82811115620002785782518255916020019190600101906200025b565b5b5090506200028891906200028c565b5090565b5b80821115620002a75760008160009055506001016200028d565b5090565b60006002820490506001821680620002c457607f821691505b60208210811415620002db57620002da620002e1565b5b50919050565b7f4e487b7100000000000000000000000000000000000000000000000000000000600052602260045260246000fd5b6137c580620003206000396000f3fe60806040526004361061014b5760003560e01c8063793cd71e116100b6578063b88d4fde1161006f578063b88d4fde1461048a578063c87b56dd146104b3578063d204c45e146104f0578063db7a298e14610519578063e985e9c514610556578063f2fde38b146105935761014b565b8063793cd71e146103995780638da5cb5b146103a357806395d89b41146103ce5780639f181b5e146103f95780639f1cabc614610424578063a22cb465146104615761014b565b806342842e0e1161010857806342842e0e146102775780634695bfe6146102a05780636352211e146102dd5780636f9fb98a1461031a57806370a0823114610345578063715018a6146103825761014b565b806301ffc9a71461015057806306fdde031461018d578063081812fc146101b8578063095ea7b3146101f55780631defad9b1461021e57806323b872dd1461024e575b600080fd5b34801561015c57600080fd5b50610177600480360381019061017291906125d8565b6105bc565b6040516101849190612ae5565b60405180910390f35b34801561019957600080fd5b506101a261069e565b6040516101af9190612b00565b60405180910390f35b3480156101c457600080fd5b506101df60048036038101906101da919061266b565b610730565b6040516101ec9190612a7e565b60405180910390f35b34801561020157600080fd5b5061021c6004803603810190610217919061259c565b6107b5565b005b6102386004803603810190610233919061251d565b6108cd565b6040516102459190612dc2565b60405180910390f35b34801561025a57600080fd5b50610275600480360381019061027091906123c3565b610a1d565b005b34801561028357600080fd5b5061029e600480360381019061029991906123c3565b610a7d565b005b3480156102ac57600080fd5b506102c760048036038101906102c2919061262a565b610a9d565b6040516102d49190612a7e565b60405180910390f35b3480156102e957600080fd5b5061030460048036038101906102ff919061266b565b610ad8565b6040516103119190612a7e565b60405180910390f35b34801561032657600080fd5b5061032f610b8a565b60405161033c9190612dc2565b60405180910390f35b34801561035157600080fd5b5061036c6004803603810190610367919061235e565b610b97565b6040516103799190612dc2565b60405180910390f35b34801561038e57600080fd5b50610397610c4f565b005b6103a1610cd7565b005b3480156103af57600080fd5b506103b8610d92565b6040516103c59190612a7e565b60405180910390f35b3480156103da57600080fd5b506103e3610dbc565b6040516103f09190612b00565b60405180910390f35b34801561040557600080fd5b5061040e610e4e565b60405161041b9190612dc2565b60405180910390f35b34801561043057600080fd5b5061044b6004803603810190610446919061262a565b610e5f565b6040516104589190612ae5565b60405180910390f35b34801561046d57600080fd5b506104886004803603810190610483919061248d565b610e9a565b005b34801561049657600080fd5b506104b160048036038101906104ac9190612412565b610eb0565b005b3480156104bf57600080fd5b506104da60048036038101906104d5919061266b565b610f12565b6040516104e79190612b00565b60405180910390f35b3480156104fc57600080fd5b50610517600480360381019061051291906124c9565b610f24565b005b34801561052557600080fd5b50610540600480360381019061053b919061262a565b610fd1565b60405161054d9190612dc2565b60405180910390f35b34801561056257600080fd5b5061057d60048036038101906105789190612387565b610ff9565b60405161058a9190612ae5565b60405180910390f35b34801561059f57600080fd5b506105ba60048036038101906105b5919061235e565b61108d565b005b60007f80ac58cd000000000000000000000000000000000000000000000000000000007bffffffffffffffffffffffffffffffffffffffffffffffffffffffff1916827bffffffffffffffffffffffffffffffffffffffffffffffffffffffff1916148061068757507f5b5e139f000000000000000000000000000000000000000000000000000000007bffffffffffffffffffffffffffffffffffffffffffffffffffffffff1916827bffffffffffffffffffffffffffffffffffffffffffffffffffffffff1916145b80610697575061069682611185565b5b9050919050565b6060600080546106ad90613018565b80601f01602080910402602001604051908101604052809291908181526020018280546106d990613018565b80156107265780601f106106fb57610100808354040283529160200191610726565b820191906000526020600020905b81548152906001019060200180831161070957829003601f168201915b5050505050905090565b600061073b826111ef565b61077a576040517f08c379a000000000000000000000000000000000000000000000000000000000815260040161077190612d22565b60405180910390fd5b6004600083815260200190815260200160002060009054906101000a900473ffffffffffffffffffffffffffffffffffffffff169050919050565b60006107c082610ad8565b90508073ffffffffffffffffffffffffffffffffffffffff168373ffffffffffffffffffffffffffffffffffffffff161415610831576040517f08c379a000000000000000000000000000000000000000000000000000000000815260040161082890612d82565b60405180910390fd5b8073ffffffffffffffffffffffffffffffffffffffff1661085061125b565b73ffffffffffffffffffffffffffffffffffffffff16148061087f575061087e8161087961125b565b610ff9565b5b6108be576040517f08c379a00000000000000000000000000000000000000000000000000000000081526004016108b590612c62565b60405180910390fd5b6108c88383611263565b505050565b600060016009846040516108e19190612a43565b908152602001604051809103902060009054906101000a900460ff1660ff161415610941576040517f08c379a000000000000000000000000000000000000000000000000000000000815260040161093890612c02565b60405180910390fd5b66b1a2bc2ec5000034101561098b576040517f08c379a000000000000000000000000000000000000000000000000000000000815260040161098290612ba2565b60405180910390fd5b6000610997600861131c565b90506109a3600861132a565b60016009856040516109b59190612a43565b908152602001604051809103902060006101000a81548160ff021916908360ff16021790555080600a846040516109ec9190612a43565b908152602001604051809103902081905550610a088582611340565b610a12818561151a565b809150509392505050565b610a2e610a2861125b565b8261158e565b610a6d576040517f08c379a0000000000000000000000000000000000000000000000000000000008152600401610a6490612da2565b60405180910390fd5b610a7883838361166c565b505050565b610a9883838360405180602001604052806000815250610eb0565b505050565b600080600a83604051610ab09190612a43565b90815260200160405180910390205490506000610acc82610ad8565b90508092505050919050565b6000806002600084815260200190815260200160002060009054906101000a900473ffffffffffffffffffffffffffffffffffffffff169050600073ffffffffffffffffffffffffffffffffffffffff168173ffffffffffffffffffffffffffffffffffffffff161415610b81576040517f08c379a0000000000000000000000000000000000000000000000000000000008152600401610b7890612ca2565b60405180910390fd5b80915050919050565b6000804790508091505090565b60008073ffffffffffffffffffffffffffffffffffffffff168273ffffffffffffffffffffffffffffffffffffffff161415610c08576040517f08c379a0000000000000000000000000000000000000000000000000000000008152600401610bff90612c82565b60405180910390fd5b600360008373ffffffffffffffffffffffffffffffffffffffff1673ffffffffffffffffffffffffffffffffffffffff168152602001908152602001600020549050919050565b610c5761125b565b73ffffffffffffffffffffffffffffffffffffffff16610c75610d92565b73ffffffffffffffffffffffffffffffffffffffff1614610ccb576040517f08c379a0000000000000000000000000000000000000000000000000000000008152600401610cc290612d42565b60405180910390fd5b610cd560006118d3565b565b6000610ce1610b8a565b905060008111610d26576040517f08c379a0000000000000000000000000000000000000000000000000000000008152600401610d1d90612c42565b60405180910390fd5b600b60009054906101000a900473ffffffffffffffffffffffffffffffffffffffff1673ffffffffffffffffffffffffffffffffffffffff166108fc829081150290604051600060405180830381858888f19350505050158015610d8e573d6000803e3d6000fd5b5050565b6000600760009054906101000a900473ffffffffffffffffffffffffffffffffffffffff16905090565b606060018054610dcb90613018565b80601f0160208091040260200160405190810160405280929190818152602001828054610df790613018565b8015610e445780601f10610e1957610100808354040283529160200191610e44565b820191906000526020600020905b815481529060010190602001808311610e2757829003601f168201915b5050505050905090565b6000610e5a600861131c565b905090565b60006001600983604051610e739190612a43565b908152602001604051809103902060009054906101000a900460ff1660ff16149050919050565b610eac610ea561125b565b8383611999565b5050565b610ec1610ebb61125b565b8361158e565b610f00576040517f08c379a0000000000000000000000000000000000000000000000000000000008152600401610ef790612da2565b60405180910390fd5b610f0c84848484611b06565b50505050565b6060610f1d82611b62565b9050919050565b610f2c61125b565b73ffffffffffffffffffffffffffffffffffffffff16610f4a610d92565b73ffffffffffffffffffffffffffffffffffffffff1614610fa0576040517f08c379a0000000000000000000000000000000000000000000000000000000008152600401610f9790612d42565b60405180910390fd5b6000610fac600861131c565b9050610fb8600861132a565b610fc28382611cb4565b610fcc818361151a565b505050565b6000600a82604051610fe39190612a43565b9081526020016040518091039020549050919050565b6000600560008473ffffffffffffffffffffffffffffffffffffffff1673ffffffffffffffffffffffffffffffffffffffff16815260200190815260200160002060008373ffffffffffffffffffffffffffffffffffffffff1673ffffffffffffffffffffffffffffffffffffffff16815260200190815260200160002060009054906101000a900460ff16905092915050565b61109561125b565b73ffffffffffffffffffffffffffffffffffffffff166110b3610d92565b73ffffffffffffffffffffffffffffffffffffffff1614611109576040517f08c379a000000000000000000000000000000000000000000000000000000000815260040161110090612d42565b60405180910390fd5b600073ffffffffffffffffffffffffffffffffffffffff168173ffffffffffffffffffffffffffffffffffffffff161415611179576040517f08c379a000000000000000000000000000000000000000000000000000000000815260040161117090612b42565b60405180910390fd5b611182816118d3565b50565b60007f01ffc9a7000000000000000000000000000000000000000000000000000000007bffffffffffffffffffffffffffffffffffffffffffffffffffffffff1916827bffffffffffffffffffffffffffffffffffffffffffffffffffffffff1916149050919050565b60008073ffffffffffffffffffffffffffffffffffffffff166002600084815260200190815260200160002060009054906101000a900473ffffffffffffffffffffffffffffffffffffffff1673ffffffffffffffffffffffffffffffffffffffff1614159050919050565b600033905090565b816004600083815260200190815260200160002060006101000a81548173ffffffffffffffffffffffffffffffffffffffff021916908373ffffffffffffffffffffffffffffffffffffffff160217905550808273ffffffffffffffffffffffffffffffffffffffff166112d683610ad8565b73ffffffffffffffffffffffffffffffffffffffff167f8c5be1e5ebec7d5bd14f71427d1e84f3dd0314c0f7b2291e5b200ac8c7c3b92560405160405180910390a45050565b600081600001549050919050565b6001816000016000828254019250508190555050565b600073ffffffffffffffffffffffffffffffffffffffff168273ffffffffffffffffffffffffffffffffffffffff1614156113b0576040517f08c379a00000000000000000000000000000000000000000000000000000000081526004016113a790612ce2565b60405180910390fd5b6113b9816111ef565b156113f9576040517f08c379a00000000000000000000000000000000000000000000000000000000081526004016113f090612b82565b60405180910390fd5b61140560008383611cd2565b6001600360008473ffffffffffffffffffffffffffffffffffffffff1673ffffffffffffffffffffffffffffffffffffffff16815260200190815260200160002060008282546114559190612ea7565b92505081905550816002600083815260200190815260200160002060006101000a81548173ffffffffffffffffffffffffffffffffffffffff021916908373ffffffffffffffffffffffffffffffffffffffff160217905550808273ffffffffffffffffffffffffffffffffffffffff16600073ffffffffffffffffffffffffffffffffffffffff167fddf252ad1be2c89b69c2b068fc378daa952ba7f163c4a11628f55a4df523b3ef60405160405180910390a461151660008383611cd7565b5050565b611523826111ef565b611562576040517f08c379a000000000000000000000000000000000000000000000000000000000815260040161155990612cc2565b60405180910390fd5b80600660008481526020019081526020016000209080519060200190611589929190612182565b505050565b6000611599826111ef565b6115d8576040517f08c379a00000000000000000000000000000000000000000000000000000000081526004016115cf90612c22565b60405180910390fd5b60006115e383610ad8565b90508073ffffffffffffffffffffffffffffffffffffffff168473ffffffffffffffffffffffffffffffffffffffff16148061165257508373ffffffffffffffffffffffffffffffffffffffff1661163a84610730565b73ffffffffffffffffffffffffffffffffffffffff16145b8061166357506116628185610ff9565b5b91505092915050565b8273ffffffffffffffffffffffffffffffffffffffff1661168c82610ad8565b73ffffffffffffffffffffffffffffffffffffffff16146116e2576040517f08c379a00000000000000000000000000000000000000000000000000000000081526004016116d990612b62565b60405180910390fd5b600073ffffffffffffffffffffffffffffffffffffffff168273ffffffffffffffffffffffffffffffffffffffff161415611752576040517f08c379a000000000000000000000000000000000000000000000000000000000815260040161174990612bc2565b60405180910390fd5b61175d838383611cd2565b611768600082611263565b6001600360008573ffffffffffffffffffffffffffffffffffffffff1673ffffffffffffffffffffffffffffffffffffffff16815260200190815260200160002060008282546117b89190612f2e565b925050819055506001600360008473ffffffffffffffffffffffffffffffffffffffff1673ffffffffffffffffffffffffffffffffffffffff168152602001908152602001600020600082825461180f9190612ea7565b92505081905550816002600083815260200190815260200160002060006101000a81548173ffffffffffffffffffffffffffffffffffffffff021916908373ffffffffffffffffffffffffffffffffffffffff160217905550808273ffffffffffffffffffffffffffffffffffffffff168473ffffffffffffffffffffffffffffffffffffffff167fddf252ad1be2c89b69c2b068fc378daa952ba7f163c4a11628f55a4df523b3ef60405160405180910390a46118ce838383611cd7565b505050565b6000600760009054906101000a900473ffffffffffffffffffffffffffffffffffffffff16905081600760006101000a81548173ffffffffffffffffffffffffffffffffffffffff021916908373ffffffffffffffffffffffffffffffffffffffff1602179055508173ffffffffffffffffffffffffffffffffffffffff168173ffffffffffffffffffffffffffffffffffffffff167f8be0079c531659141344cd1fd0a4f28419497f9722a3daafe3b4186f6b6457e060405160405180910390a35050565b8173ffffffffffffffffffffffffffffffffffffffff168373ffffffffffffffffffffffffffffffffffffffff161415611a08576040517f08c379a00000000000000000000000000000000000000000000000000000000081526004016119ff90612be2565b60405180910390fd5b80600560008573ffffffffffffffffffffffffffffffffffffffff1673ffffffffffffffffffffffffffffffffffffffff16815260200190815260200160002060008473ffffffffffffffffffffffffffffffffffffffff1673ffffffffffffffffffffffffffffffffffffffff16815260200190815260200160002060006101000a81548160ff0219169083151502179055508173ffffffffffffffffffffffffffffffffffffffff168373ffffffffffffffffffffffffffffffffffffffff167f17307eab39ab6107e8899845ad3d59bd9653f200f220920489ca2b5937696c3183604051611af99190612ae5565b60405180910390a3505050565b611b1184848461166c565b611b1d84848484611cdc565b611b5c576040517f08c379a0000000000000000000000000000000000000000000000000000000008152600401611b5390612b22565b60405180910390fd5b50505050565b6060611b6d826111ef565b611bac576040517f08c379a0000000000000000000000000000000000000000000000000000000008152600401611ba390612d02565b60405180910390fd5b6000600660008481526020019081526020016000208054611bcc90613018565b80601f0160208091040260200160405190810160405280929190818152602001828054611bf890613018565b8015611c455780601f10611c1a57610100808354040283529160200191611c45565b820191906000526020600020905b815481529060010190602001808311611c2857829003601f168201915b505050505090506000611c56611e73565b9050600081511415611c6c578192505050611caf565b600082511115611ca1578082604051602001611c89929190612a5a565b60405160208183030381529060405292505050611caf565b611caa84611eb0565b925050505b919050565b611cce828260405180602001604052806000815250611f57565b5050565b505050565b505050565b6000611cfd8473ffffffffffffffffffffffffffffffffffffffff16611fb2565b15611e66578373ffffffffffffffffffffffffffffffffffffffff1663150b7a02611d2661125b565b8786866040518563ffffffff1660e01b8152600401611d489493929190612a99565b602060405180830381600087803b158015611d6257600080fd5b505af1925050508015611d9357506040513d601f19601f82011682018060405250810190611d909190612601565b60015b611e16573d8060008114611dc3576040519150601f19603f3d011682016040523d82523d6000602084013e611dc8565b606091505b50600081511415611e0e576040517f08c379a0000000000000000000000000000000000000000000000000000000008152600401611e0590612b22565b60405180910390fd5b805181602001fd5b63150b7a0260e01b7bffffffffffffffffffffffffffffffffffffffffffffffffffffffff1916817bffffffffffffffffffffffffffffffffffffffffffffffffffffffff191614915050611e6b565b600190505b949350505050565b60606040518060400160405280600781526020017f697066733a2f2f00000000000000000000000000000000000000000000000000815250905090565b6060611ebb826111ef565b611efa576040517f08c379a0000000000000000000000000000000000000000000000000000000008152600401611ef190612d62565b60405180910390fd5b6000611f04611e73565b90506000815111611f245760405180602001604052806000815250611f4f565b80611f2e84611fd5565b604051602001611f3f929190612a5a565b6040516020818303038152906040525b915050919050565b611f618383611340565b611f6e6000848484611cdc565b611fad576040517f08c379a0000000000000000000000000000000000000000000000000000000008152600401611fa490612b22565b60405180910390fd5b505050565b6000808273ffffffffffffffffffffffffffffffffffffffff163b119050919050565b6060600082141561201d576040518060400160405280600181526020017f3000000000000000000000000000000000000000000000000000000000000000815250905061217d565b600082905060005b6000821461204f5780806120389061307b565b915050600a826120489190612efd565b9150612025565b60008167ffffffffffffffff811115612091577f4e487b7100000000000000000000000000000000000000000000000000000000600052604160045260246000fd5b6040519080825280601f01601f1916602001820160405280156120c35781602001600182028036833780820191505090505b5090505b60008514612176576001826120dc9190612f2e565b9150600a856120eb91906130c4565b60306120f79190612ea7565b60f81b818381518110612133577f4e487b7100000000000000000000000000000000000000000000000000000000600052603260045260246000fd5b60200101907effffffffffffffffffffffffffffffffffffffffffffffffffffffffffffff1916908160001a905350600a8561216f9190612efd565b94506120c7565b8093505050505b919050565b82805461218e90613018565b90600052602060002090601f0160209004810192826121b057600085556121f7565b82601f106121c957805160ff19168380011785556121f7565b828001600101855582156121f7579182015b828111156121f65782518255916020019190600101906121db565b5b5090506122049190612208565b5090565b5b80821115612221576000816000905550600101612209565b5090565b600061223861223384612e02565b612ddd565b90508281526020810184848401111561225057600080fd5b61225b848285612fd6565b509392505050565b600061227661227184612e33565b612ddd565b90508281526020810184848401111561228e57600080fd5b612299848285612fd6565b509392505050565b6000813590506122b081613733565b92915050565b6000813590506122c58161374a565b92915050565b6000813590506122da81613761565b92915050565b6000815190506122ef81613761565b92915050565b600082601f83011261230657600080fd5b8135612316848260208601612225565b91505092915050565b600082601f83011261233057600080fd5b8135612340848260208601612263565b91505092915050565b60008135905061235881613778565b92915050565b60006020828403121561237057600080fd5b600061237e848285016122a1565b91505092915050565b6000806040838503121561239a57600080fd5b60006123a8858286016122a1565b92505060206123b9858286016122a1565b9150509250929050565b6000806000606084860312156123d857600080fd5b60006123e6868287016122a1565b93505060206123f7868287016122a1565b925050604061240886828701612349565b9150509250925092565b6000806000806080858703121561242857600080fd5b6000612436878288016122a1565b9450506020612447878288016122a1565b935050604061245887828801612349565b925050606085013567ffffffffffffffff81111561247557600080fd5b612481878288016122f5565b91505092959194509250565b600080604083850312156124a057600080fd5b60006124ae858286016122a1565b92505060206124bf858286016122b6565b9150509250929050565b600080604083850312156124dc57600080fd5b60006124ea858286016122a1565b925050602083013567ffffffffffffffff81111561250757600080fd5b6125138582860161231f565b9150509250929050565b60008060006060848603121561253257600080fd5b6000612540868287016122a1565b935050602084013567ffffffffffffffff81111561255d57600080fd5b6125698682870161231f565b925050604084013567ffffffffffffffff81111561258657600080fd5b6125928682870161231f565b9150509250925092565b600080604083850312156125af57600080fd5b60006125bd858286016122a1565b92505060206125ce85828601612349565b9150509250929050565b6000602082840312156125ea57600080fd5b60006125f8848285016122cb565b91505092915050565b60006020828403121561261357600080fd5b6000612621848285016122e0565b91505092915050565b60006020828403121561263c57600080fd5b600082013567ffffffffffffffff81111561265657600080fd5b6126628482850161231f565b91505092915050565b60006020828403121561267d57600080fd5b600061268b84828501612349565b91505092915050565b61269d81612f62565b82525050565b6126ac81612f74565b82525050565b60006126bd82612e64565b6126c78185612e7a565b93506126d7818560208601612fe5565b6126e0816131b1565b840191505092915050565b60006126f682612e6f565b6127008185612e8b565b9350612710818560208601612fe5565b612719816131b1565b840191505092915050565b600061272f82612e6f565b6127398185612e9c565b9350612749818560208601612fe5565b80840191505092915050565b6000612762603283612e8b565b915061276d826131c2565b604082019050919050565b6000612785602683612e8b565b915061279082613211565b604082019050919050565b60006127a8602583612e8b565b91506127b382613260565b604082019050919050565b60006127cb601c83612e8b565b91506127d6826132af565b602082019050919050565b60006127ee601783612e8b565b91506127f9826132d8565b602082019050919050565b6000612811602483612e8b565b915061281c82613301565b604082019050919050565b6000612834601983612e8b565b915061283f82613350565b602082019050919050565b6000612857601583612e8b565b915061286282613379565b602082019050919050565b600061287a602c83612e8b565b9150612885826133a2565b604082019050919050565b600061289d601783612e8b565b91506128a8826133f1565b602082019050919050565b60006128c0603883612e8b565b91506128cb8261341a565b604082019050919050565b60006128e3602a83612e8b565b91506128ee82613469565b604082019050919050565b6000612906602983612e8b565b9150612911826134b8565b604082019050919050565b6000612929602e83612e8b565b915061293482613507565b604082019050919050565b600061294c602083612e8b565b915061295782613556565b602082019050919050565b600061296f603183612e8b565b915061297a8261357f565b604082019050919050565b6000612992602c83612e8b565b915061299d826135ce565b604082019050919050565b60006129b5602083612e8b565b91506129c08261361d565b602082019050919050565b60006129d8602f83612e8b565b91506129e382613646565b604082019050919050565b60006129fb602183612e8b565b9150612a0682613695565b604082019050919050565b6000612a1e603183612e8b565b9150612a29826136e4565b604082019050919050565b612a3d81612fcc565b82525050565b6000612a4f8284612724565b915081905092915050565b6000612a668285612724565b9150612a728284612724565b91508190509392505050565b6000602082019050612a936000830184612694565b92915050565b6000608082019050612aae6000830187612694565b612abb6020830186612694565b612ac86040830185612a34565b8181036060830152612ada81846126b2565b905095945050505050565b6000602082019050612afa60008301846126a3565b92915050565b60006020820190508181036000830152612b1a81846126eb565b905092915050565b60006020820190508181036000830152612b3b81612755565b9050919050565b60006020820190508181036000830152612b5b81612778565b9050919050565b60006020820190508181036000830152612b7b8161279b565b9050919050565b60006020820190508181036000830152612b9b816127be565b9050919050565b60006020820190508181036000830152612bbb816127e1565b9050919050565b60006020820190508181036000830152612bdb81612804565b9050919050565b60006020820190508181036000830152612bfb81612827565b9050919050565b60006020820190508181036000830152612c1b8161284a565b9050919050565b60006020820190508181036000830152612c3b8161286d565b9050919050565b60006020820190508181036000830152612c5b81612890565b9050919050565b60006020820190508181036000830152612c7b816128b3565b9050919050565b60006020820190508181036000830152612c9b816128d6565b9050919050565b60006020820190508181036000830152612cbb816128f9565b9050919050565b60006020820190508181036000830152612cdb8161291c565b9050919050565b60006020820190508181036000830152612cfb8161293f565b9050919050565b60006020820190508181036000830152612d1b81612962565b9050919050565b60006020820190508181036000830152612d3b81612985565b9050919050565b60006020820190508181036000830152612d5b816129a8565b9050919050565b60006020820190508181036000830152612d7b816129cb565b9050919050565b60006020820190508181036000830152612d9b816129ee565b9050919050565b60006020820190508181036000830152612dbb81612a11565b9050919050565b6000602082019050612dd76000830184612a34565b92915050565b6000612de7612df8565b9050612df3828261304a565b919050565b6000604051905090565b600067ffffffffffffffff821115612e1d57612e1c613182565b5b612e26826131b1565b9050602081019050919050565b600067ffffffffffffffff821115612e4e57612e4d613182565b5b612e57826131b1565b9050602081019050919050565b600081519050919050565b600081519050919050565b600082825260208201905092915050565b600082825260208201905092915050565b600081905092915050565b6000612eb282612fcc565b9150612ebd83612fcc565b9250827fffffffffffffffffffffffffffffffffffffffffffffffffffffffffffffffff03821115612ef257612ef16130f5565b5b828201905092915050565b6000612f0882612fcc565b9150612f1383612fcc565b925082612f2357612f22613124565b5b828204905092915050565b6000612f3982612fcc565b9150612f4483612fcc565b925082821015612f5757612f566130f5565b5b828203905092915050565b6000612f6d82612fac565b9050919050565b60008115159050919050565b60007fffffffff0000000000000000000000000000000000000000000000000000000082169050919050565b600073ffffffffffffffffffffffffffffffffffffffff82169050919050565b6000819050919050565b82818337600083830152505050565b60005b83811015613003578082015181840152602081019050612fe8565b83811115613012576000848401525b50505050565b6000600282049050600182168061303057607f821691505b6020821081141561304457613043613153565b5b50919050565b613053826131b1565b810181811067ffffffffffffffff8211171561307257613071613182565b5b80604052505050565b600061308682612fcc565b91507fffffffffffffffffffffffffffffffffffffffffffffffffffffffffffffffff8214156130b9576130b86130f5565b5b600182019050919050565b60006130cf82612fcc565b91506130da83612fcc565b9250826130ea576130e9613124565b5b828206905092915050565b7f4e487b7100000000000000000000000000000000000000000000000000000000600052601160045260246000fd5b7f4e487b7100000000000000000000000000000000000000000000000000000000600052601260045260246000fd5b7f4e487b7100000000000000000000000000000000000000000000000000000000600052602260045260246000fd5b7f4e487b7100000000000000000000000000000000000000000000000000000000600052604160045260246000fd5b6000601f19601f8301169050919050565b7f4552433732313a207472616e7366657220746f206e6f6e20455243373231526560008201527f63656976657220696d706c656d656e7465720000000000000000000000000000602082015250565b7f4f776e61626c653a206e6577206f776e657220697320746865207a65726f206160008201527f6464726573730000000000000000000000000000000000000000000000000000602082015250565b7f4552433732313a207472616e736665722066726f6d20696e636f72726563742060008201527f6f776e6572000000000000000000000000000000000000000000000000000000602082015250565b7f4552433732313a20746f6b656e20616c7265616479206d696e74656400000000600082015250565b7f5061792075702c2062697463682120302e303520455448000000000000000000600082015250565b7f4552433732313a207472616e7366657220746f20746865207a65726f2061646460008201527f7265737300000000000000000000000000000000000000000000000000000000602082015250565b7f4552433732313a20617070726f766520746f2063616c6c657200000000000000600082015250565b7f4e465420616c7265616479206d696e746564203b280000000000000000000000600082015250565b7f4552433732313a206f70657261746f7220717565727920666f72206e6f6e657860008201527f697374656e7420746f6b656e0000000000000000000000000000000000000000602082015250565b7f4e6f20657468657220746f2063617368206f7574203b28000000000000000000600082015250565b7f4552433732313a20617070726f76652063616c6c6572206973206e6f74206f7760008201527f6e6572206e6f7220617070726f76656420666f7220616c6c0000000000000000602082015250565b7f4552433732313a2062616c616e636520717565727920666f7220746865207a6560008201527f726f206164647265737300000000000000000000000000000000000000000000602082015250565b7f4552433732313a206f776e657220717565727920666f72206e6f6e657869737460008201527f656e7420746f6b656e0000000000000000000000000000000000000000000000602082015250565b7f45524337323155524953746f726167653a2055524920736574206f66206e6f6e60008201527f6578697374656e7420746f6b656e000000000000000000000000000000000000602082015250565b7f4552433732313a206d696e7420746f20746865207a65726f2061646472657373600082015250565b7f45524337323155524953746f726167653a2055524920717565727920666f722060008201527f6e6f6e6578697374656e7420746f6b656e000000000000000000000000000000602082015250565b7f4552433732313a20617070726f76656420717565727920666f72206e6f6e657860008201527f697374656e7420746f6b656e0000000000000000000000000000000000000000602082015250565b7f4f776e61626c653a2063616c6c6572206973206e6f7420746865206f776e6572600082015250565b7f4552433732314d657461646174613a2055524920717565727920666f72206e6f60008201527f6e6578697374656e7420746f6b656e0000000000000000000000000000000000602082015250565b7f4552433732313a20617070726f76616c20746f2063757272656e74206f776e6560008201527f7200000000000000000000000000000000000000000000000000000000000000602082015250565b7f4552433732313a207472616e736665722063616c6c6572206973206e6f74206f60008201527f776e6572206e6f7220617070726f766564000000000000000000000000000000602082015250565b61373c81612f62565b811461374757600080fd5b50565b61375381612f74565b811461375e57600080fd5b50565b61376a81612f80565b811461377557600080fd5b50565b61378181612fcc565b811461378c57600080fd5b5056fea2646970667358221220fe9d6abd1ad3326f0f320b35881b195291946909f29c1b96faf888aa661f708864736f6c63430008040033",
  "linkReferences": {},
  "deployedLinkReferences": {}
}