{
  "_format": "hh-sol-artifact-1",
  "contractName": "FireMen",
  "sourceName": "contracts/MyNFT.sol",
  "abi": [
    {
      "inputs": [
        {
          "internalType": "address",
          "name": "_marketAddress",
          "type": "address"
        }
      ],
      "stateMutability": "nonpayable",
      "type": "constructor"
    },
    {
      "anonymous": false,
      "inputs": [
        {
          "indexed": true,
          "internalType": "address",
          "name": "owner",
          "type": "address"
        },
        {
          "indexed": true,
          "internalType": "address",
          "name": "approved",
          "type": "address"
        },
        {
          "indexed": true,
          "internalType": "uint256",
          "name": "tokenId",
          "type": "uint256"
        }
      ],
      "name": "Approval",
      "type": "event"
    },
    {
      "anonymous": false,
      "inputs": [
        {
          "indexed": true,
          "internalType": "address",
          "name": "owner",
          "type": "address"
        },
        {
          "indexed": true,
          "internalType": "address",
          "name": "operator",
          "type": "address"
        },
        {
          "indexed": false,
          "internalType": "bool",
          "name": "approved",
          "type": "bool"
        }
      ],
      "name": "ApprovalForAll",
      "type": "event"
    },
    {
      "anonymous": false,
      "inputs": [
        {
          "indexed": true,
          "internalType": "address",
          "name": "previousOwner",
          "type": "address"
        },
        {
          "indexed": true,
          "internalType": "address",
          "name": "newOwner",
          "type": "address"
        }
      ],
      "name": "OwnershipTransferred",
      "type": "event"
    },
    {
      "anonymous": false,
      "inputs": [
        {
          "indexed": true,
          "internalType": "address",
          "name": "from",
          "type": "address"
        },
        {
          "indexed": true,
          "internalType": "address",
          "name": "to",
          "type": "address"
        },
        {
          "indexed": true,
          "internalType": "uint256",
          "name": "tokenId",
          "type": "uint256"
        }
      ],
      "name": "Transfer",
      "type": "event"
    },
    {
      "inputs": [
        {
          "internalType": "address",
          "name": "to",
          "type": "address"
        },
        {
          "internalType": "uint256",
          "name": "tokenId",
          "type": "uint256"
        }
      ],
      "name": "approve",
      "outputs": [],
      "stateMutability": "nonpayable",
      "type": "function"
    },
    {
      "inputs": [
        {
          "internalType": "uint256",
          "name": "tokenId",
          "type": "uint256"
        }
      ],
      "name": "approveMarket",
      "outputs": [],
      "stateMutability": "nonpayable",
      "type": "function"
    },
    {
      "inputs": [
        {
          "internalType": "address",
          "name": "owner",
          "type": "address"
        }
      ],
      "name": "balanceOf",
      "outputs": [
        {
          "internalType": "uint256",
          "name": "",
          "type": "uint256"
        }
      ],
      "stateMutability": "view",
      "type": "function"
    },
    {
      "inputs": [],
      "name": "cashOut",
      "outputs": [],
      "stateMutability": "payable",
      "type": "function"
    },
    {
      "inputs": [
        {
          "internalType": "uint256",
          "name": "tokenId",
          "type": "uint256"
        }
      ],
      "name": "getApproved",
      "outputs": [
        {
          "internalType": "address",
          "name": "",
          "type": "address"
        }
      ],
      "stateMutability": "view",
      "type": "function"
    },
    {
      "inputs": [],
      "name": "getContractBalance",
      "outputs": [
        {
          "internalType": "uint256",
          "name": "",
          "type": "uint256"
        }
      ],
      "stateMutability": "view",
      "type": "function"
    },
    {
      "inputs": [],
      "name": "getMyTokens",
      "outputs": [
        {
          "internalType": "string[]",
          "name": "",
          "type": "string[]"
        }
      ],
      "stateMutability": "view",
      "type": "function"
    },
    {
      "inputs": [
        {
          "internalType": "string",
          "name": "name",
          "type": "string"
        }
      ],
      "name": "getOwnerByName",
      "outputs": [
        {
          "internalType": "address",
          "name": "",
          "type": "address"
        }
      ],
      "stateMutability": "view",
      "type": "function"
    },
    {
      "inputs": [
        {
          "internalType": "string",
          "name": "name",
          "type": "string"
        }
      ],
      "name": "getTokenIdByName",
      "outputs": [
        {
          "internalType": "uint256",
          "name": "",
          "type": "uint256"
        }
      ],
      "stateMutability": "view",
      "type": "function"
    },
    {
      "inputs": [
        {
          "internalType": "address",
          "name": "owner",
          "type": "address"
        },
        {
          "internalType": "address",
          "name": "operator",
          "type": "address"
        }
      ],
      "name": "isApprovedForAll",
      "outputs": [
        {
          "internalType": "bool",
          "name": "",
          "type": "bool"
        }
      ],
      "stateMutability": "view",
      "type": "function"
    },
    {
      "inputs": [
        {
          "internalType": "string",
          "name": "uri",
          "type": "string"
        }
      ],
      "name": "isContentOwned",
      "outputs": [
        {
          "internalType": "bool",
          "name": "",
          "type": "bool"
        }
      ],
      "stateMutability": "view",
      "type": "function"
    },
    {
      "inputs": [],
      "name": "name",
      "outputs": [
        {
          "internalType": "string",
          "name": "",
          "type": "string"
        }
      ],
      "stateMutability": "view",
      "type": "function"
    },
    {
      "inputs": [],
      "name": "owner",
      "outputs": [
        {
          "internalType": "address",
          "name": "",
          "type": "address"
        }
      ],
      "stateMutability": "view",
      "type": "function"
    },
    {
      "inputs": [
        {
          "internalType": "uint256",
          "name": "tokenId",
          "type": "uint256"
        }
      ],
      "name": "ownerOf",
      "outputs": [
        {
          "internalType": "address",
          "name": "",
          "type": "address"
        }
      ],
      "stateMutability": "view",
      "type": "function"
    },
    {
      "inputs": [
        {
          "internalType": "string",
          "name": "metadataURI",
          "type": "string"
        },
        {
          "internalType": "string",
          "name": "tokenName",
          "type": "string"
        }
      ],
      "name": "payToMint",
      "outputs": [
        {
          "internalType": "uint256",
          "name": "",
          "type": "uint256"
        }
      ],
      "stateMutability": "payable",
      "type": "function"
    },
    {
      "inputs": [],
      "name": "renounceOwnership",
      "outputs": [],
      "stateMutability": "nonpayable",
      "type": "function"
    },
    {
      "inputs": [
        {
          "internalType": "uint256",
          "name": "tokenId",
          "type": "uint256"
        }
      ],
      "name": "revokeApproval",
      "outputs": [],
      "stateMutability": "nonpayable",
      "type": "function"
    },
    {
      "inputs": [
        {
          "internalType": "address",
          "name": "to",
          "type": "address"
        },
        {
          "internalType": "string",
          "name": "uri",
          "type": "string"
        }
      ],
      "name": "safeMint",
      "outputs": [],
      "stateMutability": "nonpayable",
      "type": "function"
    },
    {
      "inputs": [
        {
          "internalType": "address",
          "name": "from",
          "type": "address"
        },
        {
          "internalType": "address",
          "name": "to",
          "type": "address"
        },
        {
          "internalType": "uint256",
          "name": "tokenId",
          "type": "uint256"
        }
      ],
      "name": "safeTransferFrom",
      "outputs": [],
      "stateMutability": "nonpayable",
      "type": "function"
    },
    {
      "inputs": [
        {
          "internalType": "address",
          "name": "from",
          "type": "address"
        },
        {
          "internalType": "address",
          "name": "to",
          "type": "address"
        },
        {
          "internalType": "uint256",
          "name": "tokenId",
          "type": "uint256"
        },
        {
          "internalType": "bytes",
          "name": "_data",
          "type": "bytes"
        }
      ],
      "name": "safeTransferFrom",
      "outputs": [],
      "stateMutability": "nonpayable",
      "type": "function"
    },
    {
      "inputs": [
        {
          "internalType": "address",
          "name": "operator",
          "type": "address"
        },
        {
          "internalType": "bool",
          "name": "approved",
          "type": "bool"
        }
      ],
      "name": "setApprovalForAll",
      "outputs": [],
      "stateMutability": "nonpayable",
      "type": "function"
    },
    {
      "inputs": [
        {
          "internalType": "bytes4",
          "name": "interfaceId",
          "type": "bytes4"
        }
      ],
      "name": "supportsInterface",
      "outputs": [
        {
          "internalType": "bool",
          "name": "",
          "type": "bool"
        }
      ],
      "stateMutability": "view",
      "type": "function"
    },
    {
      "inputs": [],
      "name": "symbol",
      "outputs": [
        {
          "internalType": "string",
          "name": "",
          "type": "string"
        }
      ],
      "stateMutability": "view",
      "type": "function"
    },
    {
      "inputs": [],
      "name": "tokenCount",
      "outputs": [
        {
          "internalType": "uint256",
          "name": "",
          "type": "uint256"
        }
      ],
      "stateMutability": "view",
      "type": "function"
    },
    {
      "inputs": [
        {
          "internalType": "uint256",
          "name": "tokenId",
          "type": "uint256"
        }
      ],
      "name": "tokenURI",
      "outputs": [
        {
          "internalType": "string",
          "name": "",
          "type": "string"
        }
      ],
      "stateMutability": "view",
      "type": "function"
    },
    {
      "inputs": [
        {
          "internalType": "address",
          "name": "from",
          "type": "address"
        },
        {
          "internalType": "address",
          "name": "to",
          "type": "address"
        },
        {
          "internalType": "uint256",
          "name": "tokenId",
          "type": "uint256"
        }
      ],
      "name": "transferFrom",
      "outputs": [],
      "stateMutability": "nonpayable",
      "type": "function"
    },
    {
      "inputs": [
        {
          "internalType": "address",
          "name": "newOwner",
          "type": "address"
        }
      ],
      "name": "transferOwnership",
      "outputs": [],
      "stateMutability": "nonpayable",
      "type": "function"
    },
    {
      "inputs": [
        {
          "internalType": "address",
          "name": "to",
          "type": "address"
        },
        {
          "internalType": "uint256",
          "name": "tokenId",
          "type": "uint256"
        }
      ],
      "name": "transferToken",
      "outputs": [],
      "stateMutability": "nonpayable",
      "type": "function"
    }
  ],
  "bytecode": "0x60806040523480156200001157600080fd5b5060405162004291380380620042918339818101604052810190620000379190620002d4565b6040518060400160405280600781526020017f466972654d656e000000000000000000000000000000000000000000000000008152506040518060400160405280600481526020017f46495245000000000000000000000000000000000000000000000000000000008152508160009080519060200190620000bb9291906200020d565b508060019080519060200190620000d49291906200020d565b505050620000f7620000eb6200013f60201b60201c565b6200014760201b60201c565b80600c60006101000a81548173ffffffffffffffffffffffffffffffffffffffff021916908373ffffffffffffffffffffffffffffffffffffffff16021790555050620003b3565b600033905090565b6000600760009054906101000a900473ffffffffffffffffffffffffffffffffffffffff16905081600760006101000a81548173ffffffffffffffffffffffffffffffffffffffff021916908373ffffffffffffffffffffffffffffffffffffffff1602179055508173ffffffffffffffffffffffffffffffffffffffff168173ffffffffffffffffffffffffffffffffffffffff167f8be0079c531659141344cd1fd0a4f28419497f9722a3daafe3b4186f6b6457e060405160405180910390a35050565b8280546200021b9062000334565b90600052602060002090601f0160209004810192826200023f57600085556200028b565b82601f106200025a57805160ff19168380011785556200028b565b828001600101855582156200028b579182015b828111156200028a5782518255916020019190600101906200026d565b5b5090506200029a91906200029e565b5090565b5b80821115620002b95760008160009055506001016200029f565b5090565b600081519050620002ce8162000399565b92915050565b600060208284031215620002e757600080fd5b6000620002f784828501620002bd565b91505092915050565b60006200030d8262000314565b9050919050565b600073ffffffffffffffffffffffffffffffffffffffff82169050919050565b600060028204905060018216806200034d57607f821691505b602082108114156200036457620003636200036a565b5b50919050565b7f4e487b7100000000000000000000000000000000000000000000000000000000600052602260045260246000fd5b620003a48162000300565b8114620003b057600080fd5b50565b613ece80620003c36000396000f3fe6080604052600436106101b75760003560e01c80637d99c858116100ec578063b88d4fde1161008a578063d204c45e11610064578063d204c45e14610602578063db7a298e1461062b578063e985e9c514610668578063f2fde38b146106a5576101b7565b8063b88d4fde14610573578063c87b56dd1461059c578063cabe2ae1146105d9576101b7565b80639f181b5e116100c65780639f181b5e146104b95780639f1cabc6146104e4578063a22cb46514610521578063b1e130fc1461054a576101b7565b80637d99c858146104335780638da5cb5b1461046357806395d89b411461048e576101b7565b80634695bfe6116101595780636f9fb98a116101335780636f9fb98a146103aa57806370a08231146103d5578063715018a614610412578063793cd71e14610429576101b7565b80634695bfe6146103055780635b3b136a146103425780636352211e1461036d576101b7565b8063095ea7b311610195578063095ea7b3146102615780631072cbea1461028a57806323b872dd146102b357806342842e0e146102dc576101b7565b806301ffc9a7146101bc57806306fdde03146101f9578063081812fc14610224575b600080fd5b3480156101c857600080fd5b506101e360048036038101906101de9190612ab5565b6106ce565b6040516101f09190613135565b60405180910390f35b34801561020557600080fd5b5061020e6107b0565b60405161021b9190613150565b60405180910390f35b34801561023057600080fd5b5061024b60048036038101906102469190612bb4565b610842565b60405161025891906130ac565b60405180910390f35b34801561026d57600080fd5b5061028860048036038101906102839190612a79565b6108c7565b005b34801561029657600080fd5b506102b160048036038101906102ac9190612a79565b6109df565b005b3480156102bf57600080fd5b506102da60048036038101906102d5919061291f565b610a40565b005b3480156102e857600080fd5b5061030360048036038101906102fe919061291f565b610aa0565b005b34801561031157600080fd5b5061032c60048036038101906103279190612b07565b610ac0565b60405161033991906130ac565b60405180910390f35b34801561034e57600080fd5b50610357610afb565b6040516103649190613113565b60405180910390f35b34801561037957600080fd5b50610394600480360381019061038f9190612bb4565b610d09565b6040516103a191906130ac565b60405180910390f35b3480156103b657600080fd5b506103bf610dbb565b6040516103cc9190613432565b60405180910390f35b3480156103e157600080fd5b506103fc60048036038101906103f791906128ba565b610dc8565b6040516104099190613432565b60405180910390f35b34801561041e57600080fd5b50610427610e80565b005b610431610f08565b005b61044d60048036038101906104489190612b48565b611024565b60405161045a9190613432565b60405180910390f35b34801561046f57600080fd5b506104786111c5565b60405161048591906130ac565b60405180910390f35b34801561049a57600080fd5b506104a36111ef565b6040516104b09190613150565b60405180910390f35b3480156104c557600080fd5b506104ce611281565b6040516104db9190613432565b60405180910390f35b3480156104f057600080fd5b5061050b60048036038101906105069190612b07565b611292565b6040516105189190613135565b60405180910390f35b34801561052d57600080fd5b50610548600480360381019061054391906129e9565b6112cd565b005b34801561055657600080fd5b50610571600480360381019061056c9190612bb4565b6112e3565b005b34801561057f57600080fd5b5061059a6004803603810190610595919061296e565b611367565b005b3480156105a857600080fd5b506105c360048036038101906105be9190612bb4565b6113c9565b6040516105d09190613150565b60405180910390f35b3480156105e557600080fd5b5061060060048036038101906105fb9190612bb4565b6113db565b005b34801561060e57600080fd5b5061062960048036038101906106249190612a25565b611480565b005b34801561063757600080fd5b50610652600480360381019061064d9190612b07565b61152d565b60405161065f9190613432565b60405180910390f35b34801561067457600080fd5b5061068f600480360381019061068a91906128e3565b611555565b60405161069c9190613135565b60405180910390f35b3480156106b157600080fd5b506106cc60048036038101906106c791906128ba565b6115e9565b005b60007f80ac58cd000000000000000000000000000000000000000000000000000000007bffffffffffffffffffffffffffffffffffffffffffffffffffffffff1916827bffffffffffffffffffffffffffffffffffffffffffffffffffffffff1916148061079957507f5b5e139f000000000000000000000000000000000000000000000000000000007bffffffffffffffffffffffffffffffffffffffffffffffffffffffff1916827bffffffffffffffffffffffffffffffffffffffffffffffffffffffff1916145b806107a957506107a8826116e1565b5b9050919050565b6060600080546107bf906136d2565b80601f01602080910402602001604051908101604052809291908181526020018280546107eb906136d2565b80156108385780601f1061080d57610100808354040283529160200191610838565b820191906000526020600020905b81548152906001019060200180831161081b57829003601f168201915b5050505050905090565b600061084d8261174b565b61088c576040517f08c379a000000000000000000000000000000000000000000000000000000000815260040161088390613392565b60405180910390fd5b6004600083815260200190815260200160002060009054906101000a900473ffffffffffffffffffffffffffffffffffffffff169050919050565b60006108d282610d09565b90508073ffffffffffffffffffffffffffffffffffffffff168373ffffffffffffffffffffffffffffffffffffffff161415610943576040517f08c379a000000000000000000000000000000000000000000000000000000000815260040161093a906133f2565b60405180910390fd5b8073ffffffffffffffffffffffffffffffffffffffff166109626117b7565b73ffffffffffffffffffffffffffffffffffffffff16148061099157506109908161098b6117b7565b611555565b5b6109d0576040517f08c379a00000000000000000000000000000000000000000000000000000000081526004016109c7906132d2565b60405180910390fd5b6109da83836117bf565b505050565b6109ea338383610aa0565b81600b600083815260200190815260200160002060006101000a81548173ffffffffffffffffffffffffffffffffffffffff021916908373ffffffffffffffffffffffffffffffffffffffff1602179055505050565b610a51610a4b6117b7565b82611878565b610a90576040517f08c379a0000000000000000000000000000000000000000000000000000000008152600401610a8790613412565b60405180910390fd5b610a9b838383611956565b505050565b610abb83838360405180602001604052806000815250611367565b505050565b600080600a83604051610ad39190613071565b90815260200160405180910390205490506000610aef82610d09565b90508092505050919050565b60606000610b096008611bbd565b905060008060005b83811015610ba3573373ffffffffffffffffffffffffffffffffffffffff16600b600083815260200190815260200160002060009054906101000a900473ffffffffffffffffffffffffffffffffffffffff1673ffffffffffffffffffffffffffffffffffffffff161415610b9057600183610b8d9190613561565b92505b8080610b9b90613735565b915050610b11565b5060008267ffffffffffffffff811115610be6577f4e487b7100000000000000000000000000000000000000000000000000000000600052604160045260246000fd5b604051908082528060200260200182016040528015610c1957816020015b6060815260200190600190039081610c045790505b50905060005b84811015610cfe573373ffffffffffffffffffffffffffffffffffffffff16600b600083815260200190815260200160002060009054906101000a900473ffffffffffffffffffffffffffffffffffffffff1673ffffffffffffffffffffffffffffffffffffffff161415610ceb57610c97816113c9565b828481518110610cd0577f4e487b7100000000000000000000000000000000000000000000000000000000600052603260045260246000fd5b6020026020010181905250600183610ce89190613561565b92505b8080610cf690613735565b915050610c1f565b508094505050505090565b6000806002600084815260200190815260200160002060009054906101000a900473ffffffffffffffffffffffffffffffffffffffff169050600073ffffffffffffffffffffffffffffffffffffffff168173ffffffffffffffffffffffffffffffffffffffff161415610db2576040517f08c379a0000000000000000000000000000000000000000000000000000000008152600401610da990613312565b60405180910390fd5b80915050919050565b6000804790508091505090565b60008073ffffffffffffffffffffffffffffffffffffffff168273ffffffffffffffffffffffffffffffffffffffff161415610e39576040517f08c379a0000000000000000000000000000000000000000000000000000000008152600401610e30906132f2565b60405180910390fd5b600360008373ffffffffffffffffffffffffffffffffffffffff1673ffffffffffffffffffffffffffffffffffffffff168152602001908152602001600020549050919050565b610e886117b7565b73ffffffffffffffffffffffffffffffffffffffff16610ea66111c5565b73ffffffffffffffffffffffffffffffffffffffff1614610efc576040517f08c379a0000000000000000000000000000000000000000000000000000000008152600401610ef3906133b2565b60405180910390fd5b610f066000611bcb565b565b610f106117b7565b73ffffffffffffffffffffffffffffffffffffffff16610f2e6111c5565b73ffffffffffffffffffffffffffffffffffffffff1614610f84576040517f08c379a0000000000000000000000000000000000000000000000000000000008152600401610f7b906133b2565b60405180910390fd5b6000610f8e610dbb565b905060008111610fd3576040517f08c379a0000000000000000000000000000000000000000000000000000000008152600401610fca906132b2565b60405180910390fd5b610fdb6111c5565b73ffffffffffffffffffffffffffffffffffffffff166108fc829081150290604051600060405180830381858888f19350505050158015611020573d6000803e3d6000fd5b5050565b600060016009846040516110389190613071565b908152602001604051809103902060009054906101000a900460ff1660ff161415611098576040517f08c379a000000000000000000000000000000000000000000000000000000000815260040161108f90613272565b60405180910390fd5b66b1a2bc2ec500003410156110e2576040517f08c379a00000000000000000000000000000000000000000000000000000000081526004016110d990613212565b60405180910390fd5b60006110ee6008611bbd565b90506110fa6008611c91565b600160098560405161110c9190613071565b908152602001604051809103902060006101000a81548160ff021916908360ff16021790555080600a846040516111439190613071565b90815260200160405180910390208190555061115f3382611ca7565b6111698185611e81565b33600b600083815260200190815260200160002060006101000a81548173ffffffffffffffffffffffffffffffffffffffff021916908373ffffffffffffffffffffffffffffffffffffffff1602179055508091505092915050565b6000600760009054906101000a900473ffffffffffffffffffffffffffffffffffffffff16905090565b6060600180546111fe906136d2565b80601f016020809104026020016040519081016040528092919081815260200182805461122a906136d2565b80156112775780601f1061124c57610100808354040283529160200191611277565b820191906000526020600020905b81548152906001019060200180831161125a57829003601f168201915b5050505050905090565b600061128d6008611bbd565b905090565b600060016009836040516112a69190613071565b908152602001604051809103902060009054906101000a900460ff1660ff16149050919050565b6112df6112d86117b7565b8383611ef5565b5050565b6112ec81610d09565b73ffffffffffffffffffffffffffffffffffffffff163373ffffffffffffffffffffffffffffffffffffffff1614611359576040517f08c379a0000000000000000000000000000000000000000000000000000000008152600401611350906131f2565b60405180910390fd5b6113646000826108c7565b50565b6113786113726117b7565b83611878565b6113b7576040517f08c379a00000000000000000000000000000000000000000000000000000000081526004016113ae90613412565b60405180910390fd5b6113c384848484612062565b50505050565b60606113d4826120be565b9050919050565b6113e481610d09565b73ffffffffffffffffffffffffffffffffffffffff163373ffffffffffffffffffffffffffffffffffffffff1614611451576040517f08c379a0000000000000000000000000000000000000000000000000000000008152600401611448906131f2565b60405180910390fd5b61147d600c60009054906101000a900473ffffffffffffffffffffffffffffffffffffffff16826108c7565b50565b6114886117b7565b73ffffffffffffffffffffffffffffffffffffffff166114a66111c5565b73ffffffffffffffffffffffffffffffffffffffff16146114fc576040517f08c379a00000000000000000000000000000000000000000000000000000000081526004016114f3906133b2565b60405180910390fd5b60006115086008611bbd565b90506115146008611c91565b61151e8382612210565b6115288183611e81565b505050565b6000600a8260405161153f9190613071565b9081526020016040518091039020549050919050565b6000600560008473ffffffffffffffffffffffffffffffffffffffff1673ffffffffffffffffffffffffffffffffffffffff16815260200190815260200160002060008373ffffffffffffffffffffffffffffffffffffffff1673ffffffffffffffffffffffffffffffffffffffff16815260200190815260200160002060009054906101000a900460ff16905092915050565b6115f16117b7565b73ffffffffffffffffffffffffffffffffffffffff1661160f6111c5565b73ffffffffffffffffffffffffffffffffffffffff1614611665576040517f08c379a000000000000000000000000000000000000000000000000000000000815260040161165c906133b2565b60405180910390fd5b600073ffffffffffffffffffffffffffffffffffffffff168173ffffffffffffffffffffffffffffffffffffffff1614156116d5576040517f08c379a00000000000000000000000000000000000000000000000000000000081526004016116cc90613192565b60405180910390fd5b6116de81611bcb565b50565b60007f01ffc9a7000000000000000000000000000000000000000000000000000000007bffffffffffffffffffffffffffffffffffffffffffffffffffffffff1916827bffffffffffffffffffffffffffffffffffffffffffffffffffffffff1916149050919050565b60008073ffffffffffffffffffffffffffffffffffffffff166002600084815260200190815260200160002060009054906101000a900473ffffffffffffffffffffffffffffffffffffffff1673ffffffffffffffffffffffffffffffffffffffff1614159050919050565b600033905090565b816004600083815260200190815260200160002060006101000a81548173ffffffffffffffffffffffffffffffffffffffff021916908373ffffffffffffffffffffffffffffffffffffffff160217905550808273ffffffffffffffffffffffffffffffffffffffff1661183283610d09565b73ffffffffffffffffffffffffffffffffffffffff167f8c5be1e5ebec7d5bd14f71427d1e84f3dd0314c0f7b2291e5b200ac8c7c3b92560405160405180910390a45050565b60006118838261174b565b6118c2576040517f08c379a00000000000000000000000000000000000000000000000000000000081526004016118b990613292565b60405180910390fd5b60006118cd83610d09565b90508073ffffffffffffffffffffffffffffffffffffffff168473ffffffffffffffffffffffffffffffffffffffff16148061193c57508373ffffffffffffffffffffffffffffffffffffffff1661192484610842565b73ffffffffffffffffffffffffffffffffffffffff16145b8061194d575061194c8185611555565b5b91505092915050565b8273ffffffffffffffffffffffffffffffffffffffff1661197682610d09565b73ffffffffffffffffffffffffffffffffffffffff16146119cc576040517f08c379a00000000000000000000000000000000000000000000000000000000081526004016119c3906131b2565b60405180910390fd5b600073ffffffffffffffffffffffffffffffffffffffff168273ffffffffffffffffffffffffffffffffffffffff161415611a3c576040517f08c379a0000000000000000000000000000000000000000000000000000000008152600401611a3390613232565b60405180910390fd5b611a4783838361222e565b611a526000826117bf565b6001600360008573ffffffffffffffffffffffffffffffffffffffff1673ffffffffffffffffffffffffffffffffffffffff1681526020019081526020016000206000828254611aa291906135e8565b925050819055506001600360008473ffffffffffffffffffffffffffffffffffffffff1673ffffffffffffffffffffffffffffffffffffffff1681526020019081526020016000206000828254611af99190613561565b92505081905550816002600083815260200190815260200160002060006101000a81548173ffffffffffffffffffffffffffffffffffffffff021916908373ffffffffffffffffffffffffffffffffffffffff160217905550808273ffffffffffffffffffffffffffffffffffffffff168473ffffffffffffffffffffffffffffffffffffffff167fddf252ad1be2c89b69c2b068fc378daa952ba7f163c4a11628f55a4df523b3ef60405160405180910390a4611bb8838383612233565b505050565b600081600001549050919050565b6000600760009054906101000a900473ffffffffffffffffffffffffffffffffffffffff16905081600760006101000a81548173ffffffffffffffffffffffffffffffffffffffff021916908373ffffffffffffffffffffffffffffffffffffffff1602179055508173ffffffffffffffffffffffffffffffffffffffff168173ffffffffffffffffffffffffffffffffffffffff167f8be0079c531659141344cd1fd0a4f28419497f9722a3daafe3b4186f6b6457e060405160405180910390a35050565b6001816000016000828254019250508190555050565b600073ffffffffffffffffffffffffffffffffffffffff168273ffffffffffffffffffffffffffffffffffffffff161415611d17576040517f08c379a0000000000000000000000000000000000000000000000000000000008152600401611d0e90613352565b60405180910390fd5b611d208161174b565b15611d60576040517f08c379a0000000000000000000000000000000000000000000000000000000008152600401611d57906131d2565b60405180910390fd5b611d6c6000838361222e565b6001600360008473ffffffffffffffffffffffffffffffffffffffff1673ffffffffffffffffffffffffffffffffffffffff1681526020019081526020016000206000828254611dbc9190613561565b92505081905550816002600083815260200190815260200160002060006101000a81548173ffffffffffffffffffffffffffffffffffffffff021916908373ffffffffffffffffffffffffffffffffffffffff160217905550808273ffffffffffffffffffffffffffffffffffffffff16600073ffffffffffffffffffffffffffffffffffffffff167fddf252ad1be2c89b69c2b068fc378daa952ba7f163c4a11628f55a4df523b3ef60405160405180910390a4611e7d60008383612233565b5050565b611e8a8261174b565b611ec9576040517f08c379a0000000000000000000000000000000000000000000000000000000008152600401611ec090613332565b60405180910390fd5b80600660008481526020019081526020016000209080519060200190611ef09291906126de565b505050565b8173ffffffffffffffffffffffffffffffffffffffff168373ffffffffffffffffffffffffffffffffffffffff161415611f64576040517f08c379a0000000000000000000000000000000000000000000000000000000008152600401611f5b90613252565b60405180910390fd5b80600560008573ffffffffffffffffffffffffffffffffffffffff1673ffffffffffffffffffffffffffffffffffffffff16815260200190815260200160002060008473ffffffffffffffffffffffffffffffffffffffff1673ffffffffffffffffffffffffffffffffffffffff16815260200190815260200160002060006101000a81548160ff0219169083151502179055508173ffffffffffffffffffffffffffffffffffffffff168373ffffffffffffffffffffffffffffffffffffffff167f17307eab39ab6107e8899845ad3d59bd9653f200f220920489ca2b5937696c31836040516120559190613135565b60405180910390a3505050565b61206d848484611956565b61207984848484612238565b6120b8576040517f08c379a00000000000000000000000000000000000000000000000000000000081526004016120af90613172565b60405180910390fd5b50505050565b60606120c98261174b565b612108576040517f08c379a00000000000000000000000000000000000000000000000000000000081526004016120ff90613372565b60405180910390fd5b6000600660008481526020019081526020016000208054612128906136d2565b80601f0160208091040260200160405190810160405280929190818152602001828054612154906136d2565b80156121a15780601f10612176576101008083540402835291602001916121a1565b820191906000526020600020905b81548152906001019060200180831161218457829003601f168201915b5050505050905060006121b26123cf565b90506000815114156121c857819250505061220b565b6000825111156121fd5780826040516020016121e5929190613088565b6040516020818303038152906040529250505061220b565b6122068461240c565b925050505b919050565b61222a8282604051806020016040528060008152506124b3565b5050565b505050565b505050565b60006122598473ffffffffffffffffffffffffffffffffffffffff1661250e565b156123c2578373ffffffffffffffffffffffffffffffffffffffff1663150b7a026122826117b7565b8786866040518563ffffffff1660e01b81526004016122a494939291906130c7565b602060405180830381600087803b1580156122be57600080fd5b505af19250505080156122ef57506040513d601f19601f820116820180604052508101906122ec9190612ade565b60015b612372573d806000811461231f576040519150601f19603f3d011682016040523d82523d6000602084013e612324565b606091505b5060008151141561236a576040517f08c379a000000000000000000000000000000000000000000000000000000000815260040161236190613172565b60405180910390fd5b805181602001fd5b63150b7a0260e01b7bffffffffffffffffffffffffffffffffffffffffffffffffffffffff1916817bffffffffffffffffffffffffffffffffffffffffffffffffffffffff1916149150506123c7565b600190505b949350505050565b60606040518060400160405280600781526020017f697066733a2f2f00000000000000000000000000000000000000000000000000815250905090565b60606124178261174b565b612456576040517f08c379a000000000000000000000000000000000000000000000000000000000815260040161244d906133d2565b60405180910390fd5b60006124606123cf565b9050600081511161248057604051806020016040528060008152506124ab565b8061248a84612531565b60405160200161249b929190613088565b6040516020818303038152906040525b915050919050565b6124bd8383611ca7565b6124ca6000848484612238565b612509576040517f08c379a000000000000000000000000000000000000000000000000000000000815260040161250090613172565b60405180910390fd5b505050565b6000808273ffffffffffffffffffffffffffffffffffffffff163b119050919050565b60606000821415612579576040518060400160405280600181526020017f300000000000000000000000000000000000000000000000000000000000000081525090506126d9565b600082905060005b600082146125ab57808061259490613735565b915050600a826125a491906135b7565b9150612581565b60008167ffffffffffffffff8111156125ed577f4e487b7100000000000000000000000000000000000000000000000000000000600052604160045260246000fd5b6040519080825280601f01601f19166020018201604052801561261f5781602001600182028036833780820191505090505b5090505b600085146126d25760018261263891906135e8565b9150600a85612647919061377e565b60306126539190613561565b60f81b81838151811061268f577f4e487b7100000000000000000000000000000000000000000000000000000000600052603260045260246000fd5b60200101907effffffffffffffffffffffffffffffffffffffffffffffffffffffffffffff1916908160001a905350600a856126cb91906135b7565b9450612623565b8093505050505b919050565b8280546126ea906136d2565b90600052602060002090601f01602090048101928261270c5760008555612753565b82601f1061272557805160ff1916838001178555612753565b82800160010185558215612753579182015b82811115612752578251825591602001919060010190612737565b5b5090506127609190612764565b5090565b5b8082111561277d576000816000905550600101612765565b5090565b600061279461278f84613472565b61344d565b9050828152602081018484840111156127ac57600080fd5b6127b7848285613690565b509392505050565b60006127d26127cd846134a3565b61344d565b9050828152602081018484840111156127ea57600080fd5b6127f5848285613690565b509392505050565b60008135905061280c81613e3c565b92915050565b60008135905061282181613e53565b92915050565b60008135905061283681613e6a565b92915050565b60008151905061284b81613e6a565b92915050565b600082601f83011261286257600080fd5b8135612872848260208601612781565b91505092915050565b600082601f83011261288c57600080fd5b813561289c8482602086016127bf565b91505092915050565b6000813590506128b481613e81565b92915050565b6000602082840312156128cc57600080fd5b60006128da848285016127fd565b91505092915050565b600080604083850312156128f657600080fd5b6000612904858286016127fd565b9250506020612915858286016127fd565b9150509250929050565b60008060006060848603121561293457600080fd5b6000612942868287016127fd565b9350506020612953868287016127fd565b9250506040612964868287016128a5565b9150509250925092565b6000806000806080858703121561298457600080fd5b6000612992878288016127fd565b94505060206129a3878288016127fd565b93505060406129b4878288016128a5565b925050606085013567ffffffffffffffff8111156129d157600080fd5b6129dd87828801612851565b91505092959194509250565b600080604083850312156129fc57600080fd5b6000612a0a858286016127fd565b9250506020612a1b85828601612812565b9150509250929050565b60008060408385031215612a3857600080fd5b6000612a46858286016127fd565b925050602083013567ffffffffffffffff811115612a6357600080fd5b612a6f8582860161287b565b9150509250929050565b60008060408385031215612a8c57600080fd5b6000612a9a858286016127fd565b9250506020612aab858286016128a5565b9150509250929050565b600060208284031215612ac757600080fd5b6000612ad584828501612827565b91505092915050565b600060208284031215612af057600080fd5b6000612afe8482850161283c565b91505092915050565b600060208284031215612b1957600080fd5b600082013567ffffffffffffffff811115612b3357600080fd5b612b3f8482850161287b565b91505092915050565b60008060408385031215612b5b57600080fd5b600083013567ffffffffffffffff811115612b7557600080fd5b612b818582860161287b565b925050602083013567ffffffffffffffff811115612b9e57600080fd5b612baa8582860161287b565b9150509250929050565b600060208284031215612bc657600080fd5b6000612bd4848285016128a5565b91505092915050565b6000612be98383612cbd565b905092915050565b612bfa8161361c565b82525050565b6000612c0b826134e4565b612c158185613512565b935083602082028501612c27856134d4565b8060005b85811015612c635784840389528151612c448582612bdd565b9450612c4f83613505565b925060208a01995050600181019050612c2b565b50829750879550505050505092915050565b612c7e8161362e565b82525050565b6000612c8f826134ef565b612c998185613523565b9350612ca981856020860161369f565b612cb28161386b565b840191505092915050565b6000612cc8826134fa565b612cd28185613534565b9350612ce281856020860161369f565b612ceb8161386b565b840191505092915050565b6000612d01826134fa565b612d0b8185613545565b9350612d1b81856020860161369f565b612d248161386b565b840191505092915050565b6000612d3a826134fa565b612d448185613556565b9350612d5481856020860161369f565b80840191505092915050565b6000612d6d603283613545565b9150612d788261387c565b604082019050919050565b6000612d90602683613545565b9150612d9b826138cb565b604082019050919050565b6000612db3602583613545565b9150612dbe8261391a565b604082019050919050565b6000612dd6601c83613545565b9150612de182613969565b602082019050919050565b6000612df9602683613545565b9150612e0482613992565b604082019050919050565b6000612e1c601783613545565b9150612e27826139e1565b602082019050919050565b6000612e3f602483613545565b9150612e4a82613a0a565b604082019050919050565b6000612e62601983613545565b9150612e6d82613a59565b602082019050919050565b6000612e85601583613545565b9150612e9082613a82565b602082019050919050565b6000612ea8602c83613545565b9150612eb382613aab565b604082019050919050565b6000612ecb601783613545565b9150612ed682613afa565b602082019050919050565b6000612eee603883613545565b9150612ef982613b23565b604082019050919050565b6000612f11602a83613545565b9150612f1c82613b72565b604082019050919050565b6000612f34602983613545565b9150612f3f82613bc1565b604082019050919050565b6000612f57602e83613545565b9150612f6282613c10565b604082019050919050565b6000612f7a602083613545565b9150612f8582613c5f565b602082019050919050565b6000612f9d603183613545565b9150612fa882613c88565b604082019050919050565b6000612fc0602c83613545565b9150612fcb82613cd7565b604082019050919050565b6000612fe3602083613545565b9150612fee82613d26565b602082019050919050565b6000613006602f83613545565b915061301182613d4f565b604082019050919050565b6000613029602183613545565b915061303482613d9e565b604082019050919050565b600061304c603183613545565b915061305782613ded565b604082019050919050565b61306b81613686565b82525050565b600061307d8284612d2f565b915081905092915050565b60006130948285612d2f565b91506130a08284612d2f565b91508190509392505050565b60006020820190506130c16000830184612bf1565b92915050565b60006080820190506130dc6000830187612bf1565b6130e96020830186612bf1565b6130f66040830185613062565b81810360608301526131088184612c84565b905095945050505050565b6000602082019050818103600083015261312d8184612c00565b905092915050565b600060208201905061314a6000830184612c75565b92915050565b6000602082019050818103600083015261316a8184612cf6565b905092915050565b6000602082019050818103600083015261318b81612d60565b9050919050565b600060208201905081810360008301526131ab81612d83565b9050919050565b600060208201905081810360008301526131cb81612da6565b9050919050565b600060208201905081810360008301526131eb81612dc9565b9050919050565b6000602082019050818103600083015261320b81612dec565b9050919050565b6000602082019050818103600083015261322b81612e0f565b9050919050565b6000602082019050818103600083015261324b81612e32565b9050919050565b6000602082019050818103600083015261326b81612e55565b9050919050565b6000602082019050818103600083015261328b81612e78565b9050919050565b600060208201905081810360008301526132ab81612e9b565b9050919050565b600060208201905081810360008301526132cb81612ebe565b9050919050565b600060208201905081810360008301526132eb81612ee1565b9050919050565b6000602082019050818103600083015261330b81612f04565b9050919050565b6000602082019050818103600083015261332b81612f27565b9050919050565b6000602082019050818103600083015261334b81612f4a565b9050919050565b6000602082019050818103600083015261336b81612f6d565b9050919050565b6000602082019050818103600083015261338b81612f90565b9050919050565b600060208201905081810360008301526133ab81612fb3565b9050919050565b600060208201905081810360008301526133cb81612fd6565b9050919050565b600060208201905081810360008301526133eb81612ff9565b9050919050565b6000602082019050818103600083015261340b8161301c565b9050919050565b6000602082019050818103600083015261342b8161303f565b9050919050565b60006020820190506134476000830184613062565b92915050565b6000613457613468565b90506134638282613704565b919050565b6000604051905090565b600067ffffffffffffffff82111561348d5761348c61383c565b5b6134968261386b565b9050602081019050919050565b600067ffffffffffffffff8211156134be576134bd61383c565b5b6134c78261386b565b9050602081019050919050565b6000819050602082019050919050565b600081519050919050565b600081519050919050565b600081519050919050565b6000602082019050919050565b600082825260208201905092915050565b600082825260208201905092915050565b600082825260208201905092915050565b600082825260208201905092915050565b600081905092915050565b600061356c82613686565b915061357783613686565b9250827fffffffffffffffffffffffffffffffffffffffffffffffffffffffffffffffff038211156135ac576135ab6137af565b5b828201905092915050565b60006135c282613686565b91506135cd83613686565b9250826135dd576135dc6137de565b5b828204905092915050565b60006135f382613686565b91506135fe83613686565b925082821015613611576136106137af565b5b828203905092915050565b600061362782613666565b9050919050565b60008115159050919050565b60007fffffffff0000000000000000000000000000000000000000000000000000000082169050919050565b600073ffffffffffffffffffffffffffffffffffffffff82169050919050565b6000819050919050565b82818337600083830152505050565b60005b838110156136bd5780820151818401526020810190506136a2565b838111156136cc576000848401525b50505050565b600060028204905060018216806136ea57607f821691505b602082108114156136fe576136fd61380d565b5b50919050565b61370d8261386b565b810181811067ffffffffffffffff8211171561372c5761372b61383c565b5b80604052505050565b600061374082613686565b91507fffffffffffffffffffffffffffffffffffffffffffffffffffffffffffffffff821415613773576137726137af565b5b600182019050919050565b600061378982613686565b915061379483613686565b9250826137a4576137a36137de565b5b828206905092915050565b7f4e487b7100000000000000000000000000000000000000000000000000000000600052601160045260246000fd5b7f4e487b7100000000000000000000000000000000000000000000000000000000600052601260045260246000fd5b7f4e487b7100000000000000000000000000000000000000000000000000000000600052602260045260246000fd5b7f4e487b7100000000000000000000000000000000000000000000000000000000600052604160045260246000fd5b6000601f19601f8301169050919050565b7f4552433732313a207472616e7366657220746f206e6f6e20455243373231526560008201527f63656976657220696d706c656d656e7465720000000000000000000000000000602082015250565b7f4f776e61626c653a206e6577206f776e657220697320746865207a65726f206160008201527f6464726573730000000000000000000000000000000000000000000000000000602082015250565b7f4552433732313a207472616e736665722066726f6d20696e636f72726563742060008201527f6f776e6572000000000000000000000000000000000000000000000000000000602082015250565b7f4552433732313a20746f6b656e20616c7265616479206d696e74656400000000600082015250565b7f4f6e6c7920746865204e46542773206f776e65722063616e20617070726f766560008201527f2074686973210000000000000000000000000000000000000000000000000000602082015250565b7f5061792075702c2062697463682120302e303520455448000000000000000000600082015250565b7f4552433732313a207472616e7366657220746f20746865207a65726f2061646460008201527f7265737300000000000000000000000000000000000000000000000000000000602082015250565b7f4552433732313a20617070726f766520746f2063616c6c657200000000000000600082015250565b7f4e465420616c7265616479206d696e746564203b280000000000000000000000600082015250565b7f4552433732313a206f70657261746f7220717565727920666f72206e6f6e657860008201527f697374656e7420746f6b656e0000000000000000000000000000000000000000602082015250565b7f4e6f20657468657220746f2063617368206f7574203b28000000000000000000600082015250565b7f4552433732313a20617070726f76652063616c6c6572206973206e6f74206f7760008201527f6e6572206e6f7220617070726f76656420666f7220616c6c0000000000000000602082015250565b7f4552433732313a2062616c616e636520717565727920666f7220746865207a6560008201527f726f206164647265737300000000000000000000000000000000000000000000602082015250565b7f4552433732313a206f776e657220717565727920666f72206e6f6e657869737460008201527f656e7420746f6b656e0000000000000000000000000000000000000000000000602082015250565b7f45524337323155524953746f726167653a2055524920736574206f66206e6f6e60008201527f6578697374656e7420746f6b656e000000000000000000000000000000000000602082015250565b7f4552433732313a206d696e7420746f20746865207a65726f2061646472657373600082015250565b7f45524337323155524953746f726167653a2055524920717565727920666f722060008201527f6e6f6e6578697374656e7420746f6b656e000000000000000000000000000000602082015250565b7f4552433732313a20617070726f76656420717565727920666f72206e6f6e657860008201527f697374656e7420746f6b656e0000000000000000000000000000000000000000602082015250565b7f4f776e61626c653a2063616c6c6572206973206e6f7420746865206f776e6572600082015250565b7f4552433732314d657461646174613a2055524920717565727920666f72206e6f60008201527f6e6578697374656e7420746f6b656e0000000000000000000000000000000000602082015250565b7f4552433732313a20617070726f76616c20746f2063757272656e74206f776e6560008201527f7200000000000000000000000000000000000000000000000000000000000000602082015250565b7f4552433732313a207472616e736665722063616c6c6572206973206e6f74206f60008201527f776e6572206e6f7220617070726f766564000000000000000000000000000000602082015250565b613e458161361c565b8114613e5057600080fd5b50565b613e5c8161362e565b8114613e6757600080fd5b50565b613e738161363a565b8114613e7e57600080fd5b50565b613e8a81613686565b8114613e9557600080fd5b5056fea2646970667358221220e5aabf961ef2a83bd759e1ceb8981ad5d611879c7c35f6d3d959c136a229259364736f6c63430008040033",
  "linkReferences": {},
  "deployedLinkReferences": {}
}