{
  "_format": "hh-sol-artifact-1",
  "contractName": "FireMen",
  "sourceName": "contracts/MyNFT.sol",
  "abi": [
    {
      "inputs": [
        {
          "internalType": "address",
          "name": "_marketAddress",
          "type": "address"
        }
      ],
      "stateMutability": "nonpayable",
      "type": "constructor"
    },
    {
      "anonymous": false,
      "inputs": [
        {
          "indexed": true,
          "internalType": "address",
          "name": "owner",
          "type": "address"
        },
        {
          "indexed": true,
          "internalType": "address",
          "name": "approved",
          "type": "address"
        },
        {
          "indexed": true,
          "internalType": "uint256",
          "name": "tokenId",
          "type": "uint256"
        }
      ],
      "name": "Approval",
      "type": "event"
    },
    {
      "anonymous": false,
      "inputs": [
        {
          "indexed": true,
          "internalType": "address",
          "name": "owner",
          "type": "address"
        },
        {
          "indexed": true,
          "internalType": "address",
          "name": "operator",
          "type": "address"
        },
        {
          "indexed": false,
          "internalType": "bool",
          "name": "approved",
          "type": "bool"
        }
      ],
      "name": "ApprovalForAll",
      "type": "event"
    },
    {
      "anonymous": false,
      "inputs": [
        {
          "indexed": true,
          "internalType": "address",
          "name": "previousOwner",
          "type": "address"
        },
        {
          "indexed": true,
          "internalType": "address",
          "name": "newOwner",
          "type": "address"
        }
      ],
      "name": "OwnershipTransferred",
      "type": "event"
    },
    {
      "anonymous": false,
      "inputs": [
        {
          "indexed": true,
          "internalType": "address",
          "name": "from",
          "type": "address"
        },
        {
          "indexed": true,
          "internalType": "address",
          "name": "to",
          "type": "address"
        },
        {
          "indexed": true,
          "internalType": "uint256",
          "name": "tokenId",
          "type": "uint256"
        }
      ],
      "name": "Transfer",
      "type": "event"
    },
    {
      "inputs": [
        {
          "internalType": "address",
          "name": "to",
          "type": "address"
        },
        {
          "internalType": "uint256",
          "name": "tokenId",
          "type": "uint256"
        }
      ],
      "name": "approve",
      "outputs": [],
      "stateMutability": "nonpayable",
      "type": "function"
    },
    {
      "inputs": [
        {
          "internalType": "uint256",
          "name": "tokenId",
          "type": "uint256"
        }
      ],
      "name": "approveMarket",
      "outputs": [],
      "stateMutability": "nonpayable",
      "type": "function"
    },
    {
      "inputs": [
        {
          "internalType": "address",
          "name": "owner",
          "type": "address"
        }
      ],
      "name": "balanceOf",
      "outputs": [
        {
          "internalType": "uint256",
          "name": "",
          "type": "uint256"
        }
      ],
      "stateMutability": "view",
      "type": "function"
    },
    {
      "inputs": [],
      "name": "cashOut",
      "outputs": [],
      "stateMutability": "payable",
      "type": "function"
    },
    {
      "inputs": [
        {
          "internalType": "uint256",
          "name": "tokenId",
          "type": "uint256"
        }
      ],
      "name": "getApproved",
      "outputs": [
        {
          "internalType": "address",
          "name": "",
          "type": "address"
        }
      ],
      "stateMutability": "view",
      "type": "function"
    },
    {
      "inputs": [],
      "name": "getContractBalance",
      "outputs": [
        {
          "internalType": "uint256",
          "name": "",
          "type": "uint256"
        }
      ],
      "stateMutability": "view",
      "type": "function"
    },
    {
      "inputs": [],
      "name": "getMyTokens",
      "outputs": [
        {
          "internalType": "string[]",
          "name": "",
          "type": "string[]"
        }
      ],
      "stateMutability": "view",
      "type": "function"
    },
    {
      "inputs": [
        {
          "internalType": "string",
          "name": "name",
          "type": "string"
        }
      ],
      "name": "getOwnerByName",
      "outputs": [
        {
          "internalType": "address",
          "name": "",
          "type": "address"
        }
      ],
      "stateMutability": "view",
      "type": "function"
    },
    {
      "inputs": [
        {
          "internalType": "string",
          "name": "name",
          "type": "string"
        }
      ],
      "name": "getTokenIdByName",
      "outputs": [
        {
          "internalType": "uint256",
          "name": "",
          "type": "uint256"
        }
      ],
      "stateMutability": "view",
      "type": "function"
    },
    {
      "inputs": [
        {
          "internalType": "address",
          "name": "owner",
          "type": "address"
        },
        {
          "internalType": "address",
          "name": "operator",
          "type": "address"
        }
      ],
      "name": "isApprovedForAll",
      "outputs": [
        {
          "internalType": "bool",
          "name": "",
          "type": "bool"
        }
      ],
      "stateMutability": "view",
      "type": "function"
    },
    {
      "inputs": [
        {
          "internalType": "string",
          "name": "uri",
          "type": "string"
        }
      ],
      "name": "isContentOwned",
      "outputs": [
        {
          "internalType": "bool",
          "name": "",
          "type": "bool"
        }
      ],
      "stateMutability": "view",
      "type": "function"
    },
    {
      "inputs": [],
      "name": "name",
      "outputs": [
        {
          "internalType": "string",
          "name": "",
          "type": "string"
        }
      ],
      "stateMutability": "view",
      "type": "function"
    },
    {
      "inputs": [],
      "name": "owner",
      "outputs": [
        {
          "internalType": "address",
          "name": "",
          "type": "address"
        }
      ],
      "stateMutability": "view",
      "type": "function"
    },
    {
      "inputs": [
        {
          "internalType": "uint256",
          "name": "tokenId",
          "type": "uint256"
        }
      ],
      "name": "ownerOf",
      "outputs": [
        {
          "internalType": "address",
          "name": "",
          "type": "address"
        }
      ],
      "stateMutability": "view",
      "type": "function"
    },
    {
      "inputs": [
        {
          "internalType": "string",
          "name": "metadataURI",
          "type": "string"
        },
        {
          "internalType": "string",
          "name": "tokenName",
          "type": "string"
        }
      ],
      "name": "payToMint",
      "outputs": [
        {
          "internalType": "uint256",
          "name": "",
          "type": "uint256"
        }
      ],
      "stateMutability": "payable",
      "type": "function"
    },
    {
      "inputs": [],
      "name": "renounceOwnership",
      "outputs": [],
      "stateMutability": "nonpayable",
      "type": "function"
    },
    {
      "inputs": [
        {
          "internalType": "uint256",
          "name": "tokenId",
          "type": "uint256"
        }
      ],
      "name": "revokeApproval",
      "outputs": [],
      "stateMutability": "nonpayable",
      "type": "function"
    },
    {
      "inputs": [
        {
          "internalType": "address",
          "name": "to",
          "type": "address"
        },
        {
          "internalType": "string",
          "name": "uri",
          "type": "string"
        }
      ],
      "name": "safeMint",
      "outputs": [],
      "stateMutability": "nonpayable",
      "type": "function"
    },
    {
      "inputs": [
        {
          "internalType": "address",
          "name": "from",
          "type": "address"
        },
        {
          "internalType": "address",
          "name": "to",
          "type": "address"
        },
        {
          "internalType": "uint256",
          "name": "tokenId",
          "type": "uint256"
        }
      ],
      "name": "safeTransferFrom",
      "outputs": [],
      "stateMutability": "nonpayable",
      "type": "function"
    },
    {
      "inputs": [
        {
          "internalType": "address",
          "name": "from",
          "type": "address"
        },
        {
          "internalType": "address",
          "name": "to",
          "type": "address"
        },
        {
          "internalType": "uint256",
          "name": "tokenId",
          "type": "uint256"
        },
        {
          "internalType": "bytes",
          "name": "_data",
          "type": "bytes"
        }
      ],
      "name": "safeTransferFrom",
      "outputs": [],
      "stateMutability": "nonpayable",
      "type": "function"
    },
    {
      "inputs": [
        {
          "internalType": "address",
          "name": "operator",
          "type": "address"
        },
        {
          "internalType": "bool",
          "name": "approved",
          "type": "bool"
        }
      ],
      "name": "setApprovalForAll",
      "outputs": [],
      "stateMutability": "nonpayable",
      "type": "function"
    },
    {
      "inputs": [
        {
          "internalType": "bytes4",
          "name": "interfaceId",
          "type": "bytes4"
        }
      ],
      "name": "supportsInterface",
      "outputs": [
        {
          "internalType": "bool",
          "name": "",
          "type": "bool"
        }
      ],
      "stateMutability": "view",
      "type": "function"
    },
    {
      "inputs": [],
      "name": "symbol",
      "outputs": [
        {
          "internalType": "string",
          "name": "",
          "type": "string"
        }
      ],
      "stateMutability": "view",
      "type": "function"
    },
    {
      "inputs": [],
      "name": "tokenCount",
      "outputs": [
        {
          "internalType": "uint256",
          "name": "",
          "type": "uint256"
        }
      ],
      "stateMutability": "view",
      "type": "function"
    },
    {
      "inputs": [
        {
          "internalType": "uint256",
          "name": "tokenId",
          "type": "uint256"
        }
      ],
      "name": "tokenURI",
      "outputs": [
        {
          "internalType": "string",
          "name": "",
          "type": "string"
        }
      ],
      "stateMutability": "view",
      "type": "function"
    },
    {
      "inputs": [
        {
          "internalType": "address",
          "name": "from",
          "type": "address"
        },
        {
          "internalType": "address",
          "name": "to",
          "type": "address"
        },
        {
          "internalType": "uint256",
          "name": "tokenId",
          "type": "uint256"
        }
      ],
      "name": "transferFrom",
      "outputs": [],
      "stateMutability": "nonpayable",
      "type": "function"
    },
    {
      "inputs": [
        {
          "internalType": "address",
          "name": "newOwner",
          "type": "address"
        }
      ],
      "name": "transferOwnership",
      "outputs": [],
      "stateMutability": "nonpayable",
      "type": "function"
    },
    {
      "inputs": [
        {
          "internalType": "address",
          "name": "to",
          "type": "address"
        },
        {
          "internalType": "uint256",
          "name": "tokenId",
          "type": "uint256"
        }
      ],
      "name": "transferToken",
      "outputs": [],
      "stateMutability": "nonpayable",
      "type": "function"
    }
  ],
  "bytecode": "0x60806040523480156200001157600080fd5b5060405162004197380380620041978339818101604052810190620000379190620002d4565b6040518060400160405280600781526020017f466972654d656e000000000000000000000000000000000000000000000000008152506040518060400160405280600481526020017f46495245000000000000000000000000000000000000000000000000000000008152508160009080519060200190620000bb9291906200020d565b508060019080519060200190620000d49291906200020d565b505050620000f7620000eb6200013f60201b60201c565b6200014760201b60201c565b80600b60006101000a81548173ffffffffffffffffffffffffffffffffffffffff021916908373ffffffffffffffffffffffffffffffffffffffff16021790555050620003b3565b600033905090565b6000600760009054906101000a900473ffffffffffffffffffffffffffffffffffffffff16905081600760006101000a81548173ffffffffffffffffffffffffffffffffffffffff021916908373ffffffffffffffffffffffffffffffffffffffff1602179055508173ffffffffffffffffffffffffffffffffffffffff168173ffffffffffffffffffffffffffffffffffffffff167f8be0079c531659141344cd1fd0a4f28419497f9722a3daafe3b4186f6b6457e060405160405180910390a35050565b8280546200021b9062000334565b90600052602060002090601f0160209004810192826200023f57600085556200028b565b82601f106200025a57805160ff19168380011785556200028b565b828001600101855582156200028b579182015b828111156200028a5782518255916020019190600101906200026d565b5b5090506200029a91906200029e565b5090565b5b80821115620002b95760008160009055506001016200029f565b5090565b600081519050620002ce8162000399565b92915050565b600060208284031215620002e757600080fd5b6000620002f784828501620002bd565b91505092915050565b60006200030d8262000314565b9050919050565b600073ffffffffffffffffffffffffffffffffffffffff82169050919050565b600060028204905060018216806200034d57607f821691505b602082108114156200036457620003636200036a565b5b50919050565b7f4e487b7100000000000000000000000000000000000000000000000000000000600052602260045260246000fd5b620003a48162000300565b8114620003b057600080fd5b50565b613dd480620003c36000396000f3fe6080604052600436106101b75760003560e01c80637d99c858116100ec578063b88d4fde1161008a578063d204c45e11610064578063d204c45e14610602578063db7a298e1461062b578063e985e9c514610668578063f2fde38b146106a5576101b7565b8063b88d4fde14610573578063c87b56dd1461059c578063cabe2ae1146105d9576101b7565b80639f181b5e116100c65780639f181b5e146104b95780639f1cabc6146104e4578063a22cb46514610521578063b1e130fc1461054a576101b7565b80637d99c858146104335780638da5cb5b1461046357806395d89b411461048e576101b7565b80634695bfe6116101595780636f9fb98a116101335780636f9fb98a146103aa57806370a08231146103d5578063715018a614610412578063793cd71e14610429576101b7565b80634695bfe6146103055780635b3b136a146103425780636352211e1461036d576101b7565b8063095ea7b311610195578063095ea7b3146102615780631072cbea1461028a57806323b872dd146102b357806342842e0e146102dc576101b7565b806301ffc9a7146101bc57806306fdde03146101f9578063081812fc14610224575b600080fd5b3480156101c857600080fd5b506101e360048036038101906101de91906129bb565b6106ce565b6040516101f0919061303b565b60405180910390f35b34801561020557600080fd5b5061020e6107b0565b60405161021b9190613056565b60405180910390f35b34801561023057600080fd5b5061024b60048036038101906102469190612aba565b610842565b6040516102589190612fb2565b60405180910390f35b34801561026d57600080fd5b506102886004803603810190610283919061297f565b6108c7565b005b34801561029657600080fd5b506102b160048036038101906102ac919061297f565b6109df565b005b3480156102bf57600080fd5b506102da60048036038101906102d59190612825565b6109ee565b005b3480156102e857600080fd5b5061030360048036038101906102fe9190612825565b610a4e565b005b34801561031157600080fd5b5061032c60048036038101906103279190612a0d565b610a6e565b6040516103399190612fb2565b60405180910390f35b34801561034e57600080fd5b50610357610aa9565b6040516103649190613019565b60405180910390f35b34801561037957600080fd5b50610394600480360381019061038f9190612aba565b610c61565b6040516103a19190612fb2565b60405180910390f35b3480156103b657600080fd5b506103bf610d13565b6040516103cc9190613338565b60405180910390f35b3480156103e157600080fd5b506103fc60048036038101906103f791906127c0565b610d20565b6040516104099190613338565b60405180910390f35b34801561041e57600080fd5b50610427610dd8565b005b610431610e60565b005b61044d60048036038101906104489190612a4e565b610f7c565b60405161045a9190613338565b60405180910390f35b34801561046f57600080fd5b506104786110cb565b6040516104859190612fb2565b60405180910390f35b34801561049a57600080fd5b506104a36110f5565b6040516104b09190613056565b60405180910390f35b3480156104c557600080fd5b506104ce611187565b6040516104db9190613338565b60405180910390f35b3480156104f057600080fd5b5061050b60048036038101906105069190612a0d565b611198565b604051610518919061303b565b60405180910390f35b34801561052d57600080fd5b50610548600480360381019061054391906128ef565b6111d3565b005b34801561055657600080fd5b50610571600480360381019061056c9190612aba565b6111e9565b005b34801561057f57600080fd5b5061059a60048036038101906105959190612874565b61126d565b005b3480156105a857600080fd5b506105c360048036038101906105be9190612aba565b6112cf565b6040516105d09190613056565b60405180910390f35b3480156105e557600080fd5b5061060060048036038101906105fb9190612aba565b6112e1565b005b34801561060e57600080fd5b506106296004803603810190610624919061292b565b611386565b005b34801561063757600080fd5b50610652600480360381019061064d9190612a0d565b611433565b60405161065f9190613338565b60405180910390f35b34801561067457600080fd5b5061068f600480360381019061068a91906127e9565b61145b565b60405161069c919061303b565b60405180910390f35b3480156106b157600080fd5b506106cc60048036038101906106c791906127c0565b6114ef565b005b60007f80ac58cd000000000000000000000000000000000000000000000000000000007bffffffffffffffffffffffffffffffffffffffffffffffffffffffff1916827bffffffffffffffffffffffffffffffffffffffffffffffffffffffff1916148061079957507f5b5e139f000000000000000000000000000000000000000000000000000000007bffffffffffffffffffffffffffffffffffffffffffffffffffffffff1916827bffffffffffffffffffffffffffffffffffffffffffffffffffffffff1916145b806107a957506107a8826115e7565b5b9050919050565b6060600080546107bf906135d8565b80601f01602080910402602001604051908101604052809291908181526020018280546107eb906135d8565b80156108385780601f1061080d57610100808354040283529160200191610838565b820191906000526020600020905b81548152906001019060200180831161081b57829003601f168201915b5050505050905090565b600061084d82611651565b61088c576040517f08c379a000000000000000000000000000000000000000000000000000000000815260040161088390613298565b60405180910390fd5b6004600083815260200190815260200160002060009054906101000a900473ffffffffffffffffffffffffffffffffffffffff169050919050565b60006108d282610c61565b90508073ffffffffffffffffffffffffffffffffffffffff168373ffffffffffffffffffffffffffffffffffffffff161415610943576040517f08c379a000000000000000000000000000000000000000000000000000000000815260040161093a906132f8565b60405180910390fd5b8073ffffffffffffffffffffffffffffffffffffffff166109626116bd565b73ffffffffffffffffffffffffffffffffffffffff16148061099157506109908161098b6116bd565b61145b565b5b6109d0576040517f08c379a00000000000000000000000000000000000000000000000000000000081526004016109c7906131d8565b60405180910390fd5b6109da83836116c5565b505050565b6109ea338383610a4e565b5050565b6109ff6109f96116bd565b8261177e565b610a3e576040517f08c379a0000000000000000000000000000000000000000000000000000000008152600401610a3590613318565b60405180910390fd5b610a4983838361185c565b505050565b610a698383836040518060200160405280600081525061126d565b505050565b600080600a83604051610a819190612f77565b90815260200160405180910390205490506000610a9d82610c61565b90508092505050919050565b60606000610ab76008611ac3565b905060008060005b83811015610b26573373ffffffffffffffffffffffffffffffffffffffff16610ae782610c61565b73ffffffffffffffffffffffffffffffffffffffff161415610b1357600183610b109190613467565b92505b8080610b1e9061363b565b915050610abf565b5060008267ffffffffffffffff811115610b69577f4e487b7100000000000000000000000000000000000000000000000000000000600052604160045260246000fd5b604051908082528060200260200182016040528015610b9c57816020015b6060815260200190600190039081610b875790505b50905060005b84811015610c56573373ffffffffffffffffffffffffffffffffffffffff16610bca82610c61565b73ffffffffffffffffffffffffffffffffffffffff161415610c4357610bef816112cf565b828481518110610c28577f4e487b7100000000000000000000000000000000000000000000000000000000600052603260045260246000fd5b6020026020010181905250600183610c409190613467565b92505b8080610c4e9061363b565b915050610ba2565b508094505050505090565b6000806002600084815260200190815260200160002060009054906101000a900473ffffffffffffffffffffffffffffffffffffffff169050600073ffffffffffffffffffffffffffffffffffffffff168173ffffffffffffffffffffffffffffffffffffffff161415610d0a576040517f08c379a0000000000000000000000000000000000000000000000000000000008152600401610d0190613218565b60405180910390fd5b80915050919050565b6000804790508091505090565b60008073ffffffffffffffffffffffffffffffffffffffff168273ffffffffffffffffffffffffffffffffffffffff161415610d91576040517f08c379a0000000000000000000000000000000000000000000000000000000008152600401610d88906131f8565b60405180910390fd5b600360008373ffffffffffffffffffffffffffffffffffffffff1673ffffffffffffffffffffffffffffffffffffffff168152602001908152602001600020549050919050565b610de06116bd565b73ffffffffffffffffffffffffffffffffffffffff16610dfe6110cb565b73ffffffffffffffffffffffffffffffffffffffff1614610e54576040517f08c379a0000000000000000000000000000000000000000000000000000000008152600401610e4b906132b8565b60405180910390fd5b610e5e6000611ad1565b565b610e686116bd565b73ffffffffffffffffffffffffffffffffffffffff16610e866110cb565b73ffffffffffffffffffffffffffffffffffffffff1614610edc576040517f08c379a0000000000000000000000000000000000000000000000000000000008152600401610ed3906132b8565b60405180910390fd5b6000610ee6610d13565b905060008111610f2b576040517f08c379a0000000000000000000000000000000000000000000000000000000008152600401610f22906131b8565b60405180910390fd5b610f336110cb565b73ffffffffffffffffffffffffffffffffffffffff166108fc829081150290604051600060405180830381858888f19350505050158015610f78573d6000803e3d6000fd5b5050565b60006001600984604051610f909190612f77565b908152602001604051809103902060009054906101000a900460ff1660ff161415610ff0576040517f08c379a0000000000000000000000000000000000000000000000000000000008152600401610fe790613178565b60405180910390fd5b66b1a2bc2ec5000034101561103a576040517f08c379a000000000000000000000000000000000000000000000000000000000815260040161103190613118565b60405180910390fd5b60006110466008611ac3565b90506110526008611b97565b60016009856040516110649190612f77565b908152602001604051809103902060006101000a81548160ff021916908360ff16021790555080600a8460405161109b9190612f77565b9081526020016040518091039020819055506110b73382611bad565b6110c18185611d87565b8091505092915050565b6000600760009054906101000a900473ffffffffffffffffffffffffffffffffffffffff16905090565b606060018054611104906135d8565b80601f0160208091040260200160405190810160405280929190818152602001828054611130906135d8565b801561117d5780601f106111525761010080835404028352916020019161117d565b820191906000526020600020905b81548152906001019060200180831161116057829003601f168201915b5050505050905090565b60006111936008611ac3565b905090565b600060016009836040516111ac9190612f77565b908152602001604051809103902060009054906101000a900460ff1660ff16149050919050565b6111e56111de6116bd565b8383611dfb565b5050565b6111f281610c61565b73ffffffffffffffffffffffffffffffffffffffff163373ffffffffffffffffffffffffffffffffffffffff161461125f576040517f08c379a0000000000000000000000000000000000000000000000000000000008152600401611256906130f8565b60405180910390fd5b61126a6000826108c7565b50565b61127e6112786116bd565b8361177e565b6112bd576040517f08c379a00000000000000000000000000000000000000000000000000000000081526004016112b490613318565b60405180910390fd5b6112c984848484611f68565b50505050565b60606112da82611fc4565b9050919050565b6112ea81610c61565b73ffffffffffffffffffffffffffffffffffffffff163373ffffffffffffffffffffffffffffffffffffffff1614611357576040517f08c379a000000000000000000000000000000000000000000000000000000000815260040161134e906130f8565b60405180910390fd5b611383600b60009054906101000a900473ffffffffffffffffffffffffffffffffffffffff16826108c7565b50565b61138e6116bd565b73ffffffffffffffffffffffffffffffffffffffff166113ac6110cb565b73ffffffffffffffffffffffffffffffffffffffff1614611402576040517f08c379a00000000000000000000000000000000000000000000000000000000081526004016113f9906132b8565b60405180910390fd5b600061140e6008611ac3565b905061141a6008611b97565b6114248382612116565b61142e8183611d87565b505050565b6000600a826040516114459190612f77565b9081526020016040518091039020549050919050565b6000600560008473ffffffffffffffffffffffffffffffffffffffff1673ffffffffffffffffffffffffffffffffffffffff16815260200190815260200160002060008373ffffffffffffffffffffffffffffffffffffffff1673ffffffffffffffffffffffffffffffffffffffff16815260200190815260200160002060009054906101000a900460ff16905092915050565b6114f76116bd565b73ffffffffffffffffffffffffffffffffffffffff166115156110cb565b73ffffffffffffffffffffffffffffffffffffffff161461156b576040517f08c379a0000000000000000000000000000000000000000000000000000000008152600401611562906132b8565b60405180910390fd5b600073ffffffffffffffffffffffffffffffffffffffff168173ffffffffffffffffffffffffffffffffffffffff1614156115db576040517f08c379a00000000000000000000000000000000000000000000000000000000081526004016115d290613098565b60405180910390fd5b6115e481611ad1565b50565b60007f01ffc9a7000000000000000000000000000000000000000000000000000000007bffffffffffffffffffffffffffffffffffffffffffffffffffffffff1916827bffffffffffffffffffffffffffffffffffffffffffffffffffffffff1916149050919050565b60008073ffffffffffffffffffffffffffffffffffffffff166002600084815260200190815260200160002060009054906101000a900473ffffffffffffffffffffffffffffffffffffffff1673ffffffffffffffffffffffffffffffffffffffff1614159050919050565b600033905090565b816004600083815260200190815260200160002060006101000a81548173ffffffffffffffffffffffffffffffffffffffff021916908373ffffffffffffffffffffffffffffffffffffffff160217905550808273ffffffffffffffffffffffffffffffffffffffff1661173883610c61565b73ffffffffffffffffffffffffffffffffffffffff167f8c5be1e5ebec7d5bd14f71427d1e84f3dd0314c0f7b2291e5b200ac8c7c3b92560405160405180910390a45050565b600061178982611651565b6117c8576040517f08c379a00000000000000000000000000000000000000000000000000000000081526004016117bf90613198565b60405180910390fd5b60006117d383610c61565b90508073ffffffffffffffffffffffffffffffffffffffff168473ffffffffffffffffffffffffffffffffffffffff16148061184257508373ffffffffffffffffffffffffffffffffffffffff1661182a84610842565b73ffffffffffffffffffffffffffffffffffffffff16145b806118535750611852818561145b565b5b91505092915050565b8273ffffffffffffffffffffffffffffffffffffffff1661187c82610c61565b73ffffffffffffffffffffffffffffffffffffffff16146118d2576040517f08c379a00000000000000000000000000000000000000000000000000000000081526004016118c9906130b8565b60405180910390fd5b600073ffffffffffffffffffffffffffffffffffffffff168273ffffffffffffffffffffffffffffffffffffffff161415611942576040517f08c379a000000000000000000000000000000000000000000000000000000000815260040161193990613138565b60405180910390fd5b61194d838383612134565b6119586000826116c5565b6001600360008573ffffffffffffffffffffffffffffffffffffffff1673ffffffffffffffffffffffffffffffffffffffff16815260200190815260200160002060008282546119a891906134ee565b925050819055506001600360008473ffffffffffffffffffffffffffffffffffffffff1673ffffffffffffffffffffffffffffffffffffffff16815260200190815260200160002060008282546119ff9190613467565b92505081905550816002600083815260200190815260200160002060006101000a81548173ffffffffffffffffffffffffffffffffffffffff021916908373ffffffffffffffffffffffffffffffffffffffff160217905550808273ffffffffffffffffffffffffffffffffffffffff168473ffffffffffffffffffffffffffffffffffffffff167fddf252ad1be2c89b69c2b068fc378daa952ba7f163c4a11628f55a4df523b3ef60405160405180910390a4611abe838383612139565b505050565b600081600001549050919050565b6000600760009054906101000a900473ffffffffffffffffffffffffffffffffffffffff16905081600760006101000a81548173ffffffffffffffffffffffffffffffffffffffff021916908373ffffffffffffffffffffffffffffffffffffffff1602179055508173ffffffffffffffffffffffffffffffffffffffff168173ffffffffffffffffffffffffffffffffffffffff167f8be0079c531659141344cd1fd0a4f28419497f9722a3daafe3b4186f6b6457e060405160405180910390a35050565b6001816000016000828254019250508190555050565b600073ffffffffffffffffffffffffffffffffffffffff168273ffffffffffffffffffffffffffffffffffffffff161415611c1d576040517f08c379a0000000000000000000000000000000000000000000000000000000008152600401611c1490613258565b60405180910390fd5b611c2681611651565b15611c66576040517f08c379a0000000000000000000000000000000000000000000000000000000008152600401611c5d906130d8565b60405180910390fd5b611c7260008383612134565b6001600360008473ffffffffffffffffffffffffffffffffffffffff1673ffffffffffffffffffffffffffffffffffffffff1681526020019081526020016000206000828254611cc29190613467565b92505081905550816002600083815260200190815260200160002060006101000a81548173ffffffffffffffffffffffffffffffffffffffff021916908373ffffffffffffffffffffffffffffffffffffffff160217905550808273ffffffffffffffffffffffffffffffffffffffff16600073ffffffffffffffffffffffffffffffffffffffff167fddf252ad1be2c89b69c2b068fc378daa952ba7f163c4a11628f55a4df523b3ef60405160405180910390a4611d8360008383612139565b5050565b611d9082611651565b611dcf576040517f08c379a0000000000000000000000000000000000000000000000000000000008152600401611dc690613238565b60405180910390fd5b80600660008481526020019081526020016000209080519060200190611df69291906125e4565b505050565b8173ffffffffffffffffffffffffffffffffffffffff168373ffffffffffffffffffffffffffffffffffffffff161415611e6a576040517f08c379a0000000000000000000000000000000000000000000000000000000008152600401611e6190613158565b60405180910390fd5b80600560008573ffffffffffffffffffffffffffffffffffffffff1673ffffffffffffffffffffffffffffffffffffffff16815260200190815260200160002060008473ffffffffffffffffffffffffffffffffffffffff1673ffffffffffffffffffffffffffffffffffffffff16815260200190815260200160002060006101000a81548160ff0219169083151502179055508173ffffffffffffffffffffffffffffffffffffffff168373ffffffffffffffffffffffffffffffffffffffff167f17307eab39ab6107e8899845ad3d59bd9653f200f220920489ca2b5937696c3183604051611f5b919061303b565b60405180910390a3505050565b611f7384848461185c565b611f7f8484848461213e565b611fbe576040517f08c379a0000000000000000000000000000000000000000000000000000000008152600401611fb590613078565b60405180910390fd5b50505050565b6060611fcf82611651565b61200e576040517f08c379a000000000000000000000000000000000000000000000000000000000815260040161200590613278565b60405180910390fd5b600060066000848152602001908152602001600020805461202e906135d8565b80601f016020809104026020016040519081016040528092919081815260200182805461205a906135d8565b80156120a75780601f1061207c576101008083540402835291602001916120a7565b820191906000526020600020905b81548152906001019060200180831161208a57829003601f168201915b5050505050905060006120b86122d5565b90506000815114156120ce578192505050612111565b6000825111156121035780826040516020016120eb929190612f8e565b60405160208183030381529060405292505050612111565b61210c84612312565b925050505b919050565b6121308282604051806020016040528060008152506123b9565b5050565b505050565b505050565b600061215f8473ffffffffffffffffffffffffffffffffffffffff16612414565b156122c8578373ffffffffffffffffffffffffffffffffffffffff1663150b7a026121886116bd565b8786866040518563ffffffff1660e01b81526004016121aa9493929190612fcd565b602060405180830381600087803b1580156121c457600080fd5b505af19250505080156121f557506040513d601f19601f820116820180604052508101906121f291906129e4565b60015b612278573d8060008114612225576040519150601f19603f3d011682016040523d82523d6000602084013e61222a565b606091505b50600081511415612270576040517f08c379a000000000000000000000000000000000000000000000000000000000815260040161226790613078565b60405180910390fd5b805181602001fd5b63150b7a0260e01b7bffffffffffffffffffffffffffffffffffffffffffffffffffffffff1916817bffffffffffffffffffffffffffffffffffffffffffffffffffffffff1916149150506122cd565b600190505b949350505050565b60606040518060400160405280600781526020017f697066733a2f2f00000000000000000000000000000000000000000000000000815250905090565b606061231d82611651565b61235c576040517f08c379a0000000000000000000000000000000000000000000000000000000008152600401612353906132d8565b60405180910390fd5b60006123666122d5565b9050600081511161238657604051806020016040528060008152506123b1565b8061239084612437565b6040516020016123a1929190612f8e565b6040516020818303038152906040525b915050919050565b6123c38383611bad565b6123d0600084848461213e565b61240f576040517f08c379a000000000000000000000000000000000000000000000000000000000815260040161240690613078565b60405180910390fd5b505050565b6000808273ffffffffffffffffffffffffffffffffffffffff163b119050919050565b6060600082141561247f576040518060400160405280600181526020017f300000000000000000000000000000000000000000000000000000000000000081525090506125df565b600082905060005b600082146124b157808061249a9061363b565b915050600a826124aa91906134bd565b9150612487565b60008167ffffffffffffffff8111156124f3577f4e487b7100000000000000000000000000000000000000000000000000000000600052604160045260246000fd5b6040519080825280601f01601f1916602001820160405280156125255781602001600182028036833780820191505090505b5090505b600085146125d85760018261253e91906134ee565b9150600a8561254d9190613684565b60306125599190613467565b60f81b818381518110612595577f4e487b7100000000000000000000000000000000000000000000000000000000600052603260045260246000fd5b60200101907effffffffffffffffffffffffffffffffffffffffffffffffffffffffffffff1916908160001a905350600a856125d191906134bd565b9450612529565b8093505050505b919050565b8280546125f0906135d8565b90600052602060002090601f0160209004810192826126125760008555612659565b82601f1061262b57805160ff1916838001178555612659565b82800160010185558215612659579182015b8281111561265857825182559160200191906001019061263d565b5b509050612666919061266a565b5090565b5b8082111561268357600081600090555060010161266b565b5090565b600061269a61269584613378565b613353565b9050828152602081018484840111156126b257600080fd5b6126bd848285613596565b509392505050565b60006126d86126d3846133a9565b613353565b9050828152602081018484840111156126f057600080fd5b6126fb848285613596565b509392505050565b60008135905061271281613d42565b92915050565b60008135905061272781613d59565b92915050565b60008135905061273c81613d70565b92915050565b60008151905061275181613d70565b92915050565b600082601f83011261276857600080fd5b8135612778848260208601612687565b91505092915050565b600082601f83011261279257600080fd5b81356127a28482602086016126c5565b91505092915050565b6000813590506127ba81613d87565b92915050565b6000602082840312156127d257600080fd5b60006127e084828501612703565b91505092915050565b600080604083850312156127fc57600080fd5b600061280a85828601612703565b925050602061281b85828601612703565b9150509250929050565b60008060006060848603121561283a57600080fd5b600061284886828701612703565b935050602061285986828701612703565b925050604061286a868287016127ab565b9150509250925092565b6000806000806080858703121561288a57600080fd5b600061289887828801612703565b94505060206128a987828801612703565b93505060406128ba878288016127ab565b925050606085013567ffffffffffffffff8111156128d757600080fd5b6128e387828801612757565b91505092959194509250565b6000806040838503121561290257600080fd5b600061291085828601612703565b925050602061292185828601612718565b9150509250929050565b6000806040838503121561293e57600080fd5b600061294c85828601612703565b925050602083013567ffffffffffffffff81111561296957600080fd5b61297585828601612781565b9150509250929050565b6000806040838503121561299257600080fd5b60006129a085828601612703565b92505060206129b1858286016127ab565b9150509250929050565b6000602082840312156129cd57600080fd5b60006129db8482850161272d565b91505092915050565b6000602082840312156129f657600080fd5b6000612a0484828501612742565b91505092915050565b600060208284031215612a1f57600080fd5b600082013567ffffffffffffffff811115612a3957600080fd5b612a4584828501612781565b91505092915050565b60008060408385031215612a6157600080fd5b600083013567ffffffffffffffff811115612a7b57600080fd5b612a8785828601612781565b925050602083013567ffffffffffffffff811115612aa457600080fd5b612ab085828601612781565b9150509250929050565b600060208284031215612acc57600080fd5b6000612ada848285016127ab565b91505092915050565b6000612aef8383612bc3565b905092915050565b612b0081613522565b82525050565b6000612b11826133ea565b612b1b8185613418565b935083602082028501612b2d856133da565b8060005b85811015612b695784840389528151612b4a8582612ae3565b9450612b558361340b565b925060208a01995050600181019050612b31565b50829750879550505050505092915050565b612b8481613534565b82525050565b6000612b95826133f5565b612b9f8185613429565b9350612baf8185602086016135a5565b612bb881613771565b840191505092915050565b6000612bce82613400565b612bd8818561343a565b9350612be88185602086016135a5565b612bf181613771565b840191505092915050565b6000612c0782613400565b612c11818561344b565b9350612c218185602086016135a5565b612c2a81613771565b840191505092915050565b6000612c4082613400565b612c4a818561345c565b9350612c5a8185602086016135a5565b80840191505092915050565b6000612c7360328361344b565b9150612c7e82613782565b604082019050919050565b6000612c9660268361344b565b9150612ca1826137d1565b604082019050919050565b6000612cb960258361344b565b9150612cc482613820565b604082019050919050565b6000612cdc601c8361344b565b9150612ce78261386f565b602082019050919050565b6000612cff60268361344b565b9150612d0a82613898565b604082019050919050565b6000612d2260178361344b565b9150612d2d826138e7565b602082019050919050565b6000612d4560248361344b565b9150612d5082613910565b604082019050919050565b6000612d6860198361344b565b9150612d738261395f565b602082019050919050565b6000612d8b60158361344b565b9150612d9682613988565b602082019050919050565b6000612dae602c8361344b565b9150612db9826139b1565b604082019050919050565b6000612dd160178361344b565b9150612ddc82613a00565b602082019050919050565b6000612df460388361344b565b9150612dff82613a29565b604082019050919050565b6000612e17602a8361344b565b9150612e2282613a78565b604082019050919050565b6000612e3a60298361344b565b9150612e4582613ac7565b604082019050919050565b6000612e5d602e8361344b565b9150612e6882613b16565b604082019050919050565b6000612e8060208361344b565b9150612e8b82613b65565b602082019050919050565b6000612ea360318361344b565b9150612eae82613b8e565b604082019050919050565b6000612ec6602c8361344b565b9150612ed182613bdd565b604082019050919050565b6000612ee960208361344b565b9150612ef482613c2c565b602082019050919050565b6000612f0c602f8361344b565b9150612f1782613c55565b604082019050919050565b6000612f2f60218361344b565b9150612f3a82613ca4565b604082019050919050565b6000612f5260318361344b565b9150612f5d82613cf3565b604082019050919050565b612f718161358c565b82525050565b6000612f838284612c35565b915081905092915050565b6000612f9a8285612c35565b9150612fa68284612c35565b91508190509392505050565b6000602082019050612fc76000830184612af7565b92915050565b6000608082019050612fe26000830187612af7565b612fef6020830186612af7565b612ffc6040830185612f68565b818103606083015261300e8184612b8a565b905095945050505050565b600060208201905081810360008301526130338184612b06565b905092915050565b60006020820190506130506000830184612b7b565b92915050565b600060208201905081810360008301526130708184612bfc565b905092915050565b6000602082019050818103600083015261309181612c66565b9050919050565b600060208201905081810360008301526130b181612c89565b9050919050565b600060208201905081810360008301526130d181612cac565b9050919050565b600060208201905081810360008301526130f181612ccf565b9050919050565b6000602082019050818103600083015261311181612cf2565b9050919050565b6000602082019050818103600083015261313181612d15565b9050919050565b6000602082019050818103600083015261315181612d38565b9050919050565b6000602082019050818103600083015261317181612d5b565b9050919050565b6000602082019050818103600083015261319181612d7e565b9050919050565b600060208201905081810360008301526131b181612da1565b9050919050565b600060208201905081810360008301526131d181612dc4565b9050919050565b600060208201905081810360008301526131f181612de7565b9050919050565b6000602082019050818103600083015261321181612e0a565b9050919050565b6000602082019050818103600083015261323181612e2d565b9050919050565b6000602082019050818103600083015261325181612e50565b9050919050565b6000602082019050818103600083015261327181612e73565b9050919050565b6000602082019050818103600083015261329181612e96565b9050919050565b600060208201905081810360008301526132b181612eb9565b9050919050565b600060208201905081810360008301526132d181612edc565b9050919050565b600060208201905081810360008301526132f181612eff565b9050919050565b6000602082019050818103600083015261331181612f22565b9050919050565b6000602082019050818103600083015261333181612f45565b9050919050565b600060208201905061334d6000830184612f68565b92915050565b600061335d61336e565b9050613369828261360a565b919050565b6000604051905090565b600067ffffffffffffffff82111561339357613392613742565b5b61339c82613771565b9050602081019050919050565b600067ffffffffffffffff8211156133c4576133c3613742565b5b6133cd82613771565b9050602081019050919050565b6000819050602082019050919050565b600081519050919050565b600081519050919050565b600081519050919050565b6000602082019050919050565b600082825260208201905092915050565b600082825260208201905092915050565b600082825260208201905092915050565b600082825260208201905092915050565b600081905092915050565b60006134728261358c565b915061347d8361358c565b9250827fffffffffffffffffffffffffffffffffffffffffffffffffffffffffffffffff038211156134b2576134b16136b5565b5b828201905092915050565b60006134c88261358c565b91506134d38361358c565b9250826134e3576134e26136e4565b5b828204905092915050565b60006134f98261358c565b91506135048361358c565b925082821015613517576135166136b5565b5b828203905092915050565b600061352d8261356c565b9050919050565b60008115159050919050565b60007fffffffff0000000000000000000000000000000000000000000000000000000082169050919050565b600073ffffffffffffffffffffffffffffffffffffffff82169050919050565b6000819050919050565b82818337600083830152505050565b60005b838110156135c35780820151818401526020810190506135a8565b838111156135d2576000848401525b50505050565b600060028204905060018216806135f057607f821691505b6020821081141561360457613603613713565b5b50919050565b61361382613771565b810181811067ffffffffffffffff8211171561363257613631613742565b5b80604052505050565b60006136468261358c565b91507fffffffffffffffffffffffffffffffffffffffffffffffffffffffffffffffff821415613679576136786136b5565b5b600182019050919050565b600061368f8261358c565b915061369a8361358c565b9250826136aa576136a96136e4565b5b828206905092915050565b7f4e487b7100000000000000000000000000000000000000000000000000000000600052601160045260246000fd5b7f4e487b7100000000000000000000000000000000000000000000000000000000600052601260045260246000fd5b7f4e487b7100000000000000000000000000000000000000000000000000000000600052602260045260246000fd5b7f4e487b7100000000000000000000000000000000000000000000000000000000600052604160045260246000fd5b6000601f19601f8301169050919050565b7f4552433732313a207472616e7366657220746f206e6f6e20455243373231526560008201527f63656976657220696d706c656d656e7465720000000000000000000000000000602082015250565b7f4f776e61626c653a206e6577206f776e657220697320746865207a65726f206160008201527f6464726573730000000000000000000000000000000000000000000000000000602082015250565b7f4552433732313a207472616e736665722066726f6d20696e636f72726563742060008201527f6f776e6572000000000000000000000000000000000000000000000000000000602082015250565b7f4552433732313a20746f6b656e20616c7265616479206d696e74656400000000600082015250565b7f4f6e6c7920746865204e46542773206f776e65722063616e20617070726f766560008201527f2074686973210000000000000000000000000000000000000000000000000000602082015250565b7f5061792075702c2062697463682120302e303520455448000000000000000000600082015250565b7f4552433732313a207472616e7366657220746f20746865207a65726f2061646460008201527f7265737300000000000000000000000000000000000000000000000000000000602082015250565b7f4552433732313a20617070726f766520746f2063616c6c657200000000000000600082015250565b7f4e465420616c7265616479206d696e746564203b280000000000000000000000600082015250565b7f4552433732313a206f70657261746f7220717565727920666f72206e6f6e657860008201527f697374656e7420746f6b656e0000000000000000000000000000000000000000602082015250565b7f4e6f20657468657220746f2063617368206f7574203b28000000000000000000600082015250565b7f4552433732313a20617070726f76652063616c6c6572206973206e6f74206f7760008201527f6e6572206e6f7220617070726f76656420666f7220616c6c0000000000000000602082015250565b7f4552433732313a2062616c616e636520717565727920666f7220746865207a6560008201527f726f206164647265737300000000000000000000000000000000000000000000602082015250565b7f4552433732313a206f776e657220717565727920666f72206e6f6e657869737460008201527f656e7420746f6b656e0000000000000000000000000000000000000000000000602082015250565b7f45524337323155524953746f726167653a2055524920736574206f66206e6f6e60008201527f6578697374656e7420746f6b656e000000000000000000000000000000000000602082015250565b7f4552433732313a206d696e7420746f20746865207a65726f2061646472657373600082015250565b7f45524337323155524953746f726167653a2055524920717565727920666f722060008201527f6e6f6e6578697374656e7420746f6b656e000000000000000000000000000000602082015250565b7f4552433732313a20617070726f76656420717565727920666f72206e6f6e657860008201527f697374656e7420746f6b656e0000000000000000000000000000000000000000602082015250565b7f4f776e61626c653a2063616c6c6572206973206e6f7420746865206f776e6572600082015250565b7f4552433732314d657461646174613a2055524920717565727920666f72206e6f60008201527f6e6578697374656e7420746f6b656e0000000000000000000000000000000000602082015250565b7f4552433732313a20617070726f76616c20746f2063757272656e74206f776e6560008201527f7200000000000000000000000000000000000000000000000000000000000000602082015250565b7f4552433732313a207472616e736665722063616c6c6572206973206e6f74206f60008201527f776e6572206e6f7220617070726f766564000000000000000000000000000000602082015250565b613d4b81613522565b8114613d5657600080fd5b50565b613d6281613534565b8114613d6d57600080fd5b50565b613d7981613540565b8114613d8457600080fd5b50565b613d908161358c565b8114613d9b57600080fd5b5056fea2646970667358221220ccee48c8676d21fba1ee92c52e075ac815e07a1d4aea4c7882c3e984e1ab7e3e64736f6c63430008040033",
  "linkReferences": {},
  "deployedLinkReferences": {}
}