{
  "_format": "hh-sol-artifact-1",
  "contractName": "FireMen",
  "sourceName": "contracts/MyNFT.sol",
  "abi": [
    {
      "inputs": [],
      "stateMutability": "nonpayable",
      "type": "constructor"
    },
    {
      "anonymous": false,
      "inputs": [
        {
          "indexed": true,
          "internalType": "address",
          "name": "owner",
          "type": "address"
        },
        {
          "indexed": true,
          "internalType": "address",
          "name": "approved",
          "type": "address"
        },
        {
          "indexed": true,
          "internalType": "uint256",
          "name": "tokenId",
          "type": "uint256"
        }
      ],
      "name": "Approval",
      "type": "event"
    },
    {
      "anonymous": false,
      "inputs": [
        {
          "indexed": true,
          "internalType": "address",
          "name": "owner",
          "type": "address"
        },
        {
          "indexed": true,
          "internalType": "address",
          "name": "operator",
          "type": "address"
        },
        {
          "indexed": false,
          "internalType": "bool",
          "name": "approved",
          "type": "bool"
        }
      ],
      "name": "ApprovalForAll",
      "type": "event"
    },
    {
      "anonymous": false,
      "inputs": [
        {
          "indexed": true,
          "internalType": "address",
          "name": "previousOwner",
          "type": "address"
        },
        {
          "indexed": true,
          "internalType": "address",
          "name": "newOwner",
          "type": "address"
        }
      ],
      "name": "OwnershipTransferred",
      "type": "event"
    },
    {
      "anonymous": false,
      "inputs": [
        {
          "indexed": true,
          "internalType": "address",
          "name": "from",
          "type": "address"
        },
        {
          "indexed": true,
          "internalType": "address",
          "name": "to",
          "type": "address"
        },
        {
          "indexed": true,
          "internalType": "uint256",
          "name": "tokenId",
          "type": "uint256"
        }
      ],
      "name": "Transfer",
      "type": "event"
    },
    {
      "inputs": [
        {
          "internalType": "address",
          "name": "to",
          "type": "address"
        },
        {
          "internalType": "uint256",
          "name": "tokenId",
          "type": "uint256"
        }
      ],
      "name": "approve",
      "outputs": [],
      "stateMutability": "nonpayable",
      "type": "function"
    },
    {
      "inputs": [
        {
          "internalType": "address",
          "name": "owner",
          "type": "address"
        }
      ],
      "name": "balanceOf",
      "outputs": [
        {
          "internalType": "uint256",
          "name": "",
          "type": "uint256"
        }
      ],
      "stateMutability": "view",
      "type": "function"
    },
    {
      "inputs": [
        {
          "internalType": "uint256",
          "name": "tokenId",
          "type": "uint256"
        }
      ],
      "name": "getApproved",
      "outputs": [
        {
          "internalType": "address",
          "name": "",
          "type": "address"
        }
      ],
      "stateMutability": "view",
      "type": "function"
    },
    {
      "inputs": [
        {
          "internalType": "address",
          "name": "owner",
          "type": "address"
        },
        {
          "internalType": "address",
          "name": "operator",
          "type": "address"
        }
      ],
      "name": "isApprovedForAll",
      "outputs": [
        {
          "internalType": "bool",
          "name": "",
          "type": "bool"
        }
      ],
      "stateMutability": "view",
      "type": "function"
    },
    {
      "inputs": [
        {
          "internalType": "string",
          "name": "uri",
          "type": "string"
        }
      ],
      "name": "isContentOwned",
      "outputs": [
        {
          "internalType": "bool",
          "name": "",
          "type": "bool"
        }
      ],
      "stateMutability": "view",
      "type": "function"
    },
    {
      "inputs": [],
      "name": "name",
      "outputs": [
        {
          "internalType": "string",
          "name": "",
          "type": "string"
        }
      ],
      "stateMutability": "view",
      "type": "function"
    },
    {
      "inputs": [],
      "name": "owner",
      "outputs": [
        {
          "internalType": "address",
          "name": "",
          "type": "address"
        }
      ],
      "stateMutability": "view",
      "type": "function"
    },
    {
      "inputs": [
        {
          "internalType": "uint256",
          "name": "tokenId",
          "type": "uint256"
        }
      ],
      "name": "ownerOf",
      "outputs": [
        {
          "internalType": "address",
          "name": "",
          "type": "address"
        }
      ],
      "stateMutability": "view",
      "type": "function"
    },
    {
      "inputs": [
        {
          "internalType": "address",
          "name": "recipient",
          "type": "address"
        },
        {
          "internalType": "string",
          "name": "metadataURI",
          "type": "string"
        }
      ],
      "name": "payToMint",
      "outputs": [
        {
          "internalType": "uint256",
          "name": "",
          "type": "uint256"
        }
      ],
      "stateMutability": "payable",
      "type": "function"
    },
    {
      "inputs": [],
      "name": "renounceOwnership",
      "outputs": [],
      "stateMutability": "nonpayable",
      "type": "function"
    },
    {
      "inputs": [
        {
          "internalType": "address",
          "name": "to",
          "type": "address"
        },
        {
          "internalType": "string",
          "name": "uri",
          "type": "string"
        }
      ],
      "name": "safeMint",
      "outputs": [],
      "stateMutability": "nonpayable",
      "type": "function"
    },
    {
      "inputs": [
        {
          "internalType": "address",
          "name": "from",
          "type": "address"
        },
        {
          "internalType": "address",
          "name": "to",
          "type": "address"
        },
        {
          "internalType": "uint256",
          "name": "tokenId",
          "type": "uint256"
        }
      ],
      "name": "safeTransferFrom",
      "outputs": [],
      "stateMutability": "nonpayable",
      "type": "function"
    },
    {
      "inputs": [
        {
          "internalType": "address",
          "name": "from",
          "type": "address"
        },
        {
          "internalType": "address",
          "name": "to",
          "type": "address"
        },
        {
          "internalType": "uint256",
          "name": "tokenId",
          "type": "uint256"
        },
        {
          "internalType": "bytes",
          "name": "_data",
          "type": "bytes"
        }
      ],
      "name": "safeTransferFrom",
      "outputs": [],
      "stateMutability": "nonpayable",
      "type": "function"
    },
    {
      "inputs": [
        {
          "internalType": "address",
          "name": "operator",
          "type": "address"
        },
        {
          "internalType": "bool",
          "name": "approved",
          "type": "bool"
        }
      ],
      "name": "setApprovalForAll",
      "outputs": [],
      "stateMutability": "nonpayable",
      "type": "function"
    },
    {
      "inputs": [
        {
          "internalType": "bytes4",
          "name": "interfaceId",
          "type": "bytes4"
        }
      ],
      "name": "supportsInterface",
      "outputs": [
        {
          "internalType": "bool",
          "name": "",
          "type": "bool"
        }
      ],
      "stateMutability": "view",
      "type": "function"
    },
    {
      "inputs": [],
      "name": "symbol",
      "outputs": [
        {
          "internalType": "string",
          "name": "",
          "type": "string"
        }
      ],
      "stateMutability": "view",
      "type": "function"
    },
    {
      "inputs": [],
      "name": "tokenCount",
      "outputs": [
        {
          "internalType": "uint256",
          "name": "",
          "type": "uint256"
        }
      ],
      "stateMutability": "view",
      "type": "function"
    },
    {
      "inputs": [
        {
          "internalType": "uint256",
          "name": "tokenId",
          "type": "uint256"
        }
      ],
      "name": "tokenURI",
      "outputs": [
        {
          "internalType": "string",
          "name": "",
          "type": "string"
        }
      ],
      "stateMutability": "view",
      "type": "function"
    },
    {
      "inputs": [
        {
          "internalType": "address",
          "name": "from",
          "type": "address"
        },
        {
          "internalType": "address",
          "name": "to",
          "type": "address"
        },
        {
          "internalType": "uint256",
          "name": "tokenId",
          "type": "uint256"
        }
      ],
      "name": "transferFrom",
      "outputs": [],
      "stateMutability": "nonpayable",
      "type": "function"
    },
    {
      "inputs": [
        {
          "internalType": "address",
          "name": "newOwner",
          "type": "address"
        }
      ],
      "name": "transferOwnership",
      "outputs": [],
      "stateMutability": "nonpayable",
      "type": "function"
    }
  ],
  "bytecode": "0x60806040523480156200001157600080fd5b506040518060400160405280600781526020017f466972654d656e000000000000000000000000000000000000000000000000008152506040518060400160405280600481526020017f4649524500000000000000000000000000000000000000000000000000000000815250816000908051906020019062000096929190620001a6565b508060019080519060200190620000af929190620001a6565b505050620000d2620000c6620000d860201b60201c565b620000e060201b60201c565b620002bb565b600033905090565b6000600760009054906101000a900473ffffffffffffffffffffffffffffffffffffffff16905081600760006101000a81548173ffffffffffffffffffffffffffffffffffffffff021916908373ffffffffffffffffffffffffffffffffffffffff1602179055508173ffffffffffffffffffffffffffffffffffffffff168173ffffffffffffffffffffffffffffffffffffffff167f8be0079c531659141344cd1fd0a4f28419497f9722a3daafe3b4186f6b6457e060405160405180910390a35050565b828054620001b49062000256565b90600052602060002090601f016020900481019282620001d8576000855562000224565b82601f10620001f357805160ff191683800117855562000224565b8280016001018555821562000224579182015b828111156200022357825182559160200191906001019062000206565b5b50905062000233919062000237565b5090565b5b808211156200025257600081600090555060010162000238565b5090565b600060028204905060018216806200026f57607f821691505b602082108114156200028657620002856200028c565b5b50919050565b7f4e487b7100000000000000000000000000000000000000000000000000000000600052602260045260246000fd5b6134a680620002cb6000396000f3fe60806040526004361061011f5760003560e01c80638da5cb5b116100a0578063b88d4fde11610064578063b88d4fde146103ec578063c87b56dd14610415578063d204c45e14610452578063e985e9c51461047b578063f2fde38b146104b85761011f565b80638da5cb5b1461030557806395d89b41146103305780639f181b5e1461035b5780639f1cabc614610386578063a22cb465146103c35761011f565b806342842e0e116100e757806342842e0e1461021b578063615fd9e2146102445780636352211e1461027457806370a08231146102b1578063715018a6146102ee5761011f565b806301ffc9a71461012457806306fdde0314610161578063081812fc1461018c578063095ea7b3146101c957806323b872dd146101f2575b600080fd5b34801561013057600080fd5b5061014b60048036038101906101469190612325565b6104e1565b604051610158919061280f565b60405180910390f35b34801561016d57600080fd5b506101766105c3565b604051610183919061282a565b60405180910390f35b34801561019857600080fd5b506101b360048036038101906101ae91906123b8565b610655565b6040516101c091906127a8565b60405180910390f35b3480156101d557600080fd5b506101f060048036038101906101eb91906122e9565b6106da565b005b3480156101fe57600080fd5b506102196004803603810190610214919061218f565b6107f2565b005b34801561022757600080fd5b50610242600480360381019061023d919061218f565b610852565b005b61025e60048036038101906102599190612295565b610872565b60405161026b9190612acc565b60405180910390f35b34801561028057600080fd5b5061029b600480360381019061029691906123b8565b610994565b6040516102a891906127a8565b60405180910390f35b3480156102bd57600080fd5b506102d860048036038101906102d3919061212a565b610a46565b6040516102e59190612acc565b60405180910390f35b3480156102fa57600080fd5b50610303610afe565b005b34801561031157600080fd5b5061031a610b86565b60405161032791906127a8565b60405180910390f35b34801561033c57600080fd5b50610345610bb0565b604051610352919061282a565b60405180910390f35b34801561036757600080fd5b50610370610c42565b60405161037d9190612acc565b60405180910390f35b34801561039257600080fd5b506103ad60048036038101906103a89190612377565b610c53565b6040516103ba919061280f565b60405180910390f35b3480156103cf57600080fd5b506103ea60048036038101906103e59190612259565b610c8e565b005b3480156103f857600080fd5b50610413600480360381019061040e91906121de565b610ca4565b005b34801561042157600080fd5b5061043c600480360381019061043791906123b8565b610d06565b604051610449919061282a565b60405180910390f35b34801561045e57600080fd5b5061047960048036038101906104749190612295565b610d18565b005b34801561048757600080fd5b506104a2600480360381019061049d9190612153565b610dc5565b6040516104af919061280f565b60405180910390f35b3480156104c457600080fd5b506104df60048036038101906104da919061212a565b610e59565b005b60007f80ac58cd000000000000000000000000000000000000000000000000000000007bffffffffffffffffffffffffffffffffffffffffffffffffffffffff1916827bffffffffffffffffffffffffffffffffffffffffffffffffffffffff191614806105ac57507f5b5e139f000000000000000000000000000000000000000000000000000000007bffffffffffffffffffffffffffffffffffffffffffffffffffffffff1916827bffffffffffffffffffffffffffffffffffffffffffffffffffffffff1916145b806105bc57506105bb82610f51565b5b9050919050565b6060600080546105d290612d22565b80601f01602080910402602001604051908101604052809291908181526020018280546105fe90612d22565b801561064b5780601f106106205761010080835404028352916020019161064b565b820191906000526020600020905b81548152906001019060200180831161062e57829003601f168201915b5050505050905090565b600061066082610fbb565b61069f576040517f08c379a000000000000000000000000000000000000000000000000000000000815260040161069690612a2c565b60405180910390fd5b6004600083815260200190815260200160002060009054906101000a900473ffffffffffffffffffffffffffffffffffffffff169050919050565b60006106e582610994565b90508073ffffffffffffffffffffffffffffffffffffffff168373ffffffffffffffffffffffffffffffffffffffff161415610756576040517f08c379a000000000000000000000000000000000000000000000000000000000815260040161074d90612a8c565b60405180910390fd5b8073ffffffffffffffffffffffffffffffffffffffff16610775611027565b73ffffffffffffffffffffffffffffffffffffffff1614806107a457506107a38161079e611027565b610dc5565b5b6107e3576040517f08c379a00000000000000000000000000000000000000000000000000000000081526004016107da9061296c565b60405180910390fd5b6107ed838361102f565b505050565b6108036107fd611027565b826110e8565b610842576040517f08c379a000000000000000000000000000000000000000000000000000000000815260040161083990612aac565b60405180910390fd5b61084d8383836111c6565b505050565b61086d83838360405180602001604052806000815250610ca4565b505050565b60006001600983604051610886919061276d565b908152602001604051809103902060009054906101000a900460ff1660ff1614156108e6576040517f08c379a00000000000000000000000000000000000000000000000000000000081526004016108dd9061292c565b60405180910390fd5b66b1a2bc2ec50000341015610930576040517f08c379a0000000000000000000000000000000000000000000000000000000008152600401610927906128cc565b60405180910390fd5b600061093c600861142d565b9050610948600861143b565b600160098460405161095a919061276d565b908152602001604051809103902060006101000a81548160ff021916908360ff16021790555061098a8482611451565b8091505092915050565b6000806002600084815260200190815260200160002060009054906101000a900473ffffffffffffffffffffffffffffffffffffffff169050600073ffffffffffffffffffffffffffffffffffffffff168173ffffffffffffffffffffffffffffffffffffffff161415610a3d576040517f08c379a0000000000000000000000000000000000000000000000000000000008152600401610a34906129ac565b60405180910390fd5b80915050919050565b60008073ffffffffffffffffffffffffffffffffffffffff168273ffffffffffffffffffffffffffffffffffffffff161415610ab7576040517f08c379a0000000000000000000000000000000000000000000000000000000008152600401610aae9061298c565b60405180910390fd5b600360008373ffffffffffffffffffffffffffffffffffffffff1673ffffffffffffffffffffffffffffffffffffffff168152602001908152602001600020549050919050565b610b06611027565b73ffffffffffffffffffffffffffffffffffffffff16610b24610b86565b73ffffffffffffffffffffffffffffffffffffffff1614610b7a576040517f08c379a0000000000000000000000000000000000000000000000000000000008152600401610b7190612a4c565b60405180910390fd5b610b84600061162b565b565b6000600760009054906101000a900473ffffffffffffffffffffffffffffffffffffffff16905090565b606060018054610bbf90612d22565b80601f0160208091040260200160405190810160405280929190818152602001828054610beb90612d22565b8015610c385780601f10610c0d57610100808354040283529160200191610c38565b820191906000526020600020905b815481529060010190602001808311610c1b57829003601f168201915b5050505050905090565b6000610c4e600861142d565b905090565b60006001600983604051610c67919061276d565b908152602001604051809103902060009054906101000a900460ff1660ff16149050919050565b610ca0610c99611027565b83836116f1565b5050565b610cb5610caf611027565b836110e8565b610cf4576040517f08c379a0000000000000000000000000000000000000000000000000000000008152600401610ceb90612aac565b60405180910390fd5b610d008484848461185e565b50505050565b6060610d11826118ba565b9050919050565b610d20611027565b73ffffffffffffffffffffffffffffffffffffffff16610d3e610b86565b73ffffffffffffffffffffffffffffffffffffffff1614610d94576040517f08c379a0000000000000000000000000000000000000000000000000000000008152600401610d8b90612a4c565b60405180910390fd5b6000610da0600861142d565b9050610dac600861143b565b610db68382611a0c565b610dc08183611a2a565b505050565b6000600560008473ffffffffffffffffffffffffffffffffffffffff1673ffffffffffffffffffffffffffffffffffffffff16815260200190815260200160002060008373ffffffffffffffffffffffffffffffffffffffff1673ffffffffffffffffffffffffffffffffffffffff16815260200190815260200160002060009054906101000a900460ff16905092915050565b610e61611027565b73ffffffffffffffffffffffffffffffffffffffff16610e7f610b86565b73ffffffffffffffffffffffffffffffffffffffff1614610ed5576040517f08c379a0000000000000000000000000000000000000000000000000000000008152600401610ecc90612a4c565b60405180910390fd5b600073ffffffffffffffffffffffffffffffffffffffff168173ffffffffffffffffffffffffffffffffffffffff161415610f45576040517f08c379a0000000000000000000000000000000000000000000000000000000008152600401610f3c9061286c565b60405180910390fd5b610f4e8161162b565b50565b60007f01ffc9a7000000000000000000000000000000000000000000000000000000007bffffffffffffffffffffffffffffffffffffffffffffffffffffffff1916827bffffffffffffffffffffffffffffffffffffffffffffffffffffffff1916149050919050565b60008073ffffffffffffffffffffffffffffffffffffffff166002600084815260200190815260200160002060009054906101000a900473ffffffffffffffffffffffffffffffffffffffff1673ffffffffffffffffffffffffffffffffffffffff1614159050919050565b600033905090565b816004600083815260200190815260200160002060006101000a81548173ffffffffffffffffffffffffffffffffffffffff021916908373ffffffffffffffffffffffffffffffffffffffff160217905550808273ffffffffffffffffffffffffffffffffffffffff166110a283610994565b73ffffffffffffffffffffffffffffffffffffffff167f8c5be1e5ebec7d5bd14f71427d1e84f3dd0314c0f7b2291e5b200ac8c7c3b92560405160405180910390a45050565b60006110f382610fbb565b611132576040517f08c379a00000000000000000000000000000000000000000000000000000000081526004016111299061294c565b60405180910390fd5b600061113d83610994565b90508073ffffffffffffffffffffffffffffffffffffffff168473ffffffffffffffffffffffffffffffffffffffff1614806111ac57508373ffffffffffffffffffffffffffffffffffffffff1661119484610655565b73ffffffffffffffffffffffffffffffffffffffff16145b806111bd57506111bc8185610dc5565b5b91505092915050565b8273ffffffffffffffffffffffffffffffffffffffff166111e682610994565b73ffffffffffffffffffffffffffffffffffffffff161461123c576040517f08c379a00000000000000000000000000000000000000000000000000000000081526004016112339061288c565b60405180910390fd5b600073ffffffffffffffffffffffffffffffffffffffff168273ffffffffffffffffffffffffffffffffffffffff1614156112ac576040517f08c379a00000000000000000000000000000000000000000000000000000000081526004016112a3906128ec565b60405180910390fd5b6112b7838383611a9e565b6112c260008261102f565b6001600360008573ffffffffffffffffffffffffffffffffffffffff1673ffffffffffffffffffffffffffffffffffffffff16815260200190815260200160002060008282546113129190612c38565b925050819055506001600360008473ffffffffffffffffffffffffffffffffffffffff1673ffffffffffffffffffffffffffffffffffffffff16815260200190815260200160002060008282546113699190612bb1565b92505081905550816002600083815260200190815260200160002060006101000a81548173ffffffffffffffffffffffffffffffffffffffff021916908373ffffffffffffffffffffffffffffffffffffffff160217905550808273ffffffffffffffffffffffffffffffffffffffff168473ffffffffffffffffffffffffffffffffffffffff167fddf252ad1be2c89b69c2b068fc378daa952ba7f163c4a11628f55a4df523b3ef60405160405180910390a4611428838383611aa3565b505050565b600081600001549050919050565b6001816000016000828254019250508190555050565b600073ffffffffffffffffffffffffffffffffffffffff168273ffffffffffffffffffffffffffffffffffffffff1614156114c1576040517f08c379a00000000000000000000000000000000000000000000000000000000081526004016114b8906129ec565b60405180910390fd5b6114ca81610fbb565b1561150a576040517f08c379a0000000000000000000000000000000000000000000000000000000008152600401611501906128ac565b60405180910390fd5b61151660008383611a9e565b6001600360008473ffffffffffffffffffffffffffffffffffffffff1673ffffffffffffffffffffffffffffffffffffffff16815260200190815260200160002060008282546115669190612bb1565b92505081905550816002600083815260200190815260200160002060006101000a81548173ffffffffffffffffffffffffffffffffffffffff021916908373ffffffffffffffffffffffffffffffffffffffff160217905550808273ffffffffffffffffffffffffffffffffffffffff16600073ffffffffffffffffffffffffffffffffffffffff167fddf252ad1be2c89b69c2b068fc378daa952ba7f163c4a11628f55a4df523b3ef60405160405180910390a461162760008383611aa3565b5050565b6000600760009054906101000a900473ffffffffffffffffffffffffffffffffffffffff16905081600760006101000a81548173ffffffffffffffffffffffffffffffffffffffff021916908373ffffffffffffffffffffffffffffffffffffffff1602179055508173ffffffffffffffffffffffffffffffffffffffff168173ffffffffffffffffffffffffffffffffffffffff167f8be0079c531659141344cd1fd0a4f28419497f9722a3daafe3b4186f6b6457e060405160405180910390a35050565b8173ffffffffffffffffffffffffffffffffffffffff168373ffffffffffffffffffffffffffffffffffffffff161415611760576040517f08c379a00000000000000000000000000000000000000000000000000000000081526004016117579061290c565b60405180910390fd5b80600560008573ffffffffffffffffffffffffffffffffffffffff1673ffffffffffffffffffffffffffffffffffffffff16815260200190815260200160002060008473ffffffffffffffffffffffffffffffffffffffff1673ffffffffffffffffffffffffffffffffffffffff16815260200190815260200160002060006101000a81548160ff0219169083151502179055508173ffffffffffffffffffffffffffffffffffffffff168373ffffffffffffffffffffffffffffffffffffffff167f17307eab39ab6107e8899845ad3d59bd9653f200f220920489ca2b5937696c3183604051611851919061280f565b60405180910390a3505050565b6118698484846111c6565b61187584848484611aa8565b6118b4576040517f08c379a00000000000000000000000000000000000000000000000000000000081526004016118ab9061284c565b60405180910390fd5b50505050565b60606118c582610fbb565b611904576040517f08c379a00000000000000000000000000000000000000000000000000000000081526004016118fb90612a0c565b60405180910390fd5b600060066000848152602001908152602001600020805461192490612d22565b80601f016020809104026020016040519081016040528092919081815260200182805461195090612d22565b801561199d5780601f106119725761010080835404028352916020019161199d565b820191906000526020600020905b81548152906001019060200180831161198057829003601f168201915b5050505050905060006119ae611c3f565b90506000815114156119c4578192505050611a07565b6000825111156119f95780826040516020016119e1929190612784565b60405160208183030381529060405292505050611a07565b611a0284611c7c565b925050505b919050565b611a26828260405180602001604052806000815250611d23565b5050565b611a3382610fbb565b611a72576040517f08c379a0000000000000000000000000000000000000000000000000000000008152600401611a69906129cc565b60405180910390fd5b80600660008481526020019081526020016000209080519060200190611a99929190611f4e565b505050565b505050565b505050565b6000611ac98473ffffffffffffffffffffffffffffffffffffffff16611d7e565b15611c32578373ffffffffffffffffffffffffffffffffffffffff1663150b7a02611af2611027565b8786866040518563ffffffff1660e01b8152600401611b1494939291906127c3565b602060405180830381600087803b158015611b2e57600080fd5b505af1925050508015611b5f57506040513d601f19601f82011682018060405250810190611b5c919061234e565b60015b611be2573d8060008114611b8f576040519150601f19603f3d011682016040523d82523d6000602084013e611b94565b606091505b50600081511415611bda576040517f08c379a0000000000000000000000000000000000000000000000000000000008152600401611bd19061284c565b60405180910390fd5b805181602001fd5b63150b7a0260e01b7bffffffffffffffffffffffffffffffffffffffffffffffffffffffff1916817bffffffffffffffffffffffffffffffffffffffffffffffffffffffff191614915050611c37565b600190505b949350505050565b60606040518060400160405280600781526020017f697066733a2f2f00000000000000000000000000000000000000000000000000815250905090565b6060611c8782610fbb565b611cc6576040517f08c379a0000000000000000000000000000000000000000000000000000000008152600401611cbd90612a6c565b60405180910390fd5b6000611cd0611c3f565b90506000815111611cf05760405180602001604052806000815250611d1b565b80611cfa84611da1565b604051602001611d0b929190612784565b6040516020818303038152906040525b915050919050565b611d2d8383611451565b611d3a6000848484611aa8565b611d79576040517f08c379a0000000000000000000000000000000000000000000000000000000008152600401611d709061284c565b60405180910390fd5b505050565b6000808273ffffffffffffffffffffffffffffffffffffffff163b119050919050565b60606000821415611de9576040518060400160405280600181526020017f30000000000000000000000000000000000000000000000000000000000000008152509050611f49565b600082905060005b60008214611e1b578080611e0490612d85565b915050600a82611e149190612c07565b9150611df1565b60008167ffffffffffffffff811115611e5d577f4e487b7100000000000000000000000000000000000000000000000000000000600052604160045260246000fd5b6040519080825280601f01601f191660200182016040528015611e8f5781602001600182028036833780820191505090505b5090505b60008514611f4257600182611ea89190612c38565b9150600a85611eb79190612dce565b6030611ec39190612bb1565b60f81b818381518110611eff577f4e487b7100000000000000000000000000000000000000000000000000000000600052603260045260246000fd5b60200101907effffffffffffffffffffffffffffffffffffffffffffffffffffffffffffff1916908160001a905350600a85611f3b9190612c07565b9450611e93565b8093505050505b919050565b828054611f5a90612d22565b90600052602060002090601f016020900481019282611f7c5760008555611fc3565b82601f10611f9557805160ff1916838001178555611fc3565b82800160010185558215611fc3579182015b82811115611fc2578251825591602001919060010190611fa7565b5b509050611fd09190611fd4565b5090565b5b80821115611fed576000816000905550600101611fd5565b5090565b6000612004611fff84612b0c565b612ae7565b90508281526020810184848401111561201c57600080fd5b612027848285612ce0565b509392505050565b600061204261203d84612b3d565b612ae7565b90508281526020810184848401111561205a57600080fd5b612065848285612ce0565b509392505050565b60008135905061207c81613414565b92915050565b6000813590506120918161342b565b92915050565b6000813590506120a681613442565b92915050565b6000815190506120bb81613442565b92915050565b600082601f8301126120d257600080fd5b81356120e2848260208601611ff1565b91505092915050565b600082601f8301126120fc57600080fd5b813561210c84826020860161202f565b91505092915050565b60008135905061212481613459565b92915050565b60006020828403121561213c57600080fd5b600061214a8482850161206d565b91505092915050565b6000806040838503121561216657600080fd5b60006121748582860161206d565b92505060206121858582860161206d565b9150509250929050565b6000806000606084860312156121a457600080fd5b60006121b28682870161206d565b93505060206121c38682870161206d565b92505060406121d486828701612115565b9150509250925092565b600080600080608085870312156121f457600080fd5b60006122028782880161206d565b94505060206122138782880161206d565b935050604061222487828801612115565b925050606085013567ffffffffffffffff81111561224157600080fd5b61224d878288016120c1565b91505092959194509250565b6000806040838503121561226c57600080fd5b600061227a8582860161206d565b925050602061228b85828601612082565b9150509250929050565b600080604083850312156122a857600080fd5b60006122b68582860161206d565b925050602083013567ffffffffffffffff8111156122d357600080fd5b6122df858286016120eb565b9150509250929050565b600080604083850312156122fc57600080fd5b600061230a8582860161206d565b925050602061231b85828601612115565b9150509250929050565b60006020828403121561233757600080fd5b600061234584828501612097565b91505092915050565b60006020828403121561236057600080fd5b600061236e848285016120ac565b91505092915050565b60006020828403121561238957600080fd5b600082013567ffffffffffffffff8111156123a357600080fd5b6123af848285016120eb565b91505092915050565b6000602082840312156123ca57600080fd5b60006123d884828501612115565b91505092915050565b6123ea81612c6c565b82525050565b6123f981612c7e565b82525050565b600061240a82612b6e565b6124148185612b84565b9350612424818560208601612cef565b61242d81612ebb565b840191505092915050565b600061244382612b79565b61244d8185612b95565b935061245d818560208601612cef565b61246681612ebb565b840191505092915050565b600061247c82612b79565b6124868185612ba6565b9350612496818560208601612cef565b80840191505092915050565b60006124af603283612b95565b91506124ba82612ecc565b604082019050919050565b60006124d2602683612b95565b91506124dd82612f1b565b604082019050919050565b60006124f5602583612b95565b915061250082612f6a565b604082019050919050565b6000612518601c83612b95565b915061252382612fb9565b602082019050919050565b600061253b601783612b95565b915061254682612fe2565b602082019050919050565b600061255e602483612b95565b91506125698261300b565b604082019050919050565b6000612581601983612b95565b915061258c8261305a565b602082019050919050565b60006125a4601583612b95565b91506125af82613083565b602082019050919050565b60006125c7602c83612b95565b91506125d2826130ac565b604082019050919050565b60006125ea603883612b95565b91506125f5826130fb565b604082019050919050565b600061260d602a83612b95565b91506126188261314a565b604082019050919050565b6000612630602983612b95565b915061263b82613199565b604082019050919050565b6000612653602e83612b95565b915061265e826131e8565b604082019050919050565b6000612676602083612b95565b915061268182613237565b602082019050919050565b6000612699603183612b95565b91506126a482613260565b604082019050919050565b60006126bc602c83612b95565b91506126c7826132af565b604082019050919050565b60006126df602083612b95565b91506126ea826132fe565b602082019050919050565b6000612702602f83612b95565b915061270d82613327565b604082019050919050565b6000612725602183612b95565b915061273082613376565b604082019050919050565b6000612748603183612b95565b9150612753826133c5565b604082019050919050565b61276781612cd6565b82525050565b60006127798284612471565b915081905092915050565b60006127908285612471565b915061279c8284612471565b91508190509392505050565b60006020820190506127bd60008301846123e1565b92915050565b60006080820190506127d860008301876123e1565b6127e560208301866123e1565b6127f2604083018561275e565b818103606083015261280481846123ff565b905095945050505050565b600060208201905061282460008301846123f0565b92915050565b600060208201905081810360008301526128448184612438565b905092915050565b60006020820190508181036000830152612865816124a2565b9050919050565b60006020820190508181036000830152612885816124c5565b9050919050565b600060208201905081810360008301526128a5816124e8565b9050919050565b600060208201905081810360008301526128c58161250b565b9050919050565b600060208201905081810360008301526128e58161252e565b9050919050565b6000602082019050818103600083015261290581612551565b9050919050565b6000602082019050818103600083015261292581612574565b9050919050565b6000602082019050818103600083015261294581612597565b9050919050565b60006020820190508181036000830152612965816125ba565b9050919050565b60006020820190508181036000830152612985816125dd565b9050919050565b600060208201905081810360008301526129a581612600565b9050919050565b600060208201905081810360008301526129c581612623565b9050919050565b600060208201905081810360008301526129e581612646565b9050919050565b60006020820190508181036000830152612a0581612669565b9050919050565b60006020820190508181036000830152612a258161268c565b9050919050565b60006020820190508181036000830152612a45816126af565b9050919050565b60006020820190508181036000830152612a65816126d2565b9050919050565b60006020820190508181036000830152612a85816126f5565b9050919050565b60006020820190508181036000830152612aa581612718565b9050919050565b60006020820190508181036000830152612ac58161273b565b9050919050565b6000602082019050612ae1600083018461275e565b92915050565b6000612af1612b02565b9050612afd8282612d54565b919050565b6000604051905090565b600067ffffffffffffffff821115612b2757612b26612e8c565b5b612b3082612ebb565b9050602081019050919050565b600067ffffffffffffffff821115612b5857612b57612e8c565b5b612b6182612ebb565b9050602081019050919050565b600081519050919050565b600081519050919050565b600082825260208201905092915050565b600082825260208201905092915050565b600081905092915050565b6000612bbc82612cd6565b9150612bc783612cd6565b9250827fffffffffffffffffffffffffffffffffffffffffffffffffffffffffffffffff03821115612bfc57612bfb612dff565b5b828201905092915050565b6000612c1282612cd6565b9150612c1d83612cd6565b925082612c2d57612c2c612e2e565b5b828204905092915050565b6000612c4382612cd6565b9150612c4e83612cd6565b925082821015612c6157612c60612dff565b5b828203905092915050565b6000612c7782612cb6565b9050919050565b60008115159050919050565b60007fffffffff0000000000000000000000000000000000000000000000000000000082169050919050565b600073ffffffffffffffffffffffffffffffffffffffff82169050919050565b6000819050919050565b82818337600083830152505050565b60005b83811015612d0d578082015181840152602081019050612cf2565b83811115612d1c576000848401525b50505050565b60006002820490506001821680612d3a57607f821691505b60208210811415612d4e57612d4d612e5d565b5b50919050565b612d5d82612ebb565b810181811067ffffffffffffffff82111715612d7c57612d7b612e8c565b5b80604052505050565b6000612d9082612cd6565b91507fffffffffffffffffffffffffffffffffffffffffffffffffffffffffffffffff821415612dc357612dc2612dff565b5b600182019050919050565b6000612dd982612cd6565b9150612de483612cd6565b925082612df457612df3612e2e565b5b828206905092915050565b7f4e487b7100000000000000000000000000000000000000000000000000000000600052601160045260246000fd5b7f4e487b7100000000000000000000000000000000000000000000000000000000600052601260045260246000fd5b7f4e487b7100000000000000000000000000000000000000000000000000000000600052602260045260246000fd5b7f4e487b7100000000000000000000000000000000000000000000000000000000600052604160045260246000fd5b6000601f19601f8301169050919050565b7f4552433732313a207472616e7366657220746f206e6f6e20455243373231526560008201527f63656976657220696d706c656d656e7465720000000000000000000000000000602082015250565b7f4f776e61626c653a206e6577206f776e657220697320746865207a65726f206160008201527f6464726573730000000000000000000000000000000000000000000000000000602082015250565b7f4552433732313a207472616e736665722066726f6d20696e636f72726563742060008201527f6f776e6572000000000000000000000000000000000000000000000000000000602082015250565b7f4552433732313a20746f6b656e20616c7265616479206d696e74656400000000600082015250565b7f5061792075702c2062697463682120302e303520455448000000000000000000600082015250565b7f4552433732313a207472616e7366657220746f20746865207a65726f2061646460008201527f7265737300000000000000000000000000000000000000000000000000000000602082015250565b7f4552433732313a20617070726f766520746f2063616c6c657200000000000000600082015250565b7f4e465420616c7265616479206d696e746564203b280000000000000000000000600082015250565b7f4552433732313a206f70657261746f7220717565727920666f72206e6f6e657860008201527f697374656e7420746f6b656e0000000000000000000000000000000000000000602082015250565b7f4552433732313a20617070726f76652063616c6c6572206973206e6f74206f7760008201527f6e6572206e6f7220617070726f76656420666f7220616c6c0000000000000000602082015250565b7f4552433732313a2062616c616e636520717565727920666f7220746865207a6560008201527f726f206164647265737300000000000000000000000000000000000000000000602082015250565b7f4552433732313a206f776e657220717565727920666f72206e6f6e657869737460008201527f656e7420746f6b656e0000000000000000000000000000000000000000000000602082015250565b7f45524337323155524953746f726167653a2055524920736574206f66206e6f6e60008201527f6578697374656e7420746f6b656e000000000000000000000000000000000000602082015250565b7f4552433732313a206d696e7420746f20746865207a65726f2061646472657373600082015250565b7f45524337323155524953746f726167653a2055524920717565727920666f722060008201527f6e6f6e6578697374656e7420746f6b656e000000000000000000000000000000602082015250565b7f4552433732313a20617070726f76656420717565727920666f72206e6f6e657860008201527f697374656e7420746f6b656e0000000000000000000000000000000000000000602082015250565b7f4f776e61626c653a2063616c6c6572206973206e6f7420746865206f776e6572600082015250565b7f4552433732314d657461646174613a2055524920717565727920666f72206e6f60008201527f6e6578697374656e7420746f6b656e0000000000000000000000000000000000602082015250565b7f4552433732313a20617070726f76616c20746f2063757272656e74206f776e6560008201527f7200000000000000000000000000000000000000000000000000000000000000602082015250565b7f4552433732313a207472616e736665722063616c6c6572206973206e6f74206f60008201527f776e6572206e6f7220617070726f766564000000000000000000000000000000602082015250565b61341d81612c6c565b811461342857600080fd5b50565b61343481612c7e565b811461343f57600080fd5b50565b61344b81612c8a565b811461345657600080fd5b50565b61346281612cd6565b811461346d57600080fd5b5056fea2646970667358221220b3d13a3809cd0eb0dba1fc0e37d33177723b5a57bb21fb34b89d79dcc6bdf22264736f6c63430008040033",
  "linkReferences": {},
  "deployedLinkReferences": {}
}