{
  "_format": "hh-sol-artifact-1",
  "contractName": "NFTMarket",
  "sourceName": "contracts/NFTMarket.sol",
  "abi": [
    {
      "inputs": [],
      "stateMutability": "nonpayable",
      "type": "constructor"
    },
    {
      "anonymous": false,
      "inputs": [
        {
          "indexed": true,
          "internalType": "address",
          "name": "owner",
          "type": "address"
        },
        {
          "indexed": true,
          "internalType": "address",
          "name": "approved",
          "type": "address"
        },
        {
          "indexed": true,
          "internalType": "uint256",
          "name": "tokenId",
          "type": "uint256"
        }
      ],
      "name": "Approval",
      "type": "event"
    },
    {
      "anonymous": false,
      "inputs": [
        {
          "indexed": true,
          "internalType": "address",
          "name": "owner",
          "type": "address"
        },
        {
          "indexed": true,
          "internalType": "address",
          "name": "operator",
          "type": "address"
        },
        {
          "indexed": false,
          "internalType": "bool",
          "name": "approved",
          "type": "bool"
        }
      ],
      "name": "ApprovalForAll",
      "type": "event"
    },
    {
      "anonymous": false,
      "inputs": [
        {
          "indexed": true,
          "internalType": "uint256",
          "name": "itemId",
          "type": "uint256"
        },
        {
          "indexed": true,
          "internalType": "address",
          "name": "nftContract",
          "type": "address"
        },
        {
          "indexed": true,
          "internalType": "uint256",
          "name": "tokenId",
          "type": "uint256"
        },
        {
          "indexed": false,
          "internalType": "address payable",
          "name": "seller",
          "type": "address"
        },
        {
          "indexed": false,
          "internalType": "address payable",
          "name": "owner",
          "type": "address"
        },
        {
          "indexed": false,
          "internalType": "uint256",
          "name": "price",
          "type": "uint256"
        },
        {
          "indexed": false,
          "internalType": "bool",
          "name": "sold",
          "type": "bool"
        }
      ],
      "name": "MarketItemCreated",
      "type": "event"
    },
    {
      "anonymous": false,
      "inputs": [
        {
          "indexed": true,
          "internalType": "address",
          "name": "from",
          "type": "address"
        },
        {
          "indexed": true,
          "internalType": "address",
          "name": "to",
          "type": "address"
        },
        {
          "indexed": true,
          "internalType": "uint256",
          "name": "tokenId",
          "type": "uint256"
        }
      ],
      "name": "Transfer",
      "type": "event"
    },
    {
      "inputs": [
        {
          "internalType": "address",
          "name": "to",
          "type": "address"
        },
        {
          "internalType": "uint256",
          "name": "tokenId",
          "type": "uint256"
        }
      ],
      "name": "approve",
      "outputs": [],
      "stateMutability": "nonpayable",
      "type": "function"
    },
    {
      "inputs": [
        {
          "internalType": "address",
          "name": "owner",
          "type": "address"
        }
      ],
      "name": "balanceOf",
      "outputs": [
        {
          "internalType": "uint256",
          "name": "",
          "type": "uint256"
        }
      ],
      "stateMutability": "view",
      "type": "function"
    },
    {
      "inputs": [
        {
          "internalType": "address",
          "name": "nftContract",
          "type": "address"
        },
        {
          "internalType": "uint256",
          "name": "tokenId",
          "type": "uint256"
        },
        {
          "internalType": "uint256",
          "name": "price",
          "type": "uint256"
        }
      ],
      "name": "createMarketItem",
      "outputs": [],
      "stateMutability": "payable",
      "type": "function"
    },
    {
      "inputs": [],
      "name": "fetchMarketItems",
      "outputs": [
        {
          "components": [
            {
              "internalType": "uint256",
              "name": "itemId",
              "type": "uint256"
            },
            {
              "internalType": "address",
              "name": "nftContract",
              "type": "address"
            },
            {
              "internalType": "uint256",
              "name": "tokenId",
              "type": "uint256"
            },
            {
              "internalType": "address payable",
              "name": "seller",
              "type": "address"
            },
            {
              "internalType": "address payable",
              "name": "owner",
              "type": "address"
            },
            {
              "internalType": "uint256",
              "name": "price",
              "type": "uint256"
            },
            {
              "internalType": "bool",
              "name": "sold",
              "type": "bool"
            }
          ],
          "internalType": "struct NFTMarket.MarketItem[]",
          "name": "",
          "type": "tuple[]"
        }
      ],
      "stateMutability": "view",
      "type": "function"
    },
    {
      "inputs": [],
      "name": "fetchMyItems",
      "outputs": [
        {
          "components": [
            {
              "internalType": "uint256",
              "name": "itemId",
              "type": "uint256"
            },
            {
              "internalType": "address",
              "name": "nftContract",
              "type": "address"
            },
            {
              "internalType": "uint256",
              "name": "tokenId",
              "type": "uint256"
            },
            {
              "internalType": "address payable",
              "name": "seller",
              "type": "address"
            },
            {
              "internalType": "address payable",
              "name": "owner",
              "type": "address"
            },
            {
              "internalType": "uint256",
              "name": "price",
              "type": "uint256"
            },
            {
              "internalType": "bool",
              "name": "sold",
              "type": "bool"
            }
          ],
          "internalType": "struct NFTMarket.MarketItem[]",
          "name": "",
          "type": "tuple[]"
        }
      ],
      "stateMutability": "view",
      "type": "function"
    },
    {
      "inputs": [],
      "name": "fetchMyTokens",
      "outputs": [
        {
          "components": [
            {
              "internalType": "uint256",
              "name": "itemId",
              "type": "uint256"
            },
            {
              "internalType": "address",
              "name": "nftContract",
              "type": "address"
            },
            {
              "internalType": "uint256",
              "name": "tokenId",
              "type": "uint256"
            },
            {
              "internalType": "address payable",
              "name": "seller",
              "type": "address"
            },
            {
              "internalType": "address payable",
              "name": "owner",
              "type": "address"
            },
            {
              "internalType": "uint256",
              "name": "price",
              "type": "uint256"
            },
            {
              "internalType": "bool",
              "name": "sold",
              "type": "bool"
            }
          ],
          "internalType": "struct NFTMarket.MarketItem[]",
          "name": "",
          "type": "tuple[]"
        }
      ],
      "stateMutability": "view",
      "type": "function"
    },
    {
      "inputs": [
        {
          "internalType": "uint256",
          "name": "tokenId",
          "type": "uint256"
        }
      ],
      "name": "getApproved",
      "outputs": [
        {
          "internalType": "address",
          "name": "",
          "type": "address"
        }
      ],
      "stateMutability": "view",
      "type": "function"
    },
    {
      "inputs": [
        {
          "internalType": "uint256",
          "name": "tokenId",
          "type": "uint256"
        }
      ],
      "name": "getItemId",
      "outputs": [
        {
          "internalType": "uint256",
          "name": "",
          "type": "uint256"
        }
      ],
      "stateMutability": "view",
      "type": "function"
    },
    {
      "inputs": [],
      "name": "getItemsForSale",
      "outputs": [
        {
          "internalType": "uint256",
          "name": "",
          "type": "uint256"
        }
      ],
      "stateMutability": "view",
      "type": "function"
    },
    {
      "inputs": [],
      "name": "getItemsSold",
      "outputs": [
        {
          "internalType": "uint256",
          "name": "",
          "type": "uint256"
        }
      ],
      "stateMutability": "view",
      "type": "function"
    },
    {
      "inputs": [
        {
          "internalType": "address",
          "name": "owner",
          "type": "address"
        },
        {
          "internalType": "address",
          "name": "operator",
          "type": "address"
        }
      ],
      "name": "isApprovedForAll",
      "outputs": [
        {
          "internalType": "bool",
          "name": "",
          "type": "bool"
        }
      ],
      "stateMutability": "view",
      "type": "function"
    },
    {
      "inputs": [],
      "name": "name",
      "outputs": [
        {
          "internalType": "string",
          "name": "",
          "type": "string"
        }
      ],
      "stateMutability": "view",
      "type": "function"
    },
    {
      "inputs": [
        {
          "internalType": "uint256",
          "name": "tokenId",
          "type": "uint256"
        }
      ],
      "name": "ownerOf",
      "outputs": [
        {
          "internalType": "address",
          "name": "",
          "type": "address"
        }
      ],
      "stateMutability": "view",
      "type": "function"
    },
    {
      "inputs": [
        {
          "internalType": "address",
          "name": "nftContract",
          "type": "address"
        },
        {
          "internalType": "uint256",
          "name": "itemId",
          "type": "uint256"
        }
      ],
      "name": "purchaseMarketItem",
      "outputs": [],
      "stateMutability": "payable",
      "type": "function"
    },
    {
      "inputs": [
        {
          "internalType": "uint256",
          "name": "tokenId",
          "type": "uint256"
        }
      ],
      "name": "removeMarketItem",
      "outputs": [],
      "stateMutability": "nonpayable",
      "type": "function"
    },
    {
      "inputs": [
        {
          "internalType": "address",
          "name": "from",
          "type": "address"
        },
        {
          "internalType": "address",
          "name": "to",
          "type": "address"
        },
        {
          "internalType": "uint256",
          "name": "tokenId",
          "type": "uint256"
        }
      ],
      "name": "safeTransferFrom",
      "outputs": [],
      "stateMutability": "nonpayable",
      "type": "function"
    },
    {
      "inputs": [
        {
          "internalType": "address",
          "name": "from",
          "type": "address"
        },
        {
          "internalType": "address",
          "name": "to",
          "type": "address"
        },
        {
          "internalType": "uint256",
          "name": "tokenId",
          "type": "uint256"
        },
        {
          "internalType": "bytes",
          "name": "_data",
          "type": "bytes"
        }
      ],
      "name": "safeTransferFrom",
      "outputs": [],
      "stateMutability": "nonpayable",
      "type": "function"
    },
    {
      "inputs": [
        {
          "internalType": "address",
          "name": "operator",
          "type": "address"
        },
        {
          "internalType": "bool",
          "name": "approved",
          "type": "bool"
        }
      ],
      "name": "setApprovalForAll",
      "outputs": [],
      "stateMutability": "nonpayable",
      "type": "function"
    },
    {
      "inputs": [
        {
          "internalType": "bytes4",
          "name": "interfaceId",
          "type": "bytes4"
        }
      ],
      "name": "supportsInterface",
      "outputs": [
        {
          "internalType": "bool",
          "name": "",
          "type": "bool"
        }
      ],
      "stateMutability": "view",
      "type": "function"
    },
    {
      "inputs": [],
      "name": "symbol",
      "outputs": [
        {
          "internalType": "string",
          "name": "",
          "type": "string"
        }
      ],
      "stateMutability": "view",
      "type": "function"
    },
    {
      "inputs": [
        {
          "internalType": "uint256",
          "name": "tokenId",
          "type": "uint256"
        }
      ],
      "name": "tokenURI",
      "outputs": [
        {
          "internalType": "string",
          "name": "",
          "type": "string"
        }
      ],
      "stateMutability": "view",
      "type": "function"
    },
    {
      "inputs": [
        {
          "internalType": "address",
          "name": "from",
          "type": "address"
        },
        {
          "internalType": "address",
          "name": "to",
          "type": "address"
        },
        {
          "internalType": "uint256",
          "name": "tokenId",
          "type": "uint256"
        }
      ],
      "name": "transferFrom",
      "outputs": [],
      "stateMutability": "nonpayable",
      "type": "function"
    },
    {
      "inputs": [
        {
          "internalType": "uint256",
          "name": "newCommissionFee",
          "type": "uint256"
        }
      ],
      "name": "updateCommissionFee",
      "outputs": [],
      "stateMutability": "payable",
      "type": "function"
    },
    {
      "inputs": [
        {
          "internalType": "uint256",
          "name": "newListingFee",
          "type": "uint256"
        }
      ],
      "name": "updateListingFee",
      "outputs": [],
      "stateMutability": "payable",
      "type": "function"
    }
  ],
  "bytecode": "0x60806040526000600b556005600c553480156200001b57600080fd5b506040518060400160405280601381526020017f466972656d656e204d61726b6574706c616365000000000000000000000000008152506040518060400160405280600581526020017f464d4152540000000000000000000000000000000000000000000000000000008152508160009080519060200190620000a09291906200010b565b508060019080519060200190620000b99291906200010b565b505050600160068190555033600a60006101000a81548173ffffffffffffffffffffffffffffffffffffffff021916908373ffffffffffffffffffffffffffffffffffffffff16021790555062000220565b8280546200011990620001bb565b90600052602060002090601f0160209004810192826200013d576000855562000189565b82601f106200015857805160ff191683800117855562000189565b8280016001018555821562000189579182015b82811115620001885782518255916020019190600101906200016b565b5b5090506200019891906200019c565b5090565b5b80821115620001b75760008160009055506001016200019d565b5090565b60006002820490506001821680620001d457607f821691505b60208210811415620001eb57620001ea620001f1565b5b50919050565b7f4e487b7100000000000000000000000000000000000000000000000000000000600052602260045260246000fd5b61487180620002306000396000f3fe60806040526004361061014b5760003560e01c806370a08231116100b6578063c4b151411161006f578063c4b1514114610486578063c87b56dd146104b1578063dcabb483146104ee578063e985e9c514610519578063f79d91ae14610556578063fc856edd146105725761014b565b806370a08231146103665780637fb770cb146103a357806395d89b41146103cc578063a22cb465146103f7578063a9a76ece14610420578063b88d4fde1461045d5761014b565b806315c9ae101161010857806315c9ae101461027457806323b872dd1461029f57806342842e0e146102c857806358eb2df5146102f15780636352211e1461030d57806364edc20f1461034a5761014b565b806301ffc9a714610150578063064ddd041461018d57806306fdde03146101b8578063081812fc146101e3578063095ea7b3146102205780630f08efe014610249575b600080fd5b34801561015c57600080fd5b50610177600480360381019061017291906133d4565b61058e565b6040516101849190613a53565b60405180910390f35b34801561019957600080fd5b506101a2610670565b6040516101af9190613d8c565b60405180910390f35b3480156101c457600080fd5b506101cd610681565b6040516101da9190613a6e565b60405180910390f35b3480156101ef57600080fd5b5061020a60048036038101906102059190613426565b610713565b604051610217919061394e565b60405180910390f35b34801561022c57600080fd5b5061024760048036038101906102429190613349565b610798565b005b34801561025557600080fd5b5061025e6108b0565b60405161026b9190613a31565b60405180910390f35b34801561028057600080fd5b50610289610c21565b6040516102969190613a31565b60405180910390f35b3480156102ab57600080fd5b506102c660048036038101906102c19190613243565b610f97565b005b3480156102d457600080fd5b506102ef60048036038101906102ea9190613243565b610ff7565b005b61030b60048036038101906103069190613385565b611017565b005b34801561031957600080fd5b50610334600480360381019061032f9190613426565b61144a565b604051610341919061394e565b60405180910390f35b610364600480360381019061035f9190613426565b6114fc565b005b34801561037257600080fd5b5061038d600480360381019061038891906131de565b6115a2565b60405161039a9190613d8c565b60405180910390f35b3480156103af57600080fd5b506103ca60048036038101906103c59190613426565b61165a565b005b3480156103d857600080fd5b506103e1611af4565b6040516103ee9190613a6e565b60405180910390f35b34801561040357600080fd5b5061041e6004803603810190610419919061330d565b611b86565b005b34801561042c57600080fd5b5061044760048036038101906104429190613426565b611b9c565b6040516104549190613d8c565b60405180910390f35b34801561046957600080fd5b50610484600480360381019061047f9190613292565b611bb9565b005b34801561049257600080fd5b5061049b611c1b565b6040516104a89190613d8c565b60405180910390f35b3480156104bd57600080fd5b506104d860048036038101906104d39190613426565b611c2c565b6040516104e59190613a6e565b60405180910390f35b3480156104fa57600080fd5b50610503611cd3565b6040516105109190613a31565b60405180910390f35b34801561052557600080fd5b50610540600480360381019061053b9190613207565b61205f565b60405161054d9190613a53565b60405180910390f35b610570600480360381019061056b9190613426565b6120f3565b005b61058c60048036038101906105879190613349565b61218d565b005b60007f80ac58cd000000000000000000000000000000000000000000000000000000007bffffffffffffffffffffffffffffffffffffffffffffffffffffffff1916827bffffffffffffffffffffffffffffffffffffffffffffffffffffffff1916148061065957507f5b5e139f000000000000000000000000000000000000000000000000000000007bffffffffffffffffffffffffffffffffffffffffffffffffffffffff1916827bffffffffffffffffffffffffffffffffffffffffffffffffffffffff1916145b80610669575061066882612478565b5b9050919050565b600061067c60096124e2565b905090565b60606000805461069090614056565b80601f01602080910402602001604051908101604052809291908181526020018280546106bc90614056565b80156107095780601f106106de57610100808354040283529160200191610709565b820191906000526020600020905b8154815290600101906020018083116106ec57829003601f168201915b5050505050905090565b600061071e826124f0565b61075d576040517f08c379a000000000000000000000000000000000000000000000000000000000815260040161075490613c8c565b60405180910390fd5b6004600083815260200190815260200160002060009054906101000a900473ffffffffffffffffffffffffffffffffffffffff169050919050565b60006107a38261144a565b90508073ffffffffffffffffffffffffffffffffffffffff168373ffffffffffffffffffffffffffffffffffffffff161415610814576040517f08c379a000000000000000000000000000000000000000000000000000000000815260040161080b90613cec565b60405180910390fd5b8073ffffffffffffffffffffffffffffffffffffffff1661083361255c565b73ffffffffffffffffffffffffffffffffffffffff16148061086257506108618161085c61255c565b61205f565b5b6108a1576040517f08c379a000000000000000000000000000000000000000000000000000000000815260040161089890613c0c565b60405180910390fd5b6108ab8383612564565b505050565b606060006108be60076124e2565b905060006108cc60096124e2565b905061090d6040518060400160405280601081526020017f6974656d73466f7253616c653a202573000000000000000000000000000000008152508261261d565b6000808267ffffffffffffffff811115610950577f4e487b7100000000000000000000000000000000000000000000000000000000600052604160045260246000fd5b60405190808252806020026020018201604052801561098957816020015b61097661308c565b81526020019060019003908161096e5790505b50905060005b84811015610c16573073ffffffffffffffffffffffffffffffffffffffff16600e600083815260200190815260200160002060040160009054906101000a900473ffffffffffffffffffffffffffffffffffffffff1673ffffffffffffffffffffffffffffffffffffffff16148015610a2f575060001515600e600083815260200190815260200160002060060160009054906101000a900460ff161515145b15610c03576000600e60008381526020019081526020016000206000015490506000600e60008381526020019081526020016000209050806040518060e0016040529081600082015481526020016001820160009054906101000a900473ffffffffffffffffffffffffffffffffffffffff1673ffffffffffffffffffffffffffffffffffffffff1673ffffffffffffffffffffffffffffffffffffffff168152602001600282015481526020016003820160009054906101000a900473ffffffffffffffffffffffffffffffffffffffff1673ffffffffffffffffffffffffffffffffffffffff1673ffffffffffffffffffffffffffffffffffffffff1681526020016004820160009054906101000a900473ffffffffffffffffffffffffffffffffffffffff1673ffffffffffffffffffffffffffffffffffffffff1673ffffffffffffffffffffffffffffffffffffffff168152602001600582015481526020016006820160009054906101000a900460ff161515151581525050848681518110610be6577f4e487b7100000000000000000000000000000000000000000000000000000000600052603260045260246000fd5b6020026020010181905250600185610bfe9190613e79565b945050505b8080610c0e906140b9565b91505061098f565b508094505050505090565b60606000610c2f60076124e2565b905060008060005b83811015610ccc573373ffffffffffffffffffffffffffffffffffffffff16600e600083815260200190815260200160002060030160009054906101000a900473ffffffffffffffffffffffffffffffffffffffff1673ffffffffffffffffffffffffffffffffffffffff161415610cb957600183610cb69190613e79565b92505b8080610cc4906140b9565b915050610c37565b5060008267ffffffffffffffff811115610d0f577f4e487b7100000000000000000000000000000000000000000000000000000000600052604160045260246000fd5b604051908082528060200260200182016040528015610d4857816020015b610d3561308c565b815260200190600190039081610d2d5790505b50905060005b84811015610f8c573373ffffffffffffffffffffffffffffffffffffffff16600e600083815260200190815260200160002060030160009054906101000a900473ffffffffffffffffffffffffffffffffffffffff1673ffffffffffffffffffffffffffffffffffffffff161415610f795760008190506000600e60008381526020019081526020016000209050806040518060e0016040529081600082015481526020016001820160009054906101000a900473ffffffffffffffffffffffffffffffffffffffff1673ffffffffffffffffffffffffffffffffffffffff1673ffffffffffffffffffffffffffffffffffffffff168152602001600282015481526020016003820160009054906101000a900473ffffffffffffffffffffffffffffffffffffffff1673ffffffffffffffffffffffffffffffffffffffff1673ffffffffffffffffffffffffffffffffffffffff1681526020016004820160009054906101000a900473ffffffffffffffffffffffffffffffffffffffff1673ffffffffffffffffffffffffffffffffffffffff1673ffffffffffffffffffffffffffffffffffffffff168152602001600582015481526020016006820160009054906101000a900460ff161515151581525050848681518110610f5c577f4e487b7100000000000000000000000000000000000000000000000000000000600052603260045260246000fd5b6020026020010181905250600185610f749190613e79565b945050505b8080610f84906140b9565b915050610d4e565b508094505050505090565b610fa8610fa261255c565b826126b9565b610fe7576040517f08c379a0000000000000000000000000000000000000000000000000000000008152600401610fde90613d0c565b60405180910390fd5b610ff2838383612797565b505050565b61101283838360405180602001604052806000815250611bb9565b505050565b6002600654141561105d576040517f08c379a000000000000000000000000000000000000000000000000000000000815260040161105490613d4c565b60405180910390fd5b6002600681905550600081116110a8576040517f08c379a000000000000000000000000000000000000000000000000000000000815260040161109f90613d6c565b60405180910390fd5b600b5434146110ec576040517f08c379a00000000000000000000000000000000000000000000000000000000081526004016110e390613b0c565b60405180910390fd5b61110e6040518060600160405280602481526020016147f1602491398361261d565b600061111a60076124e2565b905061112660076129fe565b61113060096129fe565b80600d60008581526020019081526020016000208190555060006040518060e001604052808381526020018673ffffffffffffffffffffffffffffffffffffffff1681526020018581526020013373ffffffffffffffffffffffffffffffffffffffff1681526020013073ffffffffffffffffffffffffffffffffffffffff16815260200184815260200160001515815250905080600e60008681526020019081526020016000206000820151816000015560208201518160010160006101000a81548173ffffffffffffffffffffffffffffffffffffffff021916908373ffffffffffffffffffffffffffffffffffffffff1602179055506040820151816002015560608201518160030160006101000a81548173ffffffffffffffffffffffffffffffffffffffff021916908373ffffffffffffffffffffffffffffffffffffffff16021790555060808201518160040160006101000a81548173ffffffffffffffffffffffffffffffffffffffff021916908373ffffffffffffffffffffffffffffffffffffffff16021790555060a0820151816005015560c08201518160060160006101000a81548160ff02191690831515021790555090505061131e60405180606001604052806027815260200161481560279139826060015183604001518460200151612a14565b6113746040518060400160405280600f81526020017f092e2e2e20666f72202573204554480000000000000000000000000000000000815250670de0b6b3a76400008360a0015161136f9190613ecf565b61261d565b8473ffffffffffffffffffffffffffffffffffffffff166323b872dd3330876040518463ffffffff1660e01b81526004016113b1939291906139ae565b600060405180830381600087803b1580156113cb57600080fd5b505af11580156113df573d6000803e3d6000fd5b50505050838573ffffffffffffffffffffffffffffffffffffffff16857f045dfa01dcba2b36aba1d3dc4a874f4b0c5d2fbeb8d2c4b34a7d88c8d8f929d13360008860006040516114339493929190613969565b60405180910390a450506001600681905550505050565b6000806002600084815260200190815260200160002060009054906101000a900473ffffffffffffffffffffffffffffffffffffffff169050600073ffffffffffffffffffffffffffffffffffffffff168173ffffffffffffffffffffffffffffffffffffffff1614156114f3576040517f08c379a00000000000000000000000000000000000000000000000000000000081526004016114ea90613c4c565b60405180910390fd5b80915050919050565b3373ffffffffffffffffffffffffffffffffffffffff16600a60009054906101000a900473ffffffffffffffffffffffffffffffffffffffff1673ffffffffffffffffffffffffffffffffffffffff161461158c576040517f08c379a000000000000000000000000000000000000000000000000000000000815260040161158390613bcc565b60405180910390fd5b6064816115999190613ecf565b600c8190555050565b60008073ffffffffffffffffffffffffffffffffffffffff168273ffffffffffffffffffffffffffffffffffffffff161415611613576040517f08c379a000000000000000000000000000000000000000000000000000000000815260040161160a90613c2c565b60405180910390fd5b600360008373ffffffffffffffffffffffffffffffffffffffff1673ffffffffffffffffffffffffffffffffffffffff168152602001908152602001600020549050919050565b600260065414156116a0576040517f08c379a000000000000000000000000000000000000000000000000000000000815260040161169790613d4c565b60405180910390fd5b600260068190555060006116b382611b9c565b90506116f46040518060400160405280600b81526020017f6974656d2049443a2025730000000000000000000000000000000000000000008152508261261d565b6000600e60008381526020019081526020016000206040518060e0016040529081600082015481526020016001820160009054906101000a900473ffffffffffffffffffffffffffffffffffffffff1673ffffffffffffffffffffffffffffffffffffffff1673ffffffffffffffffffffffffffffffffffffffff168152602001600282015481526020016003820160009054906101000a900473ffffffffffffffffffffffffffffffffffffffff1673ffffffffffffffffffffffffffffffffffffffff1673ffffffffffffffffffffffffffffffffffffffff1681526020016004820160009054906101000a900473ffffffffffffffffffffffffffffffffffffffff1673ffffffffffffffffffffffffffffffffffffffff1673ffffffffffffffffffffffffffffffffffffffff168152602001600582015481526020016006820160009054906101000a900460ff1615151515815250509050806060015173ffffffffffffffffffffffffffffffffffffffff163373ffffffffffffffffffffffffffffffffffffffff16146118c3576040517f08c379a00000000000000000000000000000000000000000000000000000000081526004016118ba90613c6c565b60405180910390fd5b6118cd6009612ab6565b6040518060e0016040528060008152602001600073ffffffffffffffffffffffffffffffffffffffff16815260200160008152602001600073ffffffffffffffffffffffffffffffffffffffff168152602001600073ffffffffffffffffffffffffffffffffffffffff1681526020016000815260200160001515815250600e60008481526020019081526020016000206000820151816000015560208201518160010160006101000a81548173ffffffffffffffffffffffffffffffffffffffff021916908373ffffffffffffffffffffffffffffffffffffffff1602179055506040820151816002015560608201518160030160006101000a81548173ffffffffffffffffffffffffffffffffffffffff021916908373ffffffffffffffffffffffffffffffffffffffff16021790555060808201518160040160006101000a81548173ffffffffffffffffffffffffffffffffffffffff021916908373ffffffffffffffffffffffffffffffffffffffff16021790555060a0820151816005015560c08201518160060160006101000a81548160ff021916908315150217905550905050806020015173ffffffffffffffffffffffffffffffffffffffff166323b872dd3033866040518463ffffffff1660e01b8152600401611ab5939291906139ae565b600060405180830381600087803b158015611acf57600080fd5b505af1158015611ae3573d6000803e3d6000fd5b505050505050600160068190555050565b606060018054611b0390614056565b80601f0160208091040260200160405190810160405280929190818152602001828054611b2f90614056565b8015611b7c5780601f10611b5157610100808354040283529160200191611b7c565b820191906000526020600020905b815481529060010190602001808311611b5f57829003601f168201915b5050505050905090565b611b98611b9161255c565b8383612b12565b5050565b6000600d6000838152602001908152602001600020549050919050565b611bca611bc461255c565b836126b9565b611c09576040517f08c379a0000000000000000000000000000000000000000000000000000000008152600401611c0090613d0c565b60405180910390fd5b611c1584848484612c7f565b50505050565b6000611c2760086124e2565b905090565b6060611c37826124f0565b611c76576040517f08c379a0000000000000000000000000000000000000000000000000000000008152600401611c6d90613cac565b60405180910390fd5b6000611c80612cdb565b90506000815111611ca05760405180602001604052806000815250611ccb565b80611caa84612cf2565b604051602001611cbb92919061392a565b6040516020818303038152906040525b915050919050565b60606000611ce160076124e2565b905060008060005b83811015611d7e573373ffffffffffffffffffffffffffffffffffffffff16600e600083815260200190815260200160002060040160009054906101000a900473ffffffffffffffffffffffffffffffffffffffff1673ffffffffffffffffffffffffffffffffffffffff161415611d6b57600183611d689190613e79565b92505b8080611d76906140b9565b915050611ce9565b5060008267ffffffffffffffff811115611dc1577f4e487b7100000000000000000000000000000000000000000000000000000000600052604160045260246000fd5b604051908082528060200260200182016040528015611dfa57816020015b611de761308c565b815260200190600190039081611ddf5790505b50905060005b84811015612054573373ffffffffffffffffffffffffffffffffffffffff16600e600083815260200190815260200160002060040160009054906101000a900473ffffffffffffffffffffffffffffffffffffffff1673ffffffffffffffffffffffffffffffffffffffff161415612041576000600e60008381526020019081526020016000206000015490506000600e60008381526020019081526020016000209050806040518060e0016040529081600082015481526020016001820160009054906101000a900473ffffffffffffffffffffffffffffffffffffffff1673ffffffffffffffffffffffffffffffffffffffff1673ffffffffffffffffffffffffffffffffffffffff168152602001600282015481526020016003820160009054906101000a900473ffffffffffffffffffffffffffffffffffffffff1673ffffffffffffffffffffffffffffffffffffffff1673ffffffffffffffffffffffffffffffffffffffff1681526020016004820160009054906101000a900473ffffffffffffffffffffffffffffffffffffffff1673ffffffffffffffffffffffffffffffffffffffff1673ffffffffffffffffffffffffffffffffffffffff168152602001600582015481526020016006820160009054906101000a900460ff161515151581525050848681518110612024577f4e487b7100000000000000000000000000000000000000000000000000000000600052603260045260246000fd5b602002602001018190525060018561203c9190613e79565b945050505b808061204c906140b9565b915050611e00565b508094505050505090565b6000600560008473ffffffffffffffffffffffffffffffffffffffff1673ffffffffffffffffffffffffffffffffffffffff16815260200190815260200160002060008373ffffffffffffffffffffffffffffffffffffffff1673ffffffffffffffffffffffffffffffffffffffff16815260200190815260200160002060009054906101000a900460ff16905092915050565b3373ffffffffffffffffffffffffffffffffffffffff16600a60009054906101000a900473ffffffffffffffffffffffffffffffffffffffff1673ffffffffffffffffffffffffffffffffffffffff1614612183576040517f08c379a000000000000000000000000000000000000000000000000000000000815260040161217a90613d2c565b60405180910390fd5b80600b8190555050565b600260065414156121d3576040517f08c379a00000000000000000000000000000000000000000000000000000000081526004016121ca90613d4c565b60405180910390fd5b60026006819055506000600e60008381526020019081526020016000206005015490506000600e6000848152602001908152602001600020600201549050813414612253576040517f08c379a000000000000000000000000000000000000000000000000000000000815260040161224a90613ccc565b60405180910390fd5b60006064600c546122649190613ecf565b3461226f9190613f00565b9050600e600085815260200190815260200160002060030160009054906101000a900473ffffffffffffffffffffffffffffffffffffffff1673ffffffffffffffffffffffffffffffffffffffff166108fc82346122cd9190613f5a565b9081150290604051600060405180830381858888f193505050501580156122f8573d6000803e3d6000fd5b508473ffffffffffffffffffffffffffffffffffffffff166323b872dd3033856040518463ffffffff1660e01b8152600401612336939291906139ae565b600060405180830381600087803b15801561235057600080fd5b505af1158015612364573d6000803e3d6000fd5b50505050600a60009054906101000a900473ffffffffffffffffffffffffffffffffffffffff1673ffffffffffffffffffffffffffffffffffffffff166108fc829081150290604051600060405180830381858888f193505050501580156123d0573d6000803e3d6000fd5b5033600e600086815260200190815260200160002060040160006101000a81548173ffffffffffffffffffffffffffffffffffffffff021916908373ffffffffffffffffffffffffffffffffffffffff1602179055506001600e600086815260200190815260200160002060060160006101000a81548160ff02191690831515021790555061245f60086129fe565b6124696009612ab6565b50505060016006819055505050565b60007f01ffc9a7000000000000000000000000000000000000000000000000000000007bffffffffffffffffffffffffffffffffffffffffffffffffffffffff1916827bffffffffffffffffffffffffffffffffffffffffffffffffffffffff1916149050919050565b600081600001549050919050565b60008073ffffffffffffffffffffffffffffffffffffffff166002600084815260200190815260200160002060009054906101000a900473ffffffffffffffffffffffffffffffffffffffff1673ffffffffffffffffffffffffffffffffffffffff1614159050919050565b600033905090565b816004600083815260200190815260200160002060006101000a81548173ffffffffffffffffffffffffffffffffffffffff021916908373ffffffffffffffffffffffffffffffffffffffff160217905550808273ffffffffffffffffffffffffffffffffffffffff166125d78361144a565b73ffffffffffffffffffffffffffffffffffffffff167f8c5be1e5ebec7d5bd14f71427d1e84f3dd0314c0f7b2291e5b200ac8c7c3b92560405160405180910390a45050565b6126b58282604051602401612633929190613adc565b6040516020818303038152906040527f9710a9d0000000000000000000000000000000000000000000000000000000007bffffffffffffffffffffffffffffffffffffffffffffffffffffffff19166020820180517bffffffffffffffffffffffffffffffffffffffffffffffffffffffff8381831617835250505050612e9f565b5050565b60006126c4826124f0565b612703576040517f08c379a00000000000000000000000000000000000000000000000000000000081526004016126fa90613bec565b60405180910390fd5b600061270e8361144a565b90508073ffffffffffffffffffffffffffffffffffffffff168473ffffffffffffffffffffffffffffffffffffffff16148061277d57508373ffffffffffffffffffffffffffffffffffffffff1661276584610713565b73ffffffffffffffffffffffffffffffffffffffff16145b8061278e575061278d818561205f565b5b91505092915050565b8273ffffffffffffffffffffffffffffffffffffffff166127b78261144a565b73ffffffffffffffffffffffffffffffffffffffff161461280d576040517f08c379a000000000000000000000000000000000000000000000000000000000815260040161280490613b6c565b60405180910390fd5b600073ffffffffffffffffffffffffffffffffffffffff168273ffffffffffffffffffffffffffffffffffffffff16141561287d576040517f08c379a000000000000000000000000000000000000000000000000000000000815260040161287490613b8c565b60405180910390fd5b612888838383612ec8565b612893600082612564565b6001600360008573ffffffffffffffffffffffffffffffffffffffff1673ffffffffffffffffffffffffffffffffffffffff16815260200190815260200160002060008282546128e39190613f5a565b925050819055506001600360008473ffffffffffffffffffffffffffffffffffffffff1673ffffffffffffffffffffffffffffffffffffffff168152602001908152602001600020600082825461293a9190613e79565b92505081905550816002600083815260200190815260200160002060006101000a81548173ffffffffffffffffffffffffffffffffffffffff021916908373ffffffffffffffffffffffffffffffffffffffff160217905550808273ffffffffffffffffffffffffffffffffffffffff168473ffffffffffffffffffffffffffffffffffffffff167fddf252ad1be2c89b69c2b068fc378daa952ba7f163c4a11628f55a4df523b3ef60405160405180910390a46129f9838383612ecd565b505050565b6001816000016000828254019250508190555050565b612ab084848484604051602401612a2e9493929190613a90565b6040516020818303038152906040527fa366ec80000000000000000000000000000000000000000000000000000000007bffffffffffffffffffffffffffffffffffffffffffffffffffffffff19166020820180517bffffffffffffffffffffffffffffffffffffffffffffffffffffffff8381831617835250505050612e9f565b50505050565b60008160000154905060008111612b02576040517f08c379a0000000000000000000000000000000000000000000000000000000008152600401612af990613b2c565b60405180910390fd5b6001810382600001819055505050565b8173ffffffffffffffffffffffffffffffffffffffff168373ffffffffffffffffffffffffffffffffffffffff161415612b81576040517f08c379a0000000000000000000000000000000000000000000000000000000008152600401612b7890613bac565b60405180910390fd5b80600560008573ffffffffffffffffffffffffffffffffffffffff1673ffffffffffffffffffffffffffffffffffffffff16815260200190815260200160002060008473ffffffffffffffffffffffffffffffffffffffff1673ffffffffffffffffffffffffffffffffffffffff16815260200190815260200160002060006101000a81548160ff0219169083151502179055508173ffffffffffffffffffffffffffffffffffffffff168373ffffffffffffffffffffffffffffffffffffffff167f17307eab39ab6107e8899845ad3d59bd9653f200f220920489ca2b5937696c3183604051612c729190613a53565b60405180910390a3505050565b612c8a848484612797565b612c9684848484612ed2565b612cd5576040517f08c379a0000000000000000000000000000000000000000000000000000000008152600401612ccc90613b4c565b60405180910390fd5b50505050565b606060405180602001604052806000815250905090565b60606000821415612d3a576040518060400160405280600181526020017f30000000000000000000000000000000000000000000000000000000000000008152509050612e9a565b600082905060005b60008214612d6c578080612d55906140b9565b915050600a82612d659190613ecf565b9150612d42565b60008167ffffffffffffffff811115612dae577f4e487b7100000000000000000000000000000000000000000000000000000000600052604160045260246000fd5b6040519080825280601f01601f191660200182016040528015612de05781602001600182028036833780820191505090505b5090505b60008514612e9357600182612df99190613f5a565b9150600a85612e089190614102565b6030612e149190613e79565b60f81b818381518110612e50577f4e487b7100000000000000000000000000000000000000000000000000000000600052603260045260246000fd5b60200101907effffffffffffffffffffffffffffffffffffffffffffffffffffffffffffff1916908160001a905350600a85612e8c9190613ecf565b9450612de4565b8093505050505b919050565b60008151905060006a636f6e736f6c652e6c6f679050602083016000808483855afa5050505050565b505050565b505050565b6000612ef38473ffffffffffffffffffffffffffffffffffffffff16613069565b1561305c578373ffffffffffffffffffffffffffffffffffffffff1663150b7a02612f1c61255c565b8786866040518563ffffffff1660e01b8152600401612f3e94939291906139e5565b602060405180830381600087803b158015612f5857600080fd5b505af1925050508015612f8957506040513d601f19601f82011682018060405250810190612f8691906133fd565b60015b61300c573d8060008114612fb9576040519150601f19603f3d011682016040523d82523d6000602084013e612fbe565b606091505b50600081511415613004576040517f08c379a0000000000000000000000000000000000000000000000000000000008152600401612ffb90613b4c565b60405180910390fd5b805181602001fd5b63150b7a0260e01b7bffffffffffffffffffffffffffffffffffffffffffffffffffffffff1916817bffffffffffffffffffffffffffffffffffffffffffffffffffffffff191614915050613061565b600190505b949350505050565b6000808273ffffffffffffffffffffffffffffffffffffffff163b119050919050565b6040518060e0016040528060008152602001600073ffffffffffffffffffffffffffffffffffffffff16815260200160008152602001600073ffffffffffffffffffffffffffffffffffffffff168152602001600073ffffffffffffffffffffffffffffffffffffffff168152602001600081526020016000151581525090565b600061312061311b84613dcc565b613da7565b90508281526020810184848401111561313857600080fd5b613143848285614014565b509392505050565b60008135905061315a81614794565b92915050565b60008135905061316f816147ab565b92915050565b600081359050613184816147c2565b92915050565b600081519050613199816147c2565b92915050565b600082601f8301126131b057600080fd5b81356131c084826020860161310d565b91505092915050565b6000813590506131d8816147d9565b92915050565b6000602082840312156131f057600080fd5b60006131fe8482850161314b565b91505092915050565b6000806040838503121561321a57600080fd5b60006132288582860161314b565b92505060206132398582860161314b565b9150509250929050565b60008060006060848603121561325857600080fd5b60006132668682870161314b565b93505060206132778682870161314b565b9250506040613288868287016131c9565b9150509250925092565b600080600080608085870312156132a857600080fd5b60006132b68782880161314b565b94505060206132c78782880161314b565b93505060406132d8878288016131c9565b925050606085013567ffffffffffffffff8111156132f557600080fd5b6133018782880161319f565b91505092959194509250565b6000806040838503121561332057600080fd5b600061332e8582860161314b565b925050602061333f85828601613160565b9150509250929050565b6000806040838503121561335c57600080fd5b600061336a8582860161314b565b925050602061337b858286016131c9565b9150509250929050565b60008060006060848603121561339a57600080fd5b60006133a88682870161314b565b93505060206133b9868287016131c9565b92505060406133ca868287016131c9565b9150509250925092565b6000602082840312156133e657600080fd5b60006133f484828501613175565b91505092915050565b60006020828403121561340f57600080fd5b600061341d8482850161318a565b91505092915050565b60006020828403121561343857600080fd5b6000613446848285016131c9565b91505092915050565b600061345b838361387e565b60e08301905092915050565b61347081613fa0565b82525050565b61347f81613fa0565b82525050565b61348e81613f8e565b82525050565b61349d81613f8e565b82525050565b60006134ae82613e0d565b6134b88185613e3b565b93506134c383613dfd565b8060005b838110156134f45781516134db888261344f565b97506134e683613e2e565b9250506001810190506134c7565b5085935050505092915050565b61350a81613fb2565b82525050565b61351981613fb2565b82525050565b600061352a82613e18565b6135348185613e4c565b9350613544818560208601614023565b61354d816141ef565b840191505092915050565b600061356382613e23565b61356d8185613e5d565b935061357d818560208601614023565b613586816141ef565b840191505092915050565b600061359c82613e23565b6135a68185613e6e565b93506135b6818560208601614023565b80840191505092915050565b60006135cf603083613e5d565b91506135da82614200565b604082019050919050565b60006135f2601b83613e5d565b91506135fd8261424f565b602082019050919050565b6000613615603283613e5d565b915061362082614278565b604082019050919050565b6000613638602583613e5d565b9150613643826142c7565b604082019050919050565b600061365b602483613e5d565b915061366682614316565b604082019050919050565b600061367e601983613e5d565b915061368982614365565b602082019050919050565b60006136a1603883613e5d565b91506136ac8261438e565b604082019050919050565b60006136c4602c83613e5d565b91506136cf826143dd565b604082019050919050565b60006136e7603883613e5d565b91506136f28261442c565b604082019050919050565b600061370a602a83613e5d565b91506137158261447b565b604082019050919050565b600061372d602983613e5d565b9150613738826144ca565b604082019050919050565b6000613750602b83613e5d565b915061375b82614519565b604082019050919050565b6000613773602c83613e5d565b915061377e82614568565b604082019050919050565b6000613796602f83613e5d565b91506137a1826145b7565b604082019050919050565b60006137b9602d83613e5d565b91506137c482614606565b604082019050919050565b60006137dc602183613e5d565b91506137e782614655565b604082019050919050565b60006137ff603183613e5d565b915061380a826146a4565b604082019050919050565b6000613822603083613e5d565b915061382d826146f3565b604082019050919050565b6000613845601f83613e5d565b915061385082614742565b602082019050919050565b6000613868601c83613e5d565b91506138738261476b565b602082019050919050565b60e082016000820151613894600085018261390c565b5060208201516138a76020850182613485565b5060408201516138ba604085018261390c565b5060608201516138cd6060850182613467565b5060808201516138e06080850182613467565b5060a08201516138f360a085018261390c565b5060c082015161390660c0850182613501565b50505050565b6139158161400a565b82525050565b6139248161400a565b82525050565b60006139368285613591565b91506139428284613591565b91508190509392505050565b60006020820190506139636000830184613494565b92915050565b600060808201905061397e6000830187613476565b61398b6020830186613476565b613998604083018561391b565b6139a56060830184613510565b95945050505050565b60006060820190506139c36000830186613494565b6139d06020830185613494565b6139dd604083018461391b565b949350505050565b60006080820190506139fa6000830187613494565b613a076020830186613494565b613a14604083018561391b565b8181036060830152613a26818461351f565b905095945050505050565b60006020820190508181036000830152613a4b81846134a3565b905092915050565b6000602082019050613a686000830184613510565b92915050565b60006020820190508181036000830152613a888184613558565b905092915050565b60006080820190508181036000830152613aaa8187613558565b9050613ab96020830186613494565b613ac6604083018561391b565b613ad36060830184613494565b95945050505050565b60006040820190508181036000830152613af68185613558565b9050613b05602083018461391b565b9392505050565b60006020820190508181036000830152613b25816135c2565b9050919050565b60006020820190508181036000830152613b45816135e5565b9050919050565b60006020820190508181036000830152613b6581613608565b9050919050565b60006020820190508181036000830152613b858161362b565b9050919050565b60006020820190508181036000830152613ba58161364e565b9050919050565b60006020820190508181036000830152613bc581613671565b9050919050565b60006020820190508181036000830152613be581613694565b9050919050565b60006020820190508181036000830152613c05816136b7565b9050919050565b60006020820190508181036000830152613c25816136da565b9050919050565b60006020820190508181036000830152613c45816136fd565b9050919050565b60006020820190508181036000830152613c6581613720565b9050919050565b60006020820190508181036000830152613c8581613743565b9050919050565b60006020820190508181036000830152613ca581613766565b9050919050565b60006020820190508181036000830152613cc581613789565b9050919050565b60006020820190508181036000830152613ce5816137ac565b9050919050565b60006020820190508181036000830152613d05816137cf565b9050919050565b60006020820190508181036000830152613d25816137f2565b9050919050565b60006020820190508181036000830152613d4581613815565b9050919050565b60006020820190508181036000830152613d6581613838565b9050919050565b60006020820190508181036000830152613d858161385b565b9050919050565b6000602082019050613da1600083018461391b565b92915050565b6000613db1613dc2565b9050613dbd8282614088565b919050565b6000604051905090565b600067ffffffffffffffff821115613de757613de66141c0565b5b613df0826141ef565b9050602081019050919050565b6000819050602082019050919050565b600081519050919050565b600081519050919050565b600081519050919050565b6000602082019050919050565b600082825260208201905092915050565b600082825260208201905092915050565b600082825260208201905092915050565b600081905092915050565b6000613e848261400a565b9150613e8f8361400a565b9250827fffffffffffffffffffffffffffffffffffffffffffffffffffffffffffffffff03821115613ec457613ec3614133565b5b828201905092915050565b6000613eda8261400a565b9150613ee58361400a565b925082613ef557613ef4614162565b5b828204905092915050565b6000613f0b8261400a565b9150613f168361400a565b9250817fffffffffffffffffffffffffffffffffffffffffffffffffffffffffffffffff0483118215151615613f4f57613f4e614133565b5b828202905092915050565b6000613f658261400a565b9150613f708361400a565b925082821015613f8357613f82614133565b5b828203905092915050565b6000613f9982613fea565b9050919050565b6000613fab82613fea565b9050919050565b60008115159050919050565b60007fffffffff0000000000000000000000000000000000000000000000000000000082169050919050565b600073ffffffffffffffffffffffffffffffffffffffff82169050919050565b6000819050919050565b82818337600083830152505050565b60005b83811015614041578082015181840152602081019050614026565b83811115614050576000848401525b50505050565b6000600282049050600182168061406e57607f821691505b6020821081141561408257614081614191565b5b50919050565b614091826141ef565b810181811067ffffffffffffffff821117156140b0576140af6141c0565b5b80604052505050565b60006140c48261400a565b91507fffffffffffffffffffffffffffffffffffffffffffffffffffffffffffffffff8214156140f7576140f6614133565b5b600182019050919050565b600061410d8261400a565b91506141188361400a565b92508261412857614127614162565b5b828206905092915050565b7f4e487b7100000000000000000000000000000000000000000000000000000000600052601160045260246000fd5b7f4e487b7100000000000000000000000000000000000000000000000000000000600052601260045260246000fd5b7f4e487b7100000000000000000000000000000000000000000000000000000000600052602260045260246000fd5b7f4e487b7100000000000000000000000000000000000000000000000000000000600052604160045260246000fd5b6000601f19601f8301169050919050565b7f596f75206d75737420706179207468652066656520746f206c69737420616e2060008201527f6974656d20666f722073616c65203a2900000000000000000000000000000000602082015250565b7f436f756e7465723a2064656372656d656e74206f766572666c6f770000000000600082015250565b7f4552433732313a207472616e7366657220746f206e6f6e20455243373231526560008201527f63656976657220696d706c656d656e7465720000000000000000000000000000602082015250565b7f4552433732313a207472616e736665722066726f6d20696e636f72726563742060008201527f6f776e6572000000000000000000000000000000000000000000000000000000602082015250565b7f4552433732313a207472616e7366657220746f20746865207a65726f2061646460008201527f7265737300000000000000000000000000000000000000000000000000000000602082015250565b7f4552433732313a20617070726f766520746f2063616c6c657200000000000000600082015250565b7f4f6e6c79206d61726b6574706c616365206f776e65722063616e20757064617460008201527f6520746865206d61726b657420636f6d6d697373696f6e2e0000000000000000602082015250565b7f4552433732313a206f70657261746f7220717565727920666f72206e6f6e657860008201527f697374656e7420746f6b656e0000000000000000000000000000000000000000602082015250565b7f4552433732313a20617070726f76652063616c6c6572206973206e6f74206f7760008201527f6e6572206e6f7220617070726f76656420666f7220616c6c0000000000000000602082015250565b7f4552433732313a2062616c616e636520717565727920666f7220746865207a6560008201527f726f206164647265737300000000000000000000000000000000000000000000602082015250565b7f4552433732313a206f776e657220717565727920666f72206e6f6e657869737460008201527f656e7420746f6b656e0000000000000000000000000000000000000000000000602082015250565b7f4f6e6c79207468652073656c6c65722063616e2077697468647261772074686560008201527f206c697374696e67203a29000000000000000000000000000000000000000000602082015250565b7f4552433732313a20617070726f76656420717565727920666f72206e6f6e657860008201527f697374656e7420746f6b656e0000000000000000000000000000000000000000602082015250565b7f4552433732314d657461646174613a2055524920717565727920666f72206e6f60008201527f6e6578697374656e7420746f6b656e0000000000000000000000000000000000602082015250565b7f5472616e73616374696f6e2076616c7565206d75737420657175616c2074686560008201527f206974656d277320707269636500000000000000000000000000000000000000602082015250565b7f4552433732313a20617070726f76616c20746f2063757272656e74206f776e6560008201527f7200000000000000000000000000000000000000000000000000000000000000602082015250565b7f4552433732313a207472616e736665722063616c6c6572206973206e6f74206f60008201527f776e6572206e6f7220617070726f766564000000000000000000000000000000602082015250565b7f4f6e6c79206d61726b6574706c616365206f776e65722063616e20757064617460008201527f65206c697374696e672070726963652e00000000000000000000000000000000602082015250565b7f5265656e7472616e637947756172643a207265656e7472616e742063616c6c00600082015250565b7f5072696365206d757374206265206174206c6561737420312077656900000000600082015250565b61479d81613f8e565b81146147a857600080fd5b50565b6147b481613fb2565b81146147bf57600080fd5b50565b6147cb81613fbe565b81146147d657600080fd5b50565b6147e28161400a565b81146147ed57600080fd5b5056fe3e3e3e204372656174696e67206d61726b6574206974656d20666f72204e46542023257341646472202573206c6973746564204e4654202325732066726f6d20636f6e7472616374202573a26469706673582212202a090b4517db30509af70211b629f44d767fcaeede069574bf74eb006959d82264736f6c63430008040033",
  "linkReferences": {},
  "deployedLinkReferences": {}
}