{
  "_format": "hh-sol-artifact-1",
  "contractName": "NFTMarket",
  "sourceName": "contracts/NFTMarket.sol",
  "abi": [
    {
      "inputs": [],
      "stateMutability": "nonpayable",
      "type": "constructor"
    },
    {
      "anonymous": false,
      "inputs": [
        {
          "indexed": true,
          "internalType": "address",
          "name": "owner",
          "type": "address"
        },
        {
          "indexed": true,
          "internalType": "address",
          "name": "approved",
          "type": "address"
        },
        {
          "indexed": true,
          "internalType": "uint256",
          "name": "tokenId",
          "type": "uint256"
        }
      ],
      "name": "Approval",
      "type": "event"
    },
    {
      "anonymous": false,
      "inputs": [
        {
          "indexed": true,
          "internalType": "address",
          "name": "owner",
          "type": "address"
        },
        {
          "indexed": true,
          "internalType": "address",
          "name": "operator",
          "type": "address"
        },
        {
          "indexed": false,
          "internalType": "bool",
          "name": "approved",
          "type": "bool"
        }
      ],
      "name": "ApprovalForAll",
      "type": "event"
    },
    {
      "anonymous": false,
      "inputs": [
        {
          "indexed": true,
          "internalType": "uint256",
          "name": "itemId",
          "type": "uint256"
        },
        {
          "indexed": true,
          "internalType": "address",
          "name": "nftContract",
          "type": "address"
        },
        {
          "indexed": true,
          "internalType": "uint256",
          "name": "tokenId",
          "type": "uint256"
        },
        {
          "indexed": false,
          "internalType": "address payable",
          "name": "seller",
          "type": "address"
        },
        {
          "indexed": false,
          "internalType": "address payable",
          "name": "owner",
          "type": "address"
        },
        {
          "indexed": false,
          "internalType": "uint256",
          "name": "price",
          "type": "uint256"
        },
        {
          "indexed": false,
          "internalType": "bool",
          "name": "sold",
          "type": "bool"
        }
      ],
      "name": "MarketItemCreated",
      "type": "event"
    },
    {
      "anonymous": false,
      "inputs": [
        {
          "indexed": true,
          "internalType": "address",
          "name": "from",
          "type": "address"
        },
        {
          "indexed": true,
          "internalType": "address",
          "name": "to",
          "type": "address"
        },
        {
          "indexed": true,
          "internalType": "uint256",
          "name": "tokenId",
          "type": "uint256"
        }
      ],
      "name": "Transfer",
      "type": "event"
    },
    {
      "inputs": [
        {
          "internalType": "address",
          "name": "to",
          "type": "address"
        },
        {
          "internalType": "uint256",
          "name": "tokenId",
          "type": "uint256"
        }
      ],
      "name": "approve",
      "outputs": [],
      "stateMutability": "nonpayable",
      "type": "function"
    },
    {
      "inputs": [
        {
          "internalType": "address",
          "name": "owner",
          "type": "address"
        }
      ],
      "name": "balanceOf",
      "outputs": [
        {
          "internalType": "uint256",
          "name": "",
          "type": "uint256"
        }
      ],
      "stateMutability": "view",
      "type": "function"
    },
    {
      "inputs": [
        {
          "internalType": "address",
          "name": "nftContract",
          "type": "address"
        },
        {
          "internalType": "uint256",
          "name": "tokenId",
          "type": "uint256"
        },
        {
          "internalType": "uint256",
          "name": "price",
          "type": "uint256"
        }
      ],
      "name": "createMarketItem",
      "outputs": [],
      "stateMutability": "payable",
      "type": "function"
    },
    {
      "inputs": [],
      "name": "fetchMarketItems",
      "outputs": [
        {
          "components": [
            {
              "internalType": "uint256",
              "name": "itemId",
              "type": "uint256"
            },
            {
              "internalType": "address",
              "name": "nftContract",
              "type": "address"
            },
            {
              "internalType": "uint256",
              "name": "tokenId",
              "type": "uint256"
            },
            {
              "internalType": "address payable",
              "name": "seller",
              "type": "address"
            },
            {
              "internalType": "address payable",
              "name": "owner",
              "type": "address"
            },
            {
              "internalType": "uint256",
              "name": "price",
              "type": "uint256"
            },
            {
              "internalType": "bool",
              "name": "sold",
              "type": "bool"
            }
          ],
          "internalType": "struct NFTMarket.MarketItem[]",
          "name": "",
          "type": "tuple[]"
        }
      ],
      "stateMutability": "view",
      "type": "function"
    },
    {
      "inputs": [],
      "name": "fetchMyItems",
      "outputs": [
        {
          "components": [
            {
              "internalType": "uint256",
              "name": "itemId",
              "type": "uint256"
            },
            {
              "internalType": "address",
              "name": "nftContract",
              "type": "address"
            },
            {
              "internalType": "uint256",
              "name": "tokenId",
              "type": "uint256"
            },
            {
              "internalType": "address payable",
              "name": "seller",
              "type": "address"
            },
            {
              "internalType": "address payable",
              "name": "owner",
              "type": "address"
            },
            {
              "internalType": "uint256",
              "name": "price",
              "type": "uint256"
            },
            {
              "internalType": "bool",
              "name": "sold",
              "type": "bool"
            }
          ],
          "internalType": "struct NFTMarket.MarketItem[]",
          "name": "",
          "type": "tuple[]"
        }
      ],
      "stateMutability": "view",
      "type": "function"
    },
    {
      "inputs": [],
      "name": "fetchMyTokens",
      "outputs": [
        {
          "components": [
            {
              "internalType": "uint256",
              "name": "itemId",
              "type": "uint256"
            },
            {
              "internalType": "address",
              "name": "nftContract",
              "type": "address"
            },
            {
              "internalType": "uint256",
              "name": "tokenId",
              "type": "uint256"
            },
            {
              "internalType": "address payable",
              "name": "seller",
              "type": "address"
            },
            {
              "internalType": "address payable",
              "name": "owner",
              "type": "address"
            },
            {
              "internalType": "uint256",
              "name": "price",
              "type": "uint256"
            },
            {
              "internalType": "bool",
              "name": "sold",
              "type": "bool"
            }
          ],
          "internalType": "struct NFTMarket.MarketItem[]",
          "name": "",
          "type": "tuple[]"
        }
      ],
      "stateMutability": "view",
      "type": "function"
    },
    {
      "inputs": [
        {
          "internalType": "uint256",
          "name": "tokenId",
          "type": "uint256"
        }
      ],
      "name": "getApproved",
      "outputs": [
        {
          "internalType": "address",
          "name": "",
          "type": "address"
        }
      ],
      "stateMutability": "view",
      "type": "function"
    },
    {
      "inputs": [
        {
          "internalType": "uint256",
          "name": "tokenId",
          "type": "uint256"
        }
      ],
      "name": "getItemId",
      "outputs": [
        {
          "internalType": "uint256",
          "name": "",
          "type": "uint256"
        }
      ],
      "stateMutability": "view",
      "type": "function"
    },
    {
      "inputs": [],
      "name": "getItemsForSale",
      "outputs": [
        {
          "internalType": "uint256",
          "name": "",
          "type": "uint256"
        }
      ],
      "stateMutability": "view",
      "type": "function"
    },
    {
      "inputs": [],
      "name": "getItemsSold",
      "outputs": [
        {
          "internalType": "uint256",
          "name": "",
          "type": "uint256"
        }
      ],
      "stateMutability": "view",
      "type": "function"
    },
    {
      "inputs": [
        {
          "internalType": "address",
          "name": "owner",
          "type": "address"
        },
        {
          "internalType": "address",
          "name": "operator",
          "type": "address"
        }
      ],
      "name": "isApprovedForAll",
      "outputs": [
        {
          "internalType": "bool",
          "name": "",
          "type": "bool"
        }
      ],
      "stateMutability": "view",
      "type": "function"
    },
    {
      "inputs": [],
      "name": "name",
      "outputs": [
        {
          "internalType": "string",
          "name": "",
          "type": "string"
        }
      ],
      "stateMutability": "view",
      "type": "function"
    },
    {
      "inputs": [
        {
          "internalType": "uint256",
          "name": "tokenId",
          "type": "uint256"
        }
      ],
      "name": "ownerOf",
      "outputs": [
        {
          "internalType": "address",
          "name": "",
          "type": "address"
        }
      ],
      "stateMutability": "view",
      "type": "function"
    },
    {
      "inputs": [
        {
          "internalType": "address",
          "name": "nftContract",
          "type": "address"
        },
        {
          "internalType": "uint256",
          "name": "itemId",
          "type": "uint256"
        }
      ],
      "name": "purchaseMarketItem",
      "outputs": [],
      "stateMutability": "payable",
      "type": "function"
    },
    {
      "inputs": [
        {
          "internalType": "uint256",
          "name": "tokenId",
          "type": "uint256"
        }
      ],
      "name": "removeMarketItem",
      "outputs": [],
      "stateMutability": "nonpayable",
      "type": "function"
    },
    {
      "inputs": [
        {
          "internalType": "address",
          "name": "from",
          "type": "address"
        },
        {
          "internalType": "address",
          "name": "to",
          "type": "address"
        },
        {
          "internalType": "uint256",
          "name": "tokenId",
          "type": "uint256"
        }
      ],
      "name": "safeTransferFrom",
      "outputs": [],
      "stateMutability": "nonpayable",
      "type": "function"
    },
    {
      "inputs": [
        {
          "internalType": "address",
          "name": "from",
          "type": "address"
        },
        {
          "internalType": "address",
          "name": "to",
          "type": "address"
        },
        {
          "internalType": "uint256",
          "name": "tokenId",
          "type": "uint256"
        },
        {
          "internalType": "bytes",
          "name": "_data",
          "type": "bytes"
        }
      ],
      "name": "safeTransferFrom",
      "outputs": [],
      "stateMutability": "nonpayable",
      "type": "function"
    },
    {
      "inputs": [
        {
          "internalType": "address",
          "name": "operator",
          "type": "address"
        },
        {
          "internalType": "bool",
          "name": "approved",
          "type": "bool"
        }
      ],
      "name": "setApprovalForAll",
      "outputs": [],
      "stateMutability": "nonpayable",
      "type": "function"
    },
    {
      "inputs": [
        {
          "internalType": "bytes4",
          "name": "interfaceId",
          "type": "bytes4"
        }
      ],
      "name": "supportsInterface",
      "outputs": [
        {
          "internalType": "bool",
          "name": "",
          "type": "bool"
        }
      ],
      "stateMutability": "view",
      "type": "function"
    },
    {
      "inputs": [],
      "name": "symbol",
      "outputs": [
        {
          "internalType": "string",
          "name": "",
          "type": "string"
        }
      ],
      "stateMutability": "view",
      "type": "function"
    },
    {
      "inputs": [
        {
          "internalType": "uint256",
          "name": "tokenId",
          "type": "uint256"
        }
      ],
      "name": "tokenURI",
      "outputs": [
        {
          "internalType": "string",
          "name": "",
          "type": "string"
        }
      ],
      "stateMutability": "view",
      "type": "function"
    },
    {
      "inputs": [
        {
          "internalType": "address",
          "name": "from",
          "type": "address"
        },
        {
          "internalType": "address",
          "name": "to",
          "type": "address"
        },
        {
          "internalType": "uint256",
          "name": "tokenId",
          "type": "uint256"
        }
      ],
      "name": "transferFrom",
      "outputs": [],
      "stateMutability": "nonpayable",
      "type": "function"
    },
    {
      "inputs": [
        {
          "internalType": "uint256",
          "name": "newCommissionFee",
          "type": "uint256"
        }
      ],
      "name": "updateCommissionFee",
      "outputs": [],
      "stateMutability": "payable",
      "type": "function"
    },
    {
      "inputs": [
        {
          "internalType": "uint256",
          "name": "newListingFee",
          "type": "uint256"
        }
      ],
      "name": "updateListingFee",
      "outputs": [],
      "stateMutability": "payable",
      "type": "function"
    }
  ],
  "bytecode": "0x60806040526000600b556005600c553480156200001b57600080fd5b506040518060400160405280601381526020017f466972656d656e204d61726b6574706c616365000000000000000000000000008152506040518060400160405280600581526020017f464d4152540000000000000000000000000000000000000000000000000000008152508160009080519060200190620000a09291906200010b565b508060019080519060200190620000b99291906200010b565b505050600160068190555033600a60006101000a81548173ffffffffffffffffffffffffffffffffffffffff021916908373ffffffffffffffffffffffffffffffffffffffff16021790555062000220565b8280546200011990620001bb565b90600052602060002090601f0160209004810192826200013d576000855562000189565b82601f106200015857805160ff191683800117855562000189565b8280016001018555821562000189579182015b82811115620001885782518255916020019190600101906200016b565b5b5090506200019891906200019c565b5090565b5b80821115620001b75760008160009055506001016200019d565b5090565b60006002820490506001821680620001d457607f821691505b60208210811415620001eb57620001ea620001f1565b5b50919050565b7f4e487b7100000000000000000000000000000000000000000000000000000000600052602260045260246000fd5b6147ee80620002306000396000f3fe60806040526004361061014b5760003560e01c806370a08231116100b6578063c4b151411161006f578063c4b1514114610486578063c87b56dd146104b1578063dcabb483146104ee578063e985e9c514610519578063f79d91ae14610556578063fc856edd146105725761014b565b806370a08231146103665780637fb770cb146103a357806395d89b41146103cc578063a22cb465146103f7578063a9a76ece14610420578063b88d4fde1461045d5761014b565b806315c9ae101161010857806315c9ae101461027457806323b872dd1461029f57806342842e0e146102c857806358eb2df5146102f15780636352211e1461030d57806364edc20f1461034a5761014b565b806301ffc9a714610150578063064ddd041461018d57806306fdde03146101b8578063081812fc146101e3578063095ea7b3146102205780630f08efe014610249575b600080fd5b34801561015c57600080fd5b5061017760048036038101906101729190613375565b61058e565b60405161018491906139f4565b60405180910390f35b34801561019957600080fd5b506101a2610670565b6040516101af9190613d2d565b60405180910390f35b3480156101c457600080fd5b506101cd610681565b6040516101da9190613a0f565b60405180910390f35b3480156101ef57600080fd5b5061020a600480360381019061020591906133c7565b610713565b60405161021791906138ef565b60405180910390f35b34801561022c57600080fd5b50610247600480360381019061024291906132ea565b610798565b005b34801561025557600080fd5b5061025e6108b0565b60405161026b91906139d2565b60405180910390f35b34801561028057600080fd5b50610289610bee565b60405161029691906139d2565b60405180910390f35b3480156102ab57600080fd5b506102c660048036038101906102c191906131e4565b610f64565b005b3480156102d457600080fd5b506102ef60048036038101906102ea91906131e4565b610fc4565b005b61030b60048036038101906103069190613326565b610fe4565b005b34801561031957600080fd5b50610334600480360381019061032f91906133c7565b6113f5565b60405161034191906138ef565b60405180910390f35b610364600480360381019061035f91906133c7565b6114a7565b005b34801561037257600080fd5b5061038d6004803603810190610388919061317f565b61154d565b60405161039a9190613d2d565b60405180910390f35b3480156103af57600080fd5b506103ca60048036038101906103c591906133c7565b611605565b005b3480156103d857600080fd5b506103e1611a9f565b6040516103ee9190613a0f565b60405180910390f35b34801561040357600080fd5b5061041e600480360381019061041991906132ae565b611b31565b005b34801561042c57600080fd5b50610447600480360381019061044291906133c7565b611b47565b6040516104549190613d2d565b60405180910390f35b34801561046957600080fd5b50610484600480360381019061047f9190613233565b611b64565b005b34801561049257600080fd5b5061049b611bc6565b6040516104a89190613d2d565b60405180910390f35b3480156104bd57600080fd5b506104d860048036038101906104d391906133c7565b611bd7565b6040516104e59190613a0f565b60405180910390f35b3480156104fa57600080fd5b50610503611c7e565b60405161051091906139d2565b60405180910390f35b34801561052557600080fd5b50610540600480360381019061053b91906131a8565b61200a565b60405161054d91906139f4565b60405180910390f35b610570600480360381019061056b91906133c7565b61209e565b005b61058c600480360381019061058791906132ea565b612138565b005b60007f80ac58cd000000000000000000000000000000000000000000000000000000007bffffffffffffffffffffffffffffffffffffffffffffffffffffffff1916827bffffffffffffffffffffffffffffffffffffffffffffffffffffffff1916148061065957507f5b5e139f000000000000000000000000000000000000000000000000000000007bffffffffffffffffffffffffffffffffffffffffffffffffffffffff1916827bffffffffffffffffffffffffffffffffffffffffffffffffffffffff1916145b80610669575061066882612419565b5b9050919050565b600061067c6009612483565b905090565b60606000805461069090613ff7565b80601f01602080910402602001604051908101604052809291908181526020018280546106bc90613ff7565b80156107095780601f106106de57610100808354040283529160200191610709565b820191906000526020600020905b8154815290600101906020018083116106ec57829003601f168201915b5050505050905090565b600061071e82612491565b61075d576040517f08c379a000000000000000000000000000000000000000000000000000000000815260040161075490613c2d565b60405180910390fd5b6004600083815260200190815260200160002060009054906101000a900473ffffffffffffffffffffffffffffffffffffffff169050919050565b60006107a3826113f5565b90508073ffffffffffffffffffffffffffffffffffffffff168373ffffffffffffffffffffffffffffffffffffffff161415610814576040517f08c379a000000000000000000000000000000000000000000000000000000000815260040161080b90613c8d565b60405180910390fd5b8073ffffffffffffffffffffffffffffffffffffffff166108336124fd565b73ffffffffffffffffffffffffffffffffffffffff16148061086257506108618161085c6124fd565b61200a565b5b6108a1576040517f08c379a000000000000000000000000000000000000000000000000000000000815260040161089890613bad565b60405180910390fd5b6108ab8383612505565b505050565b606060006108be6007612483565b905060006108cc6009612483565b905061090d6040518060400160405280601081526020017f6974656d73466f7253616c653a20257300000000000000000000000000000000815250826125be565b6000808267ffffffffffffffff811115610950577f4e487b7100000000000000000000000000000000000000000000000000000000600052604160045260246000fd5b60405190808252806020026020018201604052801561098957816020015b61097661302d565b81526020019060019003908161096e5790505b50905060005b84811015610be3573073ffffffffffffffffffffffffffffffffffffffff16600e600083815260200190815260200160002060040160009054906101000a900473ffffffffffffffffffffffffffffffffffffffff1673ffffffffffffffffffffffffffffffffffffffff161415610bd0576000600e60008381526020019081526020016000206000015490506000600e60008381526020019081526020016000209050806040518060e0016040529081600082015481526020016001820160009054906101000a900473ffffffffffffffffffffffffffffffffffffffff1673ffffffffffffffffffffffffffffffffffffffff1673ffffffffffffffffffffffffffffffffffffffff168152602001600282015481526020016003820160009054906101000a900473ffffffffffffffffffffffffffffffffffffffff1673ffffffffffffffffffffffffffffffffffffffff1673ffffffffffffffffffffffffffffffffffffffff1681526020016004820160009054906101000a900473ffffffffffffffffffffffffffffffffffffffff1673ffffffffffffffffffffffffffffffffffffffff1673ffffffffffffffffffffffffffffffffffffffff168152602001600582015481526020016006820160009054906101000a900460ff161515151581525050848681518110610bb3577f4e487b7100000000000000000000000000000000000000000000000000000000600052603260045260246000fd5b6020026020010181905250600185610bcb9190613e1a565b945050505b8080610bdb9061405a565b91505061098f565b508094505050505090565b60606000610bfc6007612483565b905060008060005b83811015610c99573373ffffffffffffffffffffffffffffffffffffffff16600e600083815260200190815260200160002060030160009054906101000a900473ffffffffffffffffffffffffffffffffffffffff1673ffffffffffffffffffffffffffffffffffffffff161415610c8657600183610c839190613e1a565b92505b8080610c919061405a565b915050610c04565b5060008267ffffffffffffffff811115610cdc577f4e487b7100000000000000000000000000000000000000000000000000000000600052604160045260246000fd5b604051908082528060200260200182016040528015610d1557816020015b610d0261302d565b815260200190600190039081610cfa5790505b50905060005b84811015610f59573373ffffffffffffffffffffffffffffffffffffffff16600e600083815260200190815260200160002060030160009054906101000a900473ffffffffffffffffffffffffffffffffffffffff1673ffffffffffffffffffffffffffffffffffffffff161415610f465760008190506000600e60008381526020019081526020016000209050806040518060e0016040529081600082015481526020016001820160009054906101000a900473ffffffffffffffffffffffffffffffffffffffff1673ffffffffffffffffffffffffffffffffffffffff1673ffffffffffffffffffffffffffffffffffffffff168152602001600282015481526020016003820160009054906101000a900473ffffffffffffffffffffffffffffffffffffffff1673ffffffffffffffffffffffffffffffffffffffff1673ffffffffffffffffffffffffffffffffffffffff1681526020016004820160009054906101000a900473ffffffffffffffffffffffffffffffffffffffff1673ffffffffffffffffffffffffffffffffffffffff1673ffffffffffffffffffffffffffffffffffffffff168152602001600582015481526020016006820160009054906101000a900460ff161515151581525050848681518110610f29577f4e487b7100000000000000000000000000000000000000000000000000000000600052603260045260246000fd5b6020026020010181905250600185610f419190613e1a565b945050505b8080610f519061405a565b915050610d1b565b508094505050505090565b610f75610f6f6124fd565b8261265a565b610fb4576040517f08c379a0000000000000000000000000000000000000000000000000000000008152600401610fab90613cad565b60405180910390fd5b610fbf838383612738565b505050565b610fdf83838360405180602001604052806000815250611b64565b505050565b6002600654141561102a576040517f08c379a000000000000000000000000000000000000000000000000000000000815260040161102190613ced565b60405180910390fd5b600260068190555060008111611075576040517f08c379a000000000000000000000000000000000000000000000000000000000815260040161106c90613d0d565b60405180910390fd5b600b5434146110b9576040517f08c379a00000000000000000000000000000000000000000000000000000000081526004016110b090613aad565b60405180910390fd5b60006110c56007612483565b90506110d1600761299f565b6110db600961299f565b80600d60008581526020019081526020016000208190555060006040518060e001604052808381526020018673ffffffffffffffffffffffffffffffffffffffff1681526020018581526020013373ffffffffffffffffffffffffffffffffffffffff1681526020013073ffffffffffffffffffffffffffffffffffffffff16815260200184815260200160001515815250905080600e60008681526020019081526020016000206000820151816000015560208201518160010160006101000a81548173ffffffffffffffffffffffffffffffffffffffff021916908373ffffffffffffffffffffffffffffffffffffffff1602179055506040820151816002015560608201518160030160006101000a81548173ffffffffffffffffffffffffffffffffffffffff021916908373ffffffffffffffffffffffffffffffffffffffff16021790555060808201518160040160006101000a81548173ffffffffffffffffffffffffffffffffffffffff021916908373ffffffffffffffffffffffffffffffffffffffff16021790555060a0820151816005015560c08201518160060160006101000a81548160ff0219169083151502179055509050506112c9604051806060016040528060278152602001614792602791398260600151836040015184602001516129b5565b61131f6040518060400160405280600f81526020017f092e2e2e20666f72202573204554480000000000000000000000000000000000815250670de0b6b3a76400008360a0015161131a9190613e70565b6125be565b8473ffffffffffffffffffffffffffffffffffffffff166323b872dd3330876040518463ffffffff1660e01b815260040161135c9392919061394f565b600060405180830381600087803b15801561137657600080fd5b505af115801561138a573d6000803e3d6000fd5b50505050838573ffffffffffffffffffffffffffffffffffffffff16857f045dfa01dcba2b36aba1d3dc4a874f4b0c5d2fbeb8d2c4b34a7d88c8d8f929d13360008860006040516113de949392919061390a565b60405180910390a450506001600681905550505050565b6000806002600084815260200190815260200160002060009054906101000a900473ffffffffffffffffffffffffffffffffffffffff169050600073ffffffffffffffffffffffffffffffffffffffff168173ffffffffffffffffffffffffffffffffffffffff16141561149e576040517f08c379a000000000000000000000000000000000000000000000000000000000815260040161149590613bed565b60405180910390fd5b80915050919050565b3373ffffffffffffffffffffffffffffffffffffffff16600a60009054906101000a900473ffffffffffffffffffffffffffffffffffffffff1673ffffffffffffffffffffffffffffffffffffffff1614611537576040517f08c379a000000000000000000000000000000000000000000000000000000000815260040161152e90613b6d565b60405180910390fd5b6064816115449190613e70565b600c8190555050565b60008073ffffffffffffffffffffffffffffffffffffffff168273ffffffffffffffffffffffffffffffffffffffff1614156115be576040517f08c379a00000000000000000000000000000000000000000000000000000000081526004016115b590613bcd565b60405180910390fd5b600360008373ffffffffffffffffffffffffffffffffffffffff1673ffffffffffffffffffffffffffffffffffffffff168152602001908152602001600020549050919050565b6002600654141561164b576040517f08c379a000000000000000000000000000000000000000000000000000000000815260040161164290613ced565b60405180910390fd5b6002600681905550600061165e82611b47565b905061169f6040518060400160405280600b81526020017f6974656d2049443a202573000000000000000000000000000000000000000000815250826125be565b6000600e60008381526020019081526020016000206040518060e0016040529081600082015481526020016001820160009054906101000a900473ffffffffffffffffffffffffffffffffffffffff1673ffffffffffffffffffffffffffffffffffffffff1673ffffffffffffffffffffffffffffffffffffffff168152602001600282015481526020016003820160009054906101000a900473ffffffffffffffffffffffffffffffffffffffff1673ffffffffffffffffffffffffffffffffffffffff1673ffffffffffffffffffffffffffffffffffffffff1681526020016004820160009054906101000a900473ffffffffffffffffffffffffffffffffffffffff1673ffffffffffffffffffffffffffffffffffffffff1673ffffffffffffffffffffffffffffffffffffffff168152602001600582015481526020016006820160009054906101000a900460ff1615151515815250509050806060015173ffffffffffffffffffffffffffffffffffffffff163373ffffffffffffffffffffffffffffffffffffffff161461186e576040517f08c379a000000000000000000000000000000000000000000000000000000000815260040161186590613c0d565b60405180910390fd5b6118786009612a57565b6040518060e0016040528060008152602001600073ffffffffffffffffffffffffffffffffffffffff16815260200160008152602001600073ffffffffffffffffffffffffffffffffffffffff168152602001600073ffffffffffffffffffffffffffffffffffffffff1681526020016000815260200160001515815250600e60008481526020019081526020016000206000820151816000015560208201518160010160006101000a81548173ffffffffffffffffffffffffffffffffffffffff021916908373ffffffffffffffffffffffffffffffffffffffff1602179055506040820151816002015560608201518160030160006101000a81548173ffffffffffffffffffffffffffffffffffffffff021916908373ffffffffffffffffffffffffffffffffffffffff16021790555060808201518160040160006101000a81548173ffffffffffffffffffffffffffffffffffffffff021916908373ffffffffffffffffffffffffffffffffffffffff16021790555060a0820151816005015560c08201518160060160006101000a81548160ff021916908315150217905550905050806020015173ffffffffffffffffffffffffffffffffffffffff166323b872dd3033866040518463ffffffff1660e01b8152600401611a609392919061394f565b600060405180830381600087803b158015611a7a57600080fd5b505af1158015611a8e573d6000803e3d6000fd5b505050505050600160068190555050565b606060018054611aae90613ff7565b80601f0160208091040260200160405190810160405280929190818152602001828054611ada90613ff7565b8015611b275780601f10611afc57610100808354040283529160200191611b27565b820191906000526020600020905b815481529060010190602001808311611b0a57829003601f168201915b5050505050905090565b611b43611b3c6124fd565b8383612ab3565b5050565b6000600d6000838152602001908152602001600020549050919050565b611b75611b6f6124fd565b8361265a565b611bb4576040517f08c379a0000000000000000000000000000000000000000000000000000000008152600401611bab90613cad565b60405180910390fd5b611bc084848484612c20565b50505050565b6000611bd26008612483565b905090565b6060611be282612491565b611c21576040517f08c379a0000000000000000000000000000000000000000000000000000000008152600401611c1890613c4d565b60405180910390fd5b6000611c2b612c7c565b90506000815111611c4b5760405180602001604052806000815250611c76565b80611c5584612c93565b604051602001611c669291906138cb565b6040516020818303038152906040525b915050919050565b60606000611c8c6007612483565b905060008060005b83811015611d29573373ffffffffffffffffffffffffffffffffffffffff16600e600083815260200190815260200160002060040160009054906101000a900473ffffffffffffffffffffffffffffffffffffffff1673ffffffffffffffffffffffffffffffffffffffff161415611d1657600183611d139190613e1a565b92505b8080611d219061405a565b915050611c94565b5060008267ffffffffffffffff811115611d6c577f4e487b7100000000000000000000000000000000000000000000000000000000600052604160045260246000fd5b604051908082528060200260200182016040528015611da557816020015b611d9261302d565b815260200190600190039081611d8a5790505b50905060005b84811015611fff573373ffffffffffffffffffffffffffffffffffffffff16600e600083815260200190815260200160002060040160009054906101000a900473ffffffffffffffffffffffffffffffffffffffff1673ffffffffffffffffffffffffffffffffffffffff161415611fec576000600e60008381526020019081526020016000206000015490506000600e60008381526020019081526020016000209050806040518060e0016040529081600082015481526020016001820160009054906101000a900473ffffffffffffffffffffffffffffffffffffffff1673ffffffffffffffffffffffffffffffffffffffff1673ffffffffffffffffffffffffffffffffffffffff168152602001600282015481526020016003820160009054906101000a900473ffffffffffffffffffffffffffffffffffffffff1673ffffffffffffffffffffffffffffffffffffffff1673ffffffffffffffffffffffffffffffffffffffff1681526020016004820160009054906101000a900473ffffffffffffffffffffffffffffffffffffffff1673ffffffffffffffffffffffffffffffffffffffff1673ffffffffffffffffffffffffffffffffffffffff168152602001600582015481526020016006820160009054906101000a900460ff161515151581525050848681518110611fcf577f4e487b7100000000000000000000000000000000000000000000000000000000600052603260045260246000fd5b6020026020010181905250600185611fe79190613e1a565b945050505b8080611ff79061405a565b915050611dab565b508094505050505090565b6000600560008473ffffffffffffffffffffffffffffffffffffffff1673ffffffffffffffffffffffffffffffffffffffff16815260200190815260200160002060008373ffffffffffffffffffffffffffffffffffffffff1673ffffffffffffffffffffffffffffffffffffffff16815260200190815260200160002060009054906101000a900460ff16905092915050565b3373ffffffffffffffffffffffffffffffffffffffff16600a60009054906101000a900473ffffffffffffffffffffffffffffffffffffffff1673ffffffffffffffffffffffffffffffffffffffff161461212e576040517f08c379a000000000000000000000000000000000000000000000000000000000815260040161212590613ccd565b60405180910390fd5b80600b8190555050565b6002600654141561217e576040517f08c379a000000000000000000000000000000000000000000000000000000000815260040161217590613ced565b60405180910390fd5b60026006819055506000600e60008381526020019081526020016000206005015490506000600e60008481526020019081526020016000206002015490508134146121fe576040517f08c379a00000000000000000000000000000000000000000000000000000000081526004016121f590613c6d565b60405180910390fd5b60006064600c5461220f9190613e70565b3461221a9190613ea1565b9050600e600085815260200190815260200160002060030160009054906101000a900473ffffffffffffffffffffffffffffffffffffffff1673ffffffffffffffffffffffffffffffffffffffff166108fc82346122789190613efb565b9081150290604051600060405180830381858888f193505050501580156122a3573d6000803e3d6000fd5b508473ffffffffffffffffffffffffffffffffffffffff166323b872dd3033856040518463ffffffff1660e01b81526004016122e19392919061394f565b600060405180830381600087803b1580156122fb57600080fd5b505af115801561230f573d6000803e3d6000fd5b50505050600a60009054906101000a900473ffffffffffffffffffffffffffffffffffffffff1673ffffffffffffffffffffffffffffffffffffffff166108fc829081150290604051600060405180830381858888f1935050505015801561237b573d6000803e3d6000fd5b5033600e600086815260200190815260200160002060040160006101000a81548173ffffffffffffffffffffffffffffffffffffffff021916908373ffffffffffffffffffffffffffffffffffffffff1602179055506001600e600086815260200190815260200160002060060160006101000a81548160ff02191690831515021790555061240a600861299f565b50505060016006819055505050565b60007f01ffc9a7000000000000000000000000000000000000000000000000000000007bffffffffffffffffffffffffffffffffffffffffffffffffffffffff1916827bffffffffffffffffffffffffffffffffffffffffffffffffffffffff1916149050919050565b600081600001549050919050565b60008073ffffffffffffffffffffffffffffffffffffffff166002600084815260200190815260200160002060009054906101000a900473ffffffffffffffffffffffffffffffffffffffff1673ffffffffffffffffffffffffffffffffffffffff1614159050919050565b600033905090565b816004600083815260200190815260200160002060006101000a81548173ffffffffffffffffffffffffffffffffffffffff021916908373ffffffffffffffffffffffffffffffffffffffff160217905550808273ffffffffffffffffffffffffffffffffffffffff16612578836113f5565b73ffffffffffffffffffffffffffffffffffffffff167f8c5be1e5ebec7d5bd14f71427d1e84f3dd0314c0f7b2291e5b200ac8c7c3b92560405160405180910390a45050565b61265682826040516024016125d4929190613a7d565b6040516020818303038152906040527f9710a9d0000000000000000000000000000000000000000000000000000000007bffffffffffffffffffffffffffffffffffffffffffffffffffffffff19166020820180517bffffffffffffffffffffffffffffffffffffffffffffffffffffffff8381831617835250505050612e40565b5050565b600061266582612491565b6126a4576040517f08c379a000000000000000000000000000000000000000000000000000000000815260040161269b90613b8d565b60405180910390fd5b60006126af836113f5565b90508073ffffffffffffffffffffffffffffffffffffffff168473ffffffffffffffffffffffffffffffffffffffff16148061271e57508373ffffffffffffffffffffffffffffffffffffffff1661270684610713565b73ffffffffffffffffffffffffffffffffffffffff16145b8061272f575061272e818561200a565b5b91505092915050565b8273ffffffffffffffffffffffffffffffffffffffff16612758826113f5565b73ffffffffffffffffffffffffffffffffffffffff16146127ae576040517f08c379a00000000000000000000000000000000000000000000000000000000081526004016127a590613b0d565b60405180910390fd5b600073ffffffffffffffffffffffffffffffffffffffff168273ffffffffffffffffffffffffffffffffffffffff16141561281e576040517f08c379a000000000000000000000000000000000000000000000000000000000815260040161281590613b2d565b60405180910390fd5b612829838383612e69565b612834600082612505565b6001600360008573ffffffffffffffffffffffffffffffffffffffff1673ffffffffffffffffffffffffffffffffffffffff16815260200190815260200160002060008282546128849190613efb565b925050819055506001600360008473ffffffffffffffffffffffffffffffffffffffff1673ffffffffffffffffffffffffffffffffffffffff16815260200190815260200160002060008282546128db9190613e1a565b92505081905550816002600083815260200190815260200160002060006101000a81548173ffffffffffffffffffffffffffffffffffffffff021916908373ffffffffffffffffffffffffffffffffffffffff160217905550808273ffffffffffffffffffffffffffffffffffffffff168473ffffffffffffffffffffffffffffffffffffffff167fddf252ad1be2c89b69c2b068fc378daa952ba7f163c4a11628f55a4df523b3ef60405160405180910390a461299a838383612e6e565b505050565b6001816000016000828254019250508190555050565b612a51848484846040516024016129cf9493929190613a31565b6040516020818303038152906040527fa366ec80000000000000000000000000000000000000000000000000000000007bffffffffffffffffffffffffffffffffffffffffffffffffffffffff19166020820180517bffffffffffffffffffffffffffffffffffffffffffffffffffffffff8381831617835250505050612e40565b50505050565b60008160000154905060008111612aa3576040517f08c379a0000000000000000000000000000000000000000000000000000000008152600401612a9a90613acd565b60405180910390fd5b6001810382600001819055505050565b8173ffffffffffffffffffffffffffffffffffffffff168373ffffffffffffffffffffffffffffffffffffffff161415612b22576040517f08c379a0000000000000000000000000000000000000000000000000000000008152600401612b1990613b4d565b60405180910390fd5b80600560008573ffffffffffffffffffffffffffffffffffffffff1673ffffffffffffffffffffffffffffffffffffffff16815260200190815260200160002060008473ffffffffffffffffffffffffffffffffffffffff1673ffffffffffffffffffffffffffffffffffffffff16815260200190815260200160002060006101000a81548160ff0219169083151502179055508173ffffffffffffffffffffffffffffffffffffffff168373ffffffffffffffffffffffffffffffffffffffff167f17307eab39ab6107e8899845ad3d59bd9653f200f220920489ca2b5937696c3183604051612c1391906139f4565b60405180910390a3505050565b612c2b848484612738565b612c3784848484612e73565b612c76576040517f08c379a0000000000000000000000000000000000000000000000000000000008152600401612c6d90613aed565b60405180910390fd5b50505050565b606060405180602001604052806000815250905090565b60606000821415612cdb576040518060400160405280600181526020017f30000000000000000000000000000000000000000000000000000000000000008152509050612e3b565b600082905060005b60008214612d0d578080612cf69061405a565b915050600a82612d069190613e70565b9150612ce3565b60008167ffffffffffffffff811115612d4f577f4e487b7100000000000000000000000000000000000000000000000000000000600052604160045260246000fd5b6040519080825280601f01601f191660200182016040528015612d815781602001600182028036833780820191505090505b5090505b60008514612e3457600182612d9a9190613efb565b9150600a85612da991906140a3565b6030612db59190613e1a565b60f81b818381518110612df1577f4e487b7100000000000000000000000000000000000000000000000000000000600052603260045260246000fd5b60200101907effffffffffffffffffffffffffffffffffffffffffffffffffffffffffffff1916908160001a905350600a85612e2d9190613e70565b9450612d85565b8093505050505b919050565b60008151905060006a636f6e736f6c652e6c6f679050602083016000808483855afa5050505050565b505050565b505050565b6000612e948473ffffffffffffffffffffffffffffffffffffffff1661300a565b15612ffd578373ffffffffffffffffffffffffffffffffffffffff1663150b7a02612ebd6124fd565b8786866040518563ffffffff1660e01b8152600401612edf9493929190613986565b602060405180830381600087803b158015612ef957600080fd5b505af1925050508015612f2a57506040513d601f19601f82011682018060405250810190612f27919061339e565b60015b612fad573d8060008114612f5a576040519150601f19603f3d011682016040523d82523d6000602084013e612f5f565b606091505b50600081511415612fa5576040517f08c379a0000000000000000000000000000000000000000000000000000000008152600401612f9c90613aed565b60405180910390fd5b805181602001fd5b63150b7a0260e01b7bffffffffffffffffffffffffffffffffffffffffffffffffffffffff1916817bffffffffffffffffffffffffffffffffffffffffffffffffffffffff191614915050613002565b600190505b949350505050565b6000808273ffffffffffffffffffffffffffffffffffffffff163b119050919050565b6040518060e0016040528060008152602001600073ffffffffffffffffffffffffffffffffffffffff16815260200160008152602001600073ffffffffffffffffffffffffffffffffffffffff168152602001600073ffffffffffffffffffffffffffffffffffffffff168152602001600081526020016000151581525090565b60006130c16130bc84613d6d565b613d48565b9050828152602081018484840111156130d957600080fd5b6130e4848285613fb5565b509392505050565b6000813590506130fb81614735565b92915050565b6000813590506131108161474c565b92915050565b60008135905061312581614763565b92915050565b60008151905061313a81614763565b92915050565b600082601f83011261315157600080fd5b81356131618482602086016130ae565b91505092915050565b6000813590506131798161477a565b92915050565b60006020828403121561319157600080fd5b600061319f848285016130ec565b91505092915050565b600080604083850312156131bb57600080fd5b60006131c9858286016130ec565b92505060206131da858286016130ec565b9150509250929050565b6000806000606084860312156131f957600080fd5b6000613207868287016130ec565b9350506020613218868287016130ec565b92505060406132298682870161316a565b9150509250925092565b6000806000806080858703121561324957600080fd5b6000613257878288016130ec565b9450506020613268878288016130ec565b93505060406132798782880161316a565b925050606085013567ffffffffffffffff81111561329657600080fd5b6132a287828801613140565b91505092959194509250565b600080604083850312156132c157600080fd5b60006132cf858286016130ec565b92505060206132e085828601613101565b9150509250929050565b600080604083850312156132fd57600080fd5b600061330b858286016130ec565b925050602061331c8582860161316a565b9150509250929050565b60008060006060848603121561333b57600080fd5b6000613349868287016130ec565b935050602061335a8682870161316a565b925050604061336b8682870161316a565b9150509250925092565b60006020828403121561338757600080fd5b600061339584828501613116565b91505092915050565b6000602082840312156133b057600080fd5b60006133be8482850161312b565b91505092915050565b6000602082840312156133d957600080fd5b60006133e78482850161316a565b91505092915050565b60006133fc838361381f565b60e08301905092915050565b61341181613f41565b82525050565b61342081613f41565b82525050565b61342f81613f2f565b82525050565b61343e81613f2f565b82525050565b600061344f82613dae565b6134598185613ddc565b935061346483613d9e565b8060005b8381101561349557815161347c88826133f0565b975061348783613dcf565b925050600181019050613468565b5085935050505092915050565b6134ab81613f53565b82525050565b6134ba81613f53565b82525050565b60006134cb82613db9565b6134d58185613ded565b93506134e5818560208601613fc4565b6134ee81614190565b840191505092915050565b600061350482613dc4565b61350e8185613dfe565b935061351e818560208601613fc4565b61352781614190565b840191505092915050565b600061353d82613dc4565b6135478185613e0f565b9350613557818560208601613fc4565b80840191505092915050565b6000613570603083613dfe565b915061357b826141a1565b604082019050919050565b6000613593601b83613dfe565b915061359e826141f0565b602082019050919050565b60006135b6603283613dfe565b91506135c182614219565b604082019050919050565b60006135d9602583613dfe565b91506135e482614268565b604082019050919050565b60006135fc602483613dfe565b9150613607826142b7565b604082019050919050565b600061361f601983613dfe565b915061362a82614306565b602082019050919050565b6000613642603883613dfe565b915061364d8261432f565b604082019050919050565b6000613665602c83613dfe565b91506136708261437e565b604082019050919050565b6000613688603883613dfe565b9150613693826143cd565b604082019050919050565b60006136ab602a83613dfe565b91506136b68261441c565b604082019050919050565b60006136ce602983613dfe565b91506136d98261446b565b604082019050919050565b60006136f1602b83613dfe565b91506136fc826144ba565b604082019050919050565b6000613714602c83613dfe565b915061371f82614509565b604082019050919050565b6000613737602f83613dfe565b915061374282614558565b604082019050919050565b600061375a602d83613dfe565b9150613765826145a7565b604082019050919050565b600061377d602183613dfe565b9150613788826145f6565b604082019050919050565b60006137a0603183613dfe565b91506137ab82614645565b604082019050919050565b60006137c3603083613dfe565b91506137ce82614694565b604082019050919050565b60006137e6601f83613dfe565b91506137f1826146e3565b602082019050919050565b6000613809601c83613dfe565b91506138148261470c565b602082019050919050565b60e08201600082015161383560008501826138ad565b5060208201516138486020850182613426565b50604082015161385b60408501826138ad565b50606082015161386e6060850182613408565b5060808201516138816080850182613408565b5060a082015161389460a08501826138ad565b5060c08201516138a760c08501826134a2565b50505050565b6138b681613fab565b82525050565b6138c581613fab565b82525050565b60006138d78285613532565b91506138e38284613532565b91508190509392505050565b60006020820190506139046000830184613435565b92915050565b600060808201905061391f6000830187613417565b61392c6020830186613417565b61393960408301856138bc565b61394660608301846134b1565b95945050505050565b60006060820190506139646000830186613435565b6139716020830185613435565b61397e60408301846138bc565b949350505050565b600060808201905061399b6000830187613435565b6139a86020830186613435565b6139b560408301856138bc565b81810360608301526139c781846134c0565b905095945050505050565b600060208201905081810360008301526139ec8184613444565b905092915050565b6000602082019050613a0960008301846134b1565b92915050565b60006020820190508181036000830152613a2981846134f9565b905092915050565b60006080820190508181036000830152613a4b81876134f9565b9050613a5a6020830186613435565b613a6760408301856138bc565b613a746060830184613435565b95945050505050565b60006040820190508181036000830152613a9781856134f9565b9050613aa660208301846138bc565b9392505050565b60006020820190508181036000830152613ac681613563565b9050919050565b60006020820190508181036000830152613ae681613586565b9050919050565b60006020820190508181036000830152613b06816135a9565b9050919050565b60006020820190508181036000830152613b26816135cc565b9050919050565b60006020820190508181036000830152613b46816135ef565b9050919050565b60006020820190508181036000830152613b6681613612565b9050919050565b60006020820190508181036000830152613b8681613635565b9050919050565b60006020820190508181036000830152613ba681613658565b9050919050565b60006020820190508181036000830152613bc68161367b565b9050919050565b60006020820190508181036000830152613be68161369e565b9050919050565b60006020820190508181036000830152613c06816136c1565b9050919050565b60006020820190508181036000830152613c26816136e4565b9050919050565b60006020820190508181036000830152613c4681613707565b9050919050565b60006020820190508181036000830152613c668161372a565b9050919050565b60006020820190508181036000830152613c868161374d565b9050919050565b60006020820190508181036000830152613ca681613770565b9050919050565b60006020820190508181036000830152613cc681613793565b9050919050565b60006020820190508181036000830152613ce6816137b6565b9050919050565b60006020820190508181036000830152613d06816137d9565b9050919050565b60006020820190508181036000830152613d26816137fc565b9050919050565b6000602082019050613d4260008301846138bc565b92915050565b6000613d52613d63565b9050613d5e8282614029565b919050565b6000604051905090565b600067ffffffffffffffff821115613d8857613d87614161565b5b613d9182614190565b9050602081019050919050565b6000819050602082019050919050565b600081519050919050565b600081519050919050565b600081519050919050565b6000602082019050919050565b600082825260208201905092915050565b600082825260208201905092915050565b600082825260208201905092915050565b600081905092915050565b6000613e2582613fab565b9150613e3083613fab565b9250827fffffffffffffffffffffffffffffffffffffffffffffffffffffffffffffffff03821115613e6557613e646140d4565b5b828201905092915050565b6000613e7b82613fab565b9150613e8683613fab565b925082613e9657613e95614103565b5b828204905092915050565b6000613eac82613fab565b9150613eb783613fab565b9250817fffffffffffffffffffffffffffffffffffffffffffffffffffffffffffffffff0483118215151615613ef057613eef6140d4565b5b828202905092915050565b6000613f0682613fab565b9150613f1183613fab565b925082821015613f2457613f236140d4565b5b828203905092915050565b6000613f3a82613f8b565b9050919050565b6000613f4c82613f8b565b9050919050565b60008115159050919050565b60007fffffffff0000000000000000000000000000000000000000000000000000000082169050919050565b600073ffffffffffffffffffffffffffffffffffffffff82169050919050565b6000819050919050565b82818337600083830152505050565b60005b83811015613fe2578082015181840152602081019050613fc7565b83811115613ff1576000848401525b50505050565b6000600282049050600182168061400f57607f821691505b6020821081141561402357614022614132565b5b50919050565b61403282614190565b810181811067ffffffffffffffff8211171561405157614050614161565b5b80604052505050565b600061406582613fab565b91507fffffffffffffffffffffffffffffffffffffffffffffffffffffffffffffffff821415614098576140976140d4565b5b600182019050919050565b60006140ae82613fab565b91506140b983613fab565b9250826140c9576140c8614103565b5b828206905092915050565b7f4e487b7100000000000000000000000000000000000000000000000000000000600052601160045260246000fd5b7f4e487b7100000000000000000000000000000000000000000000000000000000600052601260045260246000fd5b7f4e487b7100000000000000000000000000000000000000000000000000000000600052602260045260246000fd5b7f4e487b7100000000000000000000000000000000000000000000000000000000600052604160045260246000fd5b6000601f19601f8301169050919050565b7f596f75206d75737420706179207468652066656520746f206c69737420616e2060008201527f6974656d20666f722073616c65203a2900000000000000000000000000000000602082015250565b7f436f756e7465723a2064656372656d656e74206f766572666c6f770000000000600082015250565b7f4552433732313a207472616e7366657220746f206e6f6e20455243373231526560008201527f63656976657220696d706c656d656e7465720000000000000000000000000000602082015250565b7f4552433732313a207472616e736665722066726f6d20696e636f72726563742060008201527f6f776e6572000000000000000000000000000000000000000000000000000000602082015250565b7f4552433732313a207472616e7366657220746f20746865207a65726f2061646460008201527f7265737300000000000000000000000000000000000000000000000000000000602082015250565b7f4552433732313a20617070726f766520746f2063616c6c657200000000000000600082015250565b7f4f6e6c79206d61726b6574706c616365206f776e65722063616e20757064617460008201527f6520746865206d61726b657420636f6d6d697373696f6e2e0000000000000000602082015250565b7f4552433732313a206f70657261746f7220717565727920666f72206e6f6e657860008201527f697374656e7420746f6b656e0000000000000000000000000000000000000000602082015250565b7f4552433732313a20617070726f76652063616c6c6572206973206e6f74206f7760008201527f6e6572206e6f7220617070726f76656420666f7220616c6c0000000000000000602082015250565b7f4552433732313a2062616c616e636520717565727920666f7220746865207a6560008201527f726f206164647265737300000000000000000000000000000000000000000000602082015250565b7f4552433732313a206f776e657220717565727920666f72206e6f6e657869737460008201527f656e7420746f6b656e0000000000000000000000000000000000000000000000602082015250565b7f4f6e6c79207468652073656c6c65722063616e2077697468647261772074686560008201527f206c697374696e67203a29000000000000000000000000000000000000000000602082015250565b7f4552433732313a20617070726f76656420717565727920666f72206e6f6e657860008201527f697374656e7420746f6b656e0000000000000000000000000000000000000000602082015250565b7f4552433732314d657461646174613a2055524920717565727920666f72206e6f60008201527f6e6578697374656e7420746f6b656e0000000000000000000000000000000000602082015250565b7f5472616e73616374696f6e2076616c7565206d75737420657175616c2074686560008201527f206974656d277320707269636500000000000000000000000000000000000000602082015250565b7f4552433732313a20617070726f76616c20746f2063757272656e74206f776e6560008201527f7200000000000000000000000000000000000000000000000000000000000000602082015250565b7f4552433732313a207472616e736665722063616c6c6572206973206e6f74206f60008201527f776e6572206e6f7220617070726f766564000000000000000000000000000000602082015250565b7f4f6e6c79206d61726b6574706c616365206f776e65722063616e20757064617460008201527f65206c697374696e672070726963652e00000000000000000000000000000000602082015250565b7f5265656e7472616e637947756172643a207265656e7472616e742063616c6c00600082015250565b7f5072696365206d757374206265206174206c6561737420312077656900000000600082015250565b61473e81613f2f565b811461474957600080fd5b50565b61475581613f53565b811461476057600080fd5b50565b61476c81613f5f565b811461477757600080fd5b50565b61478381613fab565b811461478e57600080fd5b5056fe41646472202573206c6973746564204e4654202325732066726f6d20636f6e7472616374202573a2646970667358221220cdd63572da51930de14227b658f8b00bdb78c42478e26964884d965149b6fe3564736f6c63430008040033",
  "linkReferences": {},
  "deployedLinkReferences": {}
}